{
	"contracts/RizalLibrary.sol": {
		"RizalLibrary": {
			"abi": [
				{
					"inputs": [],
					"stateMutability": "nonpayable",
					"type": "constructor"
				},
				{
					"anonymous": false,
					"inputs": [
						{
							"indexed": false,
							"internalType": "uint256",
							"name": "bookCallNum",
							"type": "uint256"
						},
						{
							"indexed": true,
							"internalType": "address",
							"name": "studentAddress",
							"type": "address"
						}
					],
					"name": "BookBorrowed",
					"type": "event"
				},
				{
					"anonymous": false,
					"inputs": [
						{
							"indexed": true,
							"internalType": "address",
							"name": "studentAddress",
							"type": "address"
						},
						{
							"indexed": false,
							"internalType": "uint256",
							"name": "idnumber",
							"type": "uint256"
						}
					],
					"name": "StudentEnrolled",
					"type": "event"
				},
				{
					"anonymous": false,
					"inputs": [
						{
							"indexed": true,
							"internalType": "address",
							"name": "studentAddress",
							"type": "address"
						},
						{
							"indexed": false,
							"internalType": "uint256",
							"name": "paid",
							"type": "uint256"
						}
					],
					"name": "StudentPaid",
					"type": "event"
				},
				{
					"inputs": [
						{
							"internalType": "address",
							"name": "_student",
							"type": "address"
						},
						{
							"internalType": "uint256",
							"name": "_idnumber",
							"type": "uint256"
						},
						{
							"internalType": "string",
							"name": "_name",
							"type": "string"
						}
					],
					"name": "addStudent",
					"outputs": [],
					"stateMutability": "nonpayable",
					"type": "function"
				},
				{
					"inputs": [
						{
							"internalType": "uint256",
							"name": "_bookCallNum",
							"type": "uint256"
						}
					],
					"name": "borrow",
					"outputs": [],
					"stateMutability": "nonpayable",
					"type": "function"
				},
				{
					"inputs": [],
					"name": "payBalance",
					"outputs": [],
					"stateMutability": "payable",
					"type": "function"
				},
				{
					"inputs": [],
					"name": "returnBook",
					"outputs": [],
					"stateMutability": "nonpayable",
					"type": "function"
				}
			],
			"devdoc": {
				"kind": "dev",
				"methods": {},
				"version": 1
			},
			"evm": {
				"assembly": "    /* \"contracts/RizalLibrary.sol\":611:3662  contract RizalLibrary {... */\n  mstore(0x40, 0x80)\n    /* \"contracts/RizalLibrary.sol\":2234:2289  constructor() {... */\n  callvalue\n  dup1\n  iszero\n  tag_1\n  jumpi\n  revert(0x00, 0x00)\ntag_1:\n  pop\n    /* \"contracts/RizalLibrary.sol\":2271:2281  msg.sender */\n  caller\n    /* \"contracts/RizalLibrary.sol\":2259:2268  librarian */\n  0x00\n  0x00\n    /* \"contracts/RizalLibrary.sol\":2259:2281  librarian = msg.sender */\n  0x0100\n  exp\n  dup2\n  sload\n  dup2\n  0xffffffffffffffffffffffffffffffffffffffff\n  mul\n  not\n  and\n  swap1\n  dup4\n  0xffffffffffffffffffffffffffffffffffffffff\n  and\n  mul\n  or\n  swap1\n  sstore\n  pop\n    /* \"contracts/RizalLibrary.sol\":611:3662  contract RizalLibrary {... */\n  dataSize(sub_0)\n  dup1\n  dataOffset(sub_0)\n  0x00\n  codecopy\n  0x00\n  return\nstop\n\nsub_0: assembly {\n        /* \"contracts/RizalLibrary.sol\":611:3662  contract RizalLibrary {... */\n      mstore(0x40, 0x80)\n      jumpi(tag_1, lt(calldatasize, 0x04))\n      shr(0xe0, calldataload(0x00))\n      dup1\n      0x60e5f3bb\n      eq\n      tag_2\n      jumpi\n      dup1\n      0x772aaeb5\n      eq\n      tag_3\n      jumpi\n      dup1\n      0xc5ebeaec\n      eq\n      tag_4\n      jumpi\n      dup1\n      0xd5503d5f\n      eq\n      tag_5\n      jumpi\n    tag_1:\n      revert(0x00, 0x00)\n        /* \"contracts/RizalLibrary.sol\":2297:2574  function addStudent(address _student, uint _idnumber, string memory _name) public isLibrarian {... */\n    tag_2:\n      callvalue\n      dup1\n      iszero\n      tag_6\n      jumpi\n      revert(0x00, 0x00)\n    tag_6:\n      pop\n      tag_7\n      0x04\n      dup1\n      calldatasize\n      sub\n      dup2\n      add\n      swap1\n      tag_8\n      swap2\n      swap1\n      tag_9\n      jump\t// in\n    tag_8:\n      tag_10\n      jump\t// in\n    tag_7:\n      stop\n        /* \"contracts/RizalLibrary.sol\":2891:3315  function returnBook() external isStudent isEnrolled hasBorrowedBook {... */\n    tag_3:\n      callvalue\n      dup1\n      iszero\n      tag_11\n      jumpi\n      revert(0x00, 0x00)\n    tag_11:\n      pop\n      tag_12\n      tag_13\n      jump\t// in\n    tag_12:\n      stop\n        /* \"contracts/RizalLibrary.sol\":2582:2883  function borrow(uint _bookCallNum) external isStudent isEnrolled noHoldOrder noBorrowedBook {... */\n    tag_4:\n      callvalue\n      dup1\n      iszero\n      tag_14\n      jumpi\n      revert(0x00, 0x00)\n    tag_14:\n      pop\n      tag_15\n      0x04\n      dup1\n      calldatasize\n      sub\n      dup2\n      add\n      swap1\n      tag_16\n      swap2\n      swap1\n      tag_17\n      jump\t// in\n    tag_16:\n      tag_18\n      jump\t// in\n    tag_15:\n      stop\n        /* \"contracts/RizalLibrary.sol\":3323:3659  function payBalance() external payable isStudent isEnrolled hasHoldOrder {... */\n    tag_5:\n      tag_19\n      tag_20\n      jump\t// in\n    tag_19:\n      stop\n        /* \"contracts/RizalLibrary.sol\":2297:2574  function addStudent(address _student, uint _idnumber, string memory _name) public isLibrarian {... */\n    tag_10:\n        /* \"contracts/RizalLibrary.sol\":1513:1522  librarian */\n      0x00\n      0x00\n      swap1\n      sload\n      swap1\n      0x0100\n      exp\n      swap1\n      div\n      0xffffffffffffffffffffffffffffffffffffffff\n      and\n        /* \"contracts/RizalLibrary.sol\":1499:1522  msg.sender == librarian */\n      0xffffffffffffffffffffffffffffffffffffffff\n      and\n        /* \"contracts/RizalLibrary.sol\":1499:1509  msg.sender */\n      caller\n        /* \"contracts/RizalLibrary.sol\":1499:1522  msg.sender == librarian */\n      0xffffffffffffffffffffffffffffffffffffffff\n      and\n      eq\n        /* \"contracts/RizalLibrary.sol\":1491:1551  require(msg.sender == librarian, \"You are not a librarian!\") */\n      tag_22\n      jumpi\n      mload(0x40)\n      0x08c379a000000000000000000000000000000000000000000000000000000000\n      dup2\n      mstore\n      0x04\n      add\n      tag_23\n      swap1\n      tag_24\n      jump\t// in\n    tag_23:\n      mload(0x40)\n      dup1\n      swap2\n      sub\n      swap1\n      revert\n    tag_22:\n        /* \"contracts/RizalLibrary.sol\":2441:2442  0 */\n      0x00\n        /* \"contracts/RizalLibrary.sol\":2410:2418  students */\n      0x01\n        /* \"contracts/RizalLibrary.sol\":2410:2428  students[_student] */\n      0x00\n        /* \"contracts/RizalLibrary.sol\":2419:2427  _student */\n      dup6\n        /* \"contracts/RizalLibrary.sol\":2410:2428  students[_student] */\n      0xffffffffffffffffffffffffffffffffffffffff\n      and\n      0xffffffffffffffffffffffffffffffffffffffff\n      and\n      dup2\n      mstore\n      0x20\n      add\n      swap1\n      dup2\n      mstore\n      0x20\n      add\n      0x00\n      keccak256\n        /* \"contracts/RizalLibrary.sol\":2410:2437  students[_student].idnumber */\n      0x00\n      add\n      sload\n        /* \"contracts/RizalLibrary.sol\":2410:2442  students[_student].idnumber == 0 */\n      eq\n        /* \"contracts/RizalLibrary.sol\":2402:2472  require(students[_student].idnumber == 0, \"Student already enrolled!\") */\n      tag_26\n      jumpi\n      mload(0x40)\n      0x08c379a000000000000000000000000000000000000000000000000000000000\n      dup2\n      mstore\n      0x04\n      add\n      tag_27\n      swap1\n      tag_28\n      jump\t// in\n    tag_27:\n      mload(0x40)\n      dup1\n      swap2\n      sub\n      swap1\n      revert\n    tag_26:\n        /* \"contracts/RizalLibrary.sol\":2513:2522  _idnumber */\n      dup2\n        /* \"contracts/RizalLibrary.sol\":2483:2491  students */\n      0x01\n        /* \"contracts/RizalLibrary.sol\":2483:2501  students[_student] */\n      0x00\n        /* \"contracts/RizalLibrary.sol\":2492:2500  _student */\n      dup6\n        /* \"contracts/RizalLibrary.sol\":2483:2501  students[_student] */\n      0xffffffffffffffffffffffffffffffffffffffff\n      and\n      0xffffffffffffffffffffffffffffffffffffffff\n      and\n      dup2\n      mstore\n      0x20\n      add\n      swap1\n      dup2\n      mstore\n      0x20\n      add\n      0x00\n      keccak256\n        /* \"contracts/RizalLibrary.sol\":2483:2510  students[_student].idnumber */\n      0x00\n      add\n        /* \"contracts/RizalLibrary.sol\":2483:2522  students[_student].idnumber = _idnumber */\n      dup2\n      swap1\n      sstore\n      pop\n        /* \"contracts/RizalLibrary.sol\":2560:2565  _name */\n      dup1\n        /* \"contracts/RizalLibrary.sol\":2534:2542  students */\n      0x01\n        /* \"contracts/RizalLibrary.sol\":2534:2552  students[_student] */\n      0x00\n        /* \"contracts/RizalLibrary.sol\":2543:2551  _student */\n      dup6\n        /* \"contracts/RizalLibrary.sol\":2534:2552  students[_student] */\n      0xffffffffffffffffffffffffffffffffffffffff\n      and\n      0xffffffffffffffffffffffffffffffffffffffff\n      and\n      dup2\n      mstore\n      0x20\n      add\n      swap1\n      dup2\n      mstore\n      0x20\n      add\n      0x00\n      keccak256\n        /* \"contracts/RizalLibrary.sol\":2534:2557  students[_student].name */\n      0x01\n      add\n        /* \"contracts/RizalLibrary.sol\":2534:2565  students[_student].name = _name */\n      swap1\n      dup2\n      tag_29\n      swap2\n      swap1\n      tag_30\n      jump\t// in\n    tag_29:\n      pop\n        /* \"contracts/RizalLibrary.sol\":2297:2574  function addStudent(address _student, uint _idnumber, string memory _name) public isLibrarian {... */\n      pop\n      pop\n      pop\n      jump\t// out\n        /* \"contracts/RizalLibrary.sol\":2891:3315  function returnBook() external isStudent isEnrolled hasBorrowedBook {... */\n    tag_13:\n        /* \"contracts/RizalLibrary.sol\":1388:1397  librarian */\n      0x00\n      0x00\n      swap1\n      sload\n      swap1\n      0x0100\n      exp\n      swap1\n      div\n      0xffffffffffffffffffffffffffffffffffffffff\n      and\n        /* \"contracts/RizalLibrary.sol\":1374:1397  msg.sender != librarian */\n      0xffffffffffffffffffffffffffffffffffffffff\n      and\n        /* \"contracts/RizalLibrary.sol\":1374:1384  msg.sender */\n      caller\n        /* \"contracts/RizalLibrary.sol\":1374:1397  msg.sender != librarian */\n      0xffffffffffffffffffffffffffffffffffffffff\n      and\n      sub\n        /* \"contracts/RizalLibrary.sol\":1366:1425  require(msg.sender != librarian , \"You are not a student!\") */\n      tag_32\n      jumpi\n      mload(0x40)\n      0x08c379a000000000000000000000000000000000000000000000000000000000\n      dup2\n      mstore\n      0x04\n      add\n      tag_33\n      swap1\n      tag_34\n      jump\t// in\n    tag_33:\n      mload(0x40)\n      dup1\n      swap2\n      sub\n      swap1\n      revert\n    tag_32:\n        /* \"contracts/RizalLibrary.sol\":1956:1957  0 */\n      0x00\n        /* \"contracts/RizalLibrary.sol\":1924:1932  students */\n      0x01\n        /* \"contracts/RizalLibrary.sol\":1924:1944  students[msg.sender] */\n      0x00\n        /* \"contracts/RizalLibrary.sol\":1933:1943  msg.sender */\n      caller\n        /* \"contracts/RizalLibrary.sol\":1924:1944  students[msg.sender] */\n      0xffffffffffffffffffffffffffffffffffffffff\n      and\n      0xffffffffffffffffffffffffffffffffffffffff\n      and\n      dup2\n      mstore\n      0x20\n      add\n      swap1\n      dup2\n      mstore\n      0x20\n      add\n      0x00\n      keccak256\n        /* \"contracts/RizalLibrary.sol\":1924:1953  students[msg.sender].idnumber */\n      0x00\n      add\n      sload\n        /* \"contracts/RizalLibrary.sol\":1924:1957  students[msg.sender].idnumber > 0 */\n      gt\n        /* \"contracts/RizalLibrary.sol\":1916:1987  require(students[msg.sender].idnumber > 0, \"You are not yet enrolled!\") */\n      tag_36\n      jumpi\n      mload(0x40)\n      0x08c379a000000000000000000000000000000000000000000000000000000000\n      dup2\n      mstore\n      0x04\n      add\n      tag_37\n      swap1\n      tag_38\n      jump\t// in\n    tag_37:\n      mload(0x40)\n      dup1\n      swap2\n      sub\n      swap1\n      revert\n    tag_36:\n        /* \"contracts/RizalLibrary.sol\":1785:1793  students */\n      0x01\n        /* \"contracts/RizalLibrary.sol\":1785:1805  students[msg.sender] */\n      0x00\n        /* \"contracts/RizalLibrary.sol\":1794:1804  msg.sender */\n      caller\n        /* \"contracts/RizalLibrary.sol\":1785:1805  students[msg.sender] */\n      0xffffffffffffffffffffffffffffffffffffffff\n      and\n      0xffffffffffffffffffffffffffffffffffffffff\n      and\n      dup2\n      mstore\n      0x20\n      add\n      swap1\n      dup2\n      mstore\n      0x20\n      add\n      0x00\n      keccak256\n        /* \"contracts/RizalLibrary.sol\":1785:1817  students[msg.sender].hasBorrowed */\n      0x03\n      add\n      0x00\n      swap1\n      sload\n      swap1\n      0x0100\n      exp\n      swap1\n      div\n      0xff\n      and\n        /* \"contracts/RizalLibrary.sol\":1777:1855  require(students[msg.sender].hasBorrowed, \"You have not borrowed a book yet!\") */\n      tag_40\n      jumpi\n      mload(0x40)\n      0x08c379a000000000000000000000000000000000000000000000000000000000\n      dup2\n      mstore\n      0x04\n      add\n      tag_41\n      swap1\n      tag_42\n      jump\t// in\n    tag_41:\n      mload(0x40)\n      dup1\n      swap2\n      sub\n      swap1\n      revert\n    tag_40:\n        /* \"contracts/RizalLibrary.sol\":2970:2981  int current */\n      0x00\n        /* \"contracts/RizalLibrary.sol\":2988:3003  block.timestamp */\n      timestamp\n        /* \"contracts/RizalLibrary.sol\":2970:3004  int current = int(block.timestamp) */\n      swap1\n      pop\n        /* \"contracts/RizalLibrary.sol\":3030:3038  students */\n      0x01\n        /* \"contracts/RizalLibrary.sol\":3030:3050  students[msg.sender] */\n      0x00\n        /* \"contracts/RizalLibrary.sol\":3039:3049  msg.sender */\n      caller\n        /* \"contracts/RizalLibrary.sol\":3030:3050  students[msg.sender] */\n      0xffffffffffffffffffffffffffffffffffffffff\n      and\n      0xffffffffffffffffffffffffffffffffffffffff\n      and\n      dup2\n      mstore\n      0x20\n      add\n      swap1\n      dup2\n      mstore\n      0x20\n      add\n      0x00\n      keccak256\n        /* \"contracts/RizalLibrary.sol\":3030:3063  students[msg.sender].bookBorrowed */\n      0x04\n      add\n        /* \"contracts/RizalLibrary.sol\":3030:3078  students[msg.sender].bookBorrowed.borrowDeadline */\n      0x01\n      add\n      sload\n        /* \"contracts/RizalLibrary.sol\":3019:3026  current */\n      dup2\n        /* \"contracts/RizalLibrary.sol\":3019:3078  current >= students[msg.sender].bookBorrowed.borrowDeadline */\n      slt\n        /* \"contracts/RizalLibrary.sol\":3015:3199  if (current >= students[msg.sender].bookBorrowed.borrowDeadline) {... */\n      tag_44\n      jumpi\n        /* \"contracts/RizalLibrary.sol\":3128:3132  true */\n      0x01\n        /* \"contracts/RizalLibrary.sol\":3095:3103  students */\n      dup1\n        /* \"contracts/RizalLibrary.sol\":3095:3115  students[msg.sender] */\n      0x00\n        /* \"contracts/RizalLibrary.sol\":3104:3114  msg.sender */\n      caller\n        /* \"contracts/RizalLibrary.sol\":3095:3115  students[msg.sender] */\n      0xffffffffffffffffffffffffffffffffffffffff\n      and\n      0xffffffffffffffffffffffffffffffffffffffff\n      and\n      dup2\n      mstore\n      0x20\n      add\n      swap1\n      dup2\n      mstore\n      0x20\n      add\n      0x00\n      keccak256\n        /* \"contracts/RizalLibrary.sol\":3095:3125  students[msg.sender].holdOrder */\n      0x03\n      add\n      0x01\n        /* \"contracts/RizalLibrary.sol\":3095:3132  students[msg.sender].holdOrder = true */\n      0x0100\n      exp\n      dup2\n      sload\n      dup2\n      0xff\n      mul\n      not\n      and\n      swap1\n      dup4\n      iszero\n      iszero\n      mul\n      or\n      swap1\n      sstore\n      pop\n        /* \"contracts/RizalLibrary.sol\":3178:3187  50000 wei */\n      0xc350\n        /* \"contracts/RizalLibrary.sol\":3147:3155  students */\n      0x01\n        /* \"contracts/RizalLibrary.sol\":3147:3167  students[msg.sender] */\n      0x00\n        /* \"contracts/RizalLibrary.sol\":3156:3166  msg.sender */\n      caller\n        /* \"contracts/RizalLibrary.sol\":3147:3167  students[msg.sender] */\n      0xffffffffffffffffffffffffffffffffffffffff\n      and\n      0xffffffffffffffffffffffffffffffffffffffff\n      and\n      dup2\n      mstore\n      0x20\n      add\n      swap1\n      dup2\n      mstore\n      0x20\n      add\n      0x00\n      keccak256\n        /* \"contracts/RizalLibrary.sol\":3147:3175  students[msg.sender].balance */\n      0x02\n      add\n        /* \"contracts/RizalLibrary.sol\":3147:3187  students[msg.sender].balance = 50000 wei */\n      dup2\n      swap1\n      sstore\n      pop\n        /* \"contracts/RizalLibrary.sol\":3015:3199  if (current >= students[msg.sender].bookBorrowed.borrowDeadline) {... */\n    tag_44:\n        /* \"contracts/RizalLibrary.sol\":3244:3249  false */\n      0x00\n        /* \"contracts/RizalLibrary.sol\":3209:3217  students */\n      0x01\n        /* \"contracts/RizalLibrary.sol\":3209:3229  students[msg.sender] */\n      0x00\n        /* \"contracts/RizalLibrary.sol\":3218:3228  msg.sender */\n      caller\n        /* \"contracts/RizalLibrary.sol\":3209:3229  students[msg.sender] */\n      0xffffffffffffffffffffffffffffffffffffffff\n      and\n      0xffffffffffffffffffffffffffffffffffffffff\n      and\n      dup2\n      mstore\n      0x20\n      add\n      swap1\n      dup2\n      mstore\n      0x20\n      add\n      0x00\n      keccak256\n        /* \"contracts/RizalLibrary.sol\":3209:3241  students[msg.sender].hasBorrowed */\n      0x03\n      add\n      0x00\n        /* \"contracts/RizalLibrary.sol\":3209:3249  students[msg.sender].hasBorrowed = false */\n      0x0100\n      exp\n      dup2\n      sload\n      dup2\n      0xff\n      mul\n      not\n      and\n      swap1\n      dup4\n      iszero\n      iszero\n      mul\n      or\n      swap1\n      sstore\n      pop\n        /* \"contracts/RizalLibrary.sol\":3296:3307  Book(0 , 0) */\n      mload(0x40)\n      dup1\n      0x40\n      add\n      0x40\n      mstore\n      dup1\n        /* \"contracts/RizalLibrary.sol\":3301:3302  0 */\n      0x00\n        /* \"contracts/RizalLibrary.sol\":3296:3307  Book(0 , 0) */\n      dup2\n      mstore\n      0x20\n      add\n        /* \"contracts/RizalLibrary.sol\":3305:3306  0 */\n      0x00\n        /* \"contracts/RizalLibrary.sol\":3296:3307  Book(0 , 0) */\n      dup2\n      mstore\n      pop\n        /* \"contracts/RizalLibrary.sol\":3260:3268  students */\n      0x01\n        /* \"contracts/RizalLibrary.sol\":3260:3280  students[msg.sender] */\n      0x00\n        /* \"contracts/RizalLibrary.sol\":3269:3279  msg.sender */\n      caller\n        /* \"contracts/RizalLibrary.sol\":3260:3280  students[msg.sender] */\n      0xffffffffffffffffffffffffffffffffffffffff\n      and\n      0xffffffffffffffffffffffffffffffffffffffff\n      and\n      dup2\n      mstore\n      0x20\n      add\n      swap1\n      dup2\n      mstore\n      0x20\n      add\n      0x00\n      keccak256\n        /* \"contracts/RizalLibrary.sol\":3260:3293  students[msg.sender].bookBorrowed */\n      0x04\n      add\n        /* \"contracts/RizalLibrary.sol\":3260:3307  students[msg.sender].bookBorrowed = Book(0 , 0) */\n      0x00\n      dup3\n      add\n      mload\n      dup2\n      0x00\n      add\n      sstore\n      0x20\n      dup3\n      add\n      mload\n      dup2\n      0x01\n      add\n      sstore\n      swap1\n      pop\n      pop\n        /* \"contracts/RizalLibrary.sol\":2959:3315  {... */\n      pop\n        /* \"contracts/RizalLibrary.sol\":2891:3315  function returnBook() external isStudent isEnrolled hasBorrowedBook {... */\n      jump\t// out\n        /* \"contracts/RizalLibrary.sol\":2582:2883  function borrow(uint _bookCallNum) external isStudent isEnrolled noHoldOrder noBorrowedBook {... */\n    tag_18:\n        /* \"contracts/RizalLibrary.sol\":1388:1397  librarian */\n      0x00\n      0x00\n      swap1\n      sload\n      swap1\n      0x0100\n      exp\n      swap1\n      div\n      0xffffffffffffffffffffffffffffffffffffffff\n      and\n        /* \"contracts/RizalLibrary.sol\":1374:1397  msg.sender != librarian */\n      0xffffffffffffffffffffffffffffffffffffffff\n      and\n        /* \"contracts/RizalLibrary.sol\":1374:1384  msg.sender */\n      caller\n        /* \"contracts/RizalLibrary.sol\":1374:1397  msg.sender != librarian */\n      0xffffffffffffffffffffffffffffffffffffffff\n      and\n      sub\n        /* \"contracts/RizalLibrary.sol\":1366:1425  require(msg.sender != librarian , \"You are not a student!\") */\n      tag_46\n      jumpi\n      mload(0x40)\n      0x08c379a000000000000000000000000000000000000000000000000000000000\n      dup2\n      mstore\n      0x04\n      add\n      tag_47\n      swap1\n      tag_34\n      jump\t// in\n    tag_47:\n      mload(0x40)\n      dup1\n      swap2\n      sub\n      swap1\n      revert\n    tag_46:\n        /* \"contracts/RizalLibrary.sol\":1956:1957  0 */\n      0x00\n        /* \"contracts/RizalLibrary.sol\":1924:1932  students */\n      0x01\n        /* \"contracts/RizalLibrary.sol\":1924:1944  students[msg.sender] */\n      0x00\n        /* \"contracts/RizalLibrary.sol\":1933:1943  msg.sender */\n      caller\n        /* \"contracts/RizalLibrary.sol\":1924:1944  students[msg.sender] */\n      0xffffffffffffffffffffffffffffffffffffffff\n      and\n      0xffffffffffffffffffffffffffffffffffffffff\n      and\n      dup2\n      mstore\n      0x20\n      add\n      swap1\n      dup2\n      mstore\n      0x20\n      add\n      0x00\n      keccak256\n        /* \"contracts/RizalLibrary.sol\":1924:1953  students[msg.sender].idnumber */\n      0x00\n      add\n      sload\n        /* \"contracts/RizalLibrary.sol\":1924:1957  students[msg.sender].idnumber > 0 */\n      gt\n        /* \"contracts/RizalLibrary.sol\":1916:1987  require(students[msg.sender].idnumber > 0, \"You are not yet enrolled!\") */\n      tag_49\n      jumpi\n      mload(0x40)\n      0x08c379a000000000000000000000000000000000000000000000000000000000\n      dup2\n      mstore\n      0x04\n      add\n      tag_50\n      swap1\n      tag_38\n      jump\t// in\n    tag_50:\n      mload(0x40)\n      dup1\n      swap2\n      sub\n      swap1\n      revert\n    tag_49:\n        /* \"contracts/RizalLibrary.sol\":1070:1075  false */\n      0x00\n        /* \"contracts/RizalLibrary.sol\":1036:1075  students[msg.sender].holdOrder == false */\n      iszero\n      iszero\n        /* \"contracts/RizalLibrary.sol\":1036:1044  students */\n      0x01\n        /* \"contracts/RizalLibrary.sol\":1036:1056  students[msg.sender] */\n      0x00\n        /* \"contracts/RizalLibrary.sol\":1045:1055  msg.sender */\n      caller\n        /* \"contracts/RizalLibrary.sol\":1036:1056  students[msg.sender] */\n      0xffffffffffffffffffffffffffffffffffffffff\n      and\n      0xffffffffffffffffffffffffffffffffffffffff\n      and\n      dup2\n      mstore\n      0x20\n      add\n      swap1\n      dup2\n      mstore\n      0x20\n      add\n      0x00\n      keccak256\n        /* \"contracts/RizalLibrary.sol\":1036:1066  students[msg.sender].holdOrder */\n      0x03\n      add\n      0x01\n      swap1\n      sload\n      swap1\n      0x0100\n      exp\n      swap1\n      div\n      0xff\n      and\n        /* \"contracts/RizalLibrary.sol\":1036:1075  students[msg.sender].holdOrder == false */\n      iszero\n      iszero\n      eq\n        /* \"contracts/RizalLibrary.sol\":1028:1125  require(students[msg.sender].holdOrder == false, \"You have a Hold Order. Not allowed to borrow!\") */\n      tag_52\n      jumpi\n      mload(0x40)\n      0x08c379a000000000000000000000000000000000000000000000000000000000\n      dup2\n      mstore\n      0x04\n      add\n      tag_53\n      swap1\n      tag_54\n      jump\t// in\n    tag_53:\n      mload(0x40)\n      dup1\n      swap2\n      sub\n      swap1\n      revert\n    tag_52:\n        /* \"contracts/RizalLibrary.sol\":1625:1633  students */\n      0x01\n        /* \"contracts/RizalLibrary.sol\":1625:1645  students[msg.sender] */\n      0x00\n        /* \"contracts/RizalLibrary.sol\":1634:1644  msg.sender */\n      caller\n        /* \"contracts/RizalLibrary.sol\":1625:1645  students[msg.sender] */\n      0xffffffffffffffffffffffffffffffffffffffff\n      and\n      0xffffffffffffffffffffffffffffffffffffffff\n      and\n      dup2\n      mstore\n      0x20\n      add\n      swap1\n      dup2\n      mstore\n      0x20\n      add\n      0x00\n      keccak256\n        /* \"contracts/RizalLibrary.sol\":1625:1657  students[msg.sender].hasBorrowed */\n      0x03\n      add\n      0x00\n      swap1\n      sload\n      swap1\n      0x0100\n      exp\n      swap1\n      div\n      0xff\n      and\n        /* \"contracts/RizalLibrary.sol\":1624:1657  !students[msg.sender].hasBorrowed */\n      iszero\n        /* \"contracts/RizalLibrary.sol\":1616:1711  require(!students[msg.sender].hasBorrowed, \"You already borrowed. Not allowed to borrow more!\") */\n      tag_56\n      jumpi\n      mload(0x40)\n      0x08c379a000000000000000000000000000000000000000000000000000000000\n      dup2\n      mstore\n      0x04\n      add\n      tag_57\n      swap1\n      tag_58\n      jump\t// in\n    tag_57:\n      mload(0x40)\n      dup1\n      swap2\n      sub\n      swap1\n      revert\n    tag_56:\n        /* \"contracts/RizalLibrary.sol\":2720:2724  true */\n      0x01\n        /* \"contracts/RizalLibrary.sol\":2685:2693  students */\n      dup1\n        /* \"contracts/RizalLibrary.sol\":2685:2705  students[msg.sender] */\n      0x00\n        /* \"contracts/RizalLibrary.sol\":2694:2704  msg.sender */\n      caller\n        /* \"contracts/RizalLibrary.sol\":2685:2705  students[msg.sender] */\n      0xffffffffffffffffffffffffffffffffffffffff\n      and\n      0xffffffffffffffffffffffffffffffffffffffff\n      and\n      dup2\n      mstore\n      0x20\n      add\n      swap1\n      dup2\n      mstore\n      0x20\n      add\n      0x00\n      keccak256\n        /* \"contracts/RizalLibrary.sol\":2685:2717  students[msg.sender].hasBorrowed */\n      0x03\n      add\n      0x00\n        /* \"contracts/RizalLibrary.sol\":2685:2724  students[msg.sender].hasBorrowed = true */\n      0x0100\n      exp\n      dup2\n      sload\n      dup2\n      0xff\n      mul\n      not\n      and\n      swap1\n      dup4\n      iszero\n      iszero\n      mul\n      or\n      swap1\n      sstore\n      pop\n        /* \"contracts/RizalLibrary.sol\":2771:2821  Book(_bookCallNum, int(block.timestamp + 2 weeks)) */\n      mload(0x40)\n      dup1\n      0x40\n      add\n      0x40\n      mstore\n      dup1\n        /* \"contracts/RizalLibrary.sol\":2776:2788  _bookCallNum */\n      dup3\n        /* \"contracts/RizalLibrary.sol\":2771:2821  Book(_bookCallNum, int(block.timestamp + 2 weeks)) */\n      dup2\n      mstore\n      0x20\n      add\n        /* \"contracts/RizalLibrary.sol\":2812:2819  2 weeks */\n      0x127500\n        /* \"contracts/RizalLibrary.sol\":2794:2809  block.timestamp */\n      timestamp\n        /* \"contracts/RizalLibrary.sol\":2794:2819  block.timestamp + 2 weeks */\n      tag_60\n      swap2\n      swap1\n      tag_61\n      jump\t// in\n    tag_60:\n        /* \"contracts/RizalLibrary.sol\":2771:2821  Book(_bookCallNum, int(block.timestamp + 2 weeks)) */\n      dup2\n      mstore\n      pop\n        /* \"contracts/RizalLibrary.sol\":2735:2743  students */\n      0x01\n        /* \"contracts/RizalLibrary.sol\":2735:2755  students[msg.sender] */\n      0x00\n        /* \"contracts/RizalLibrary.sol\":2744:2754  msg.sender */\n      caller\n        /* \"contracts/RizalLibrary.sol\":2735:2755  students[msg.sender] */\n      0xffffffffffffffffffffffffffffffffffffffff\n      and\n      0xffffffffffffffffffffffffffffffffffffffff\n      and\n      dup2\n      mstore\n      0x20\n      add\n      swap1\n      dup2\n      mstore\n      0x20\n      add\n      0x00\n      keccak256\n        /* \"contracts/RizalLibrary.sol\":2735:2768  students[msg.sender].bookBorrowed */\n      0x04\n      add\n        /* \"contracts/RizalLibrary.sol\":2735:2821  students[msg.sender].bookBorrowed = Book(_bookCallNum, int(block.timestamp + 2 weeks)) */\n      0x00\n      dup3\n      add\n      mload\n      dup2\n      0x00\n      add\n      sstore\n      0x20\n      dup3\n      add\n      mload\n      dup2\n      0x01\n      add\n      sstore\n      swap1\n      pop\n      pop\n        /* \"contracts/RizalLibrary.sol\":2864:2874  msg.sender */\n      caller\n        /* \"contracts/RizalLibrary.sol\":2837:2875  BookBorrowed(_bookCallNum, msg.sender) */\n      0xffffffffffffffffffffffffffffffffffffffff\n      and\n      0x7534124779d4d1eaf9cabba5f94b2b281856aba81c295cde4c9e69483b04b8cc\n        /* \"contracts/RizalLibrary.sol\":2850:2862  _bookCallNum */\n      dup3\n        /* \"contracts/RizalLibrary.sol\":2837:2875  BookBorrowed(_bookCallNum, msg.sender) */\n      mload(0x40)\n      tag_62\n      swap2\n      swap1\n      tag_63\n      jump\t// in\n    tag_62:\n      mload(0x40)\n      dup1\n      swap2\n      sub\n      swap1\n      log2\n        /* \"contracts/RizalLibrary.sol\":2582:2883  function borrow(uint _bookCallNum) external isStudent isEnrolled noHoldOrder noBorrowedBook {... */\n      pop\n      jump\t// out\n        /* \"contracts/RizalLibrary.sol\":3323:3659  function payBalance() external payable isStudent isEnrolled hasHoldOrder {... */\n    tag_20:\n        /* \"contracts/RizalLibrary.sol\":1388:1397  librarian */\n      0x00\n      0x00\n      swap1\n      sload\n      swap1\n      0x0100\n      exp\n      swap1\n      div\n      0xffffffffffffffffffffffffffffffffffffffff\n      and\n        /* \"contracts/RizalLibrary.sol\":1374:1397  msg.sender != librarian */\n      0xffffffffffffffffffffffffffffffffffffffff\n      and\n        /* \"contracts/RizalLibrary.sol\":1374:1384  msg.sender */\n      caller\n        /* \"contracts/RizalLibrary.sol\":1374:1397  msg.sender != librarian */\n      0xffffffffffffffffffffffffffffffffffffffff\n      and\n      sub\n        /* \"contracts/RizalLibrary.sol\":1366:1425  require(msg.sender != librarian , \"You are not a student!\") */\n      tag_65\n      jumpi\n      mload(0x40)\n      0x08c379a000000000000000000000000000000000000000000000000000000000\n      dup2\n      mstore\n      0x04\n      add\n      tag_66\n      swap1\n      tag_34\n      jump\t// in\n    tag_66:\n      mload(0x40)\n      dup1\n      swap2\n      sub\n      swap1\n      revert\n    tag_65:\n        /* \"contracts/RizalLibrary.sol\":1956:1957  0 */\n      0x00\n        /* \"contracts/RizalLibrary.sol\":1924:1932  students */\n      0x01\n        /* \"contracts/RizalLibrary.sol\":1924:1944  students[msg.sender] */\n      0x00\n        /* \"contracts/RizalLibrary.sol\":1933:1943  msg.sender */\n      caller\n        /* \"contracts/RizalLibrary.sol\":1924:1944  students[msg.sender] */\n      0xffffffffffffffffffffffffffffffffffffffff\n      and\n      0xffffffffffffffffffffffffffffffffffffffff\n      and\n      dup2\n      mstore\n      0x20\n      add\n      swap1\n      dup2\n      mstore\n      0x20\n      add\n      0x00\n      keccak256\n        /* \"contracts/RizalLibrary.sol\":1924:1953  students[msg.sender].idnumber */\n      0x00\n      add\n      sload\n        /* \"contracts/RizalLibrary.sol\":1924:1957  students[msg.sender].idnumber > 0 */\n      gt\n        /* \"contracts/RizalLibrary.sol\":1916:1987  require(students[msg.sender].idnumber > 0, \"You are not yet enrolled!\") */\n      tag_68\n      jumpi\n      mload(0x40)\n      0x08c379a000000000000000000000000000000000000000000000000000000000\n      dup2\n      mstore\n      0x04\n      add\n      tag_69\n      swap1\n      tag_38\n      jump\t// in\n    tag_69:\n      mload(0x40)\n      dup1\n      swap2\n      sub\n      swap1\n      revert\n    tag_68:\n        /* \"contracts/RizalLibrary.sol\":1229:1233  true */\n      0x01\n        /* \"contracts/RizalLibrary.sol\":1195:1233  students[msg.sender].holdOrder == true */\n      iszero\n      iszero\n        /* \"contracts/RizalLibrary.sol\":1195:1203  students */\n      0x01\n        /* \"contracts/RizalLibrary.sol\":1195:1215  students[msg.sender] */\n      0x00\n        /* \"contracts/RizalLibrary.sol\":1204:1214  msg.sender */\n      caller\n        /* \"contracts/RizalLibrary.sol\":1195:1215  students[msg.sender] */\n      0xffffffffffffffffffffffffffffffffffffffff\n      and\n      0xffffffffffffffffffffffffffffffffffffffff\n      and\n      dup2\n      mstore\n      0x20\n      add\n      swap1\n      dup2\n      mstore\n      0x20\n      add\n      0x00\n      keccak256\n        /* \"contracts/RizalLibrary.sol\":1195:1225  students[msg.sender].holdOrder */\n      0x03\n      add\n      0x01\n      swap1\n      sload\n      swap1\n      0x0100\n      exp\n      swap1\n      div\n      0xff\n      and\n        /* \"contracts/RizalLibrary.sol\":1195:1233  students[msg.sender].holdOrder == true */\n      iszero\n      iszero\n      eq\n        /* \"contracts/RizalLibrary.sol\":1187:1306  require(students[msg.sender].holdOrder == true, \"You do not have a Hold Order. You do not have an outstanding balance\") */\n      tag_71\n      jumpi\n      mload(0x40)\n      0x08c379a000000000000000000000000000000000000000000000000000000000\n      dup2\n      mstore\n      0x04\n      add\n      tag_72\n      swap1\n      tag_73\n      jump\t// in\n    tag_72:\n      mload(0x40)\n      dup1\n      swap2\n      sub\n      swap1\n      revert\n    tag_71:\n        /* \"contracts/RizalLibrary.sol\":3447:3456  msg.value */\n      callvalue\n        /* \"contracts/RizalLibrary.sol\":3415:3423  students */\n      0x01\n        /* \"contracts/RizalLibrary.sol\":3415:3435  students[msg.sender] */\n      0x00\n        /* \"contracts/RizalLibrary.sol\":3424:3434  msg.sender */\n      caller\n        /* \"contracts/RizalLibrary.sol\":3415:3435  students[msg.sender] */\n      0xffffffffffffffffffffffffffffffffffffffff\n      and\n      0xffffffffffffffffffffffffffffffffffffffff\n      and\n      dup2\n      mstore\n      0x20\n      add\n      swap1\n      dup2\n      mstore\n      0x20\n      add\n      0x00\n      keccak256\n        /* \"contracts/RizalLibrary.sol\":3415:3443  students[msg.sender].balance */\n      0x02\n      add\n      sload\n        /* \"contracts/RizalLibrary.sol\":3415:3456  students[msg.sender].balance == msg.value */\n      eq\n        /* \"contracts/RizalLibrary.sol\":3407:3500  require(students[msg.sender].balance == msg.value, \"Please pay the exact amount of the fine\") */\n      tag_75\n      jumpi\n      mload(0x40)\n      0x08c379a000000000000000000000000000000000000000000000000000000000\n      dup2\n      mstore\n      0x04\n      add\n      tag_76\n      swap1\n      tag_77\n      jump\t// in\n    tag_76:\n      mload(0x40)\n      dup1\n      swap2\n      sub\n      swap1\n      revert\n    tag_75:\n        /* \"contracts/RizalLibrary.sol\":3543:3552  msg.value */\n      callvalue\n        /* \"contracts/RizalLibrary.sol\":3511:3519  students */\n      0x01\n        /* \"contracts/RizalLibrary.sol\":3511:3531  students[msg.sender] */\n      0x00\n        /* \"contracts/RizalLibrary.sol\":3520:3530  msg.sender */\n      caller\n        /* \"contracts/RizalLibrary.sol\":3511:3531  students[msg.sender] */\n      0xffffffffffffffffffffffffffffffffffffffff\n      and\n      0xffffffffffffffffffffffffffffffffffffffff\n      and\n      dup2\n      mstore\n      0x20\n      add\n      swap1\n      dup2\n      mstore\n      0x20\n      add\n      0x00\n      keccak256\n        /* \"contracts/RizalLibrary.sol\":3511:3539  students[msg.sender].balance */\n      0x02\n      add\n      0x00\n        /* \"contracts/RizalLibrary.sol\":3511:3552  students[msg.sender].balance -= msg.value */\n      dup3\n      dup3\n      sload\n      tag_78\n      swap2\n      swap1\n      tag_79\n      jump\t// in\n    tag_78:\n      swap3\n      pop\n      pop\n      dup2\n      swap1\n      sstore\n      pop\n        /* \"contracts/RizalLibrary.sol\":3596:3601  false */\n      0x00\n        /* \"contracts/RizalLibrary.sol\":3563:3571  students */\n      0x01\n        /* \"contracts/RizalLibrary.sol\":3563:3583  students[msg.sender] */\n      0x00\n        /* \"contracts/RizalLibrary.sol\":3572:3582  msg.sender */\n      caller\n        /* \"contracts/RizalLibrary.sol\":3563:3583  students[msg.sender] */\n      0xffffffffffffffffffffffffffffffffffffffff\n      and\n      0xffffffffffffffffffffffffffffffffffffffff\n      and\n      dup2\n      mstore\n      0x20\n      add\n      swap1\n      dup2\n      mstore\n      0x20\n      add\n      0x00\n      keccak256\n        /* \"contracts/RizalLibrary.sol\":3563:3593  students[msg.sender].holdOrder */\n      0x03\n      add\n      0x01\n        /* \"contracts/RizalLibrary.sol\":3563:3601  students[msg.sender].holdOrder = false */\n      0x0100\n      exp\n      dup2\n      sload\n      dup2\n      0xff\n      mul\n      not\n      and\n      swap1\n      dup4\n      iszero\n      iszero\n      mul\n      or\n      swap1\n      sstore\n      pop\n        /* \"contracts/RizalLibrary.sol\":3629:3639  msg.sender */\n      caller\n        /* \"contracts/RizalLibrary.sol\":3617:3651  StudentPaid(msg.sender, msg.value) */\n      0xffffffffffffffffffffffffffffffffffffffff\n      and\n      0xa7d0b298a569865ccc0fafa222e634caa4cce3d90be03818417feea98025a81e\n        /* \"contracts/RizalLibrary.sol\":3641:3650  msg.value */\n      callvalue\n        /* \"contracts/RizalLibrary.sol\":3617:3651  StudentPaid(msg.sender, msg.value) */\n      mload(0x40)\n      tag_80\n      swap2\n      swap1\n      tag_63\n      jump\t// in\n    tag_80:\n      mload(0x40)\n      dup1\n      swap2\n      sub\n      swap1\n      log2\n        /* \"contracts/RizalLibrary.sol\":3323:3659  function payBalance() external payable isStudent isEnrolled hasHoldOrder {... */\n      jump\t// out\n        /* \"#utility.yul\":7:82   */\n    tag_81:\n        /* \"#utility.yul\":40:46   */\n      0x00\n        /* \"#utility.yul\":73:75   */\n      0x40\n        /* \"#utility.yul\":67:76   */\n      mload\n        /* \"#utility.yul\":57:76   */\n      swap1\n      pop\n        /* \"#utility.yul\":7:82   */\n      swap1\n      jump\t// out\n        /* \"#utility.yul\":88:205   */\n    tag_82:\n        /* \"#utility.yul\":197:198   */\n      0x00\n        /* \"#utility.yul\":194:195   */\n      0x00\n        /* \"#utility.yul\":187:199   */\n      revert\n        /* \"#utility.yul\":211:328   */\n    tag_83:\n        /* \"#utility.yul\":320:321   */\n      0x00\n        /* \"#utility.yul\":317:318   */\n      0x00\n        /* \"#utility.yul\":310:322   */\n      revert\n        /* \"#utility.yul\":334:460   */\n    tag_84:\n        /* \"#utility.yul\":371:378   */\n      0x00\n        /* \"#utility.yul\":411:453   */\n      0xffffffffffffffffffffffffffffffffffffffff\n        /* \"#utility.yul\":404:409   */\n      dup3\n        /* \"#utility.yul\":400:454   */\n      and\n        /* \"#utility.yul\":389:454   */\n      swap1\n      pop\n        /* \"#utility.yul\":334:460   */\n      swap2\n      swap1\n      pop\n      jump\t// out\n        /* \"#utility.yul\":466:562   */\n    tag_85:\n        /* \"#utility.yul\":503:510   */\n      0x00\n        /* \"#utility.yul\":532:556   */\n      tag_146\n        /* \"#utility.yul\":550:555   */\n      dup3\n        /* \"#utility.yul\":532:556   */\n      tag_84\n      jump\t// in\n    tag_146:\n        /* \"#utility.yul\":521:556   */\n      swap1\n      pop\n        /* \"#utility.yul\":466:562   */\n      swap2\n      swap1\n      pop\n      jump\t// out\n        /* \"#utility.yul\":568:690   */\n    tag_86:\n        /* \"#utility.yul\":641:665   */\n      tag_148\n        /* \"#utility.yul\":659:664   */\n      dup2\n        /* \"#utility.yul\":641:665   */\n      tag_85\n      jump\t// in\n    tag_148:\n        /* \"#utility.yul\":634:639   */\n      dup2\n        /* \"#utility.yul\":631:666   */\n      eq\n        /* \"#utility.yul\":621:684   */\n      tag_149\n      jumpi\n        /* \"#utility.yul\":680:681   */\n      0x00\n        /* \"#utility.yul\":677:678   */\n      0x00\n        /* \"#utility.yul\":670:682   */\n      revert\n        /* \"#utility.yul\":621:684   */\n    tag_149:\n        /* \"#utility.yul\":568:690   */\n      pop\n      jump\t// out\n        /* \"#utility.yul\":696:835   */\n    tag_87:\n        /* \"#utility.yul\":742:747   */\n      0x00\n        /* \"#utility.yul\":780:786   */\n      dup2\n        /* \"#utility.yul\":767:787   */\n      calldataload\n        /* \"#utility.yul\":758:787   */\n      swap1\n      pop\n        /* \"#utility.yul\":796:829   */\n      tag_151\n        /* \"#utility.yul\":823:828   */\n      dup2\n        /* \"#utility.yul\":796:829   */\n      tag_86\n      jump\t// in\n    tag_151:\n        /* \"#utility.yul\":696:835   */\n      swap3\n      swap2\n      pop\n      pop\n      jump\t// out\n        /* \"#utility.yul\":841:918   */\n    tag_88:\n        /* \"#utility.yul\":878:885   */\n      0x00\n        /* \"#utility.yul\":907:912   */\n      dup2\n        /* \"#utility.yul\":896:912   */\n      swap1\n      pop\n        /* \"#utility.yul\":841:918   */\n      swap2\n      swap1\n      pop\n      jump\t// out\n        /* \"#utility.yul\":924:1046   */\n    tag_89:\n        /* \"#utility.yul\":997:1021   */\n      tag_154\n        /* \"#utility.yul\":1015:1020   */\n      dup2\n        /* \"#utility.yul\":997:1021   */\n      tag_88\n      jump\t// in\n    tag_154:\n        /* \"#utility.yul\":990:995   */\n      dup2\n        /* \"#utility.yul\":987:1022   */\n      eq\n        /* \"#utility.yul\":977:1040   */\n      tag_155\n      jumpi\n        /* \"#utility.yul\":1036:1037   */\n      0x00\n        /* \"#utility.yul\":1033:1034   */\n      0x00\n        /* \"#utility.yul\":1026:1038   */\n      revert\n        /* \"#utility.yul\":977:1040   */\n    tag_155:\n        /* \"#utility.yul\":924:1046   */\n      pop\n      jump\t// out\n        /* \"#utility.yul\":1052:1191   */\n    tag_90:\n        /* \"#utility.yul\":1098:1103   */\n      0x00\n        /* \"#utility.yul\":1136:1142   */\n      dup2\n        /* \"#utility.yul\":1123:1143   */\n      calldataload\n        /* \"#utility.yul\":1114:1143   */\n      swap1\n      pop\n        /* \"#utility.yul\":1152:1185   */\n      tag_157\n        /* \"#utility.yul\":1179:1184   */\n      dup2\n        /* \"#utility.yul\":1152:1185   */\n      tag_89\n      jump\t// in\n    tag_157:\n        /* \"#utility.yul\":1052:1191   */\n      swap3\n      swap2\n      pop\n      pop\n      jump\t// out\n        /* \"#utility.yul\":1197:1314   */\n    tag_91:\n        /* \"#utility.yul\":1306:1307   */\n      0x00\n        /* \"#utility.yul\":1303:1304   */\n      0x00\n        /* \"#utility.yul\":1296:1308   */\n      revert\n        /* \"#utility.yul\":1320:1437   */\n    tag_92:\n        /* \"#utility.yul\":1429:1430   */\n      0x00\n        /* \"#utility.yul\":1426:1427   */\n      0x00\n        /* \"#utility.yul\":1419:1431   */\n      revert\n        /* \"#utility.yul\":1443:1545   */\n    tag_93:\n        /* \"#utility.yul\":1484:1490   */\n      0x00\n        /* \"#utility.yul\":1535:1537   */\n      0x1f\n        /* \"#utility.yul\":1531:1538   */\n      not\n        /* \"#utility.yul\":1526:1528   */\n      0x1f\n        /* \"#utility.yul\":1519:1524   */\n      dup4\n        /* \"#utility.yul\":1515:1529   */\n      add\n        /* \"#utility.yul\":1511:1539   */\n      and\n        /* \"#utility.yul\":1501:1539   */\n      swap1\n      pop\n        /* \"#utility.yul\":1443:1545   */\n      swap2\n      swap1\n      pop\n      jump\t// out\n        /* \"#utility.yul\":1551:1731   */\n    tag_94:\n        /* \"#utility.yul\":1599:1676   */\n      0x4e487b7100000000000000000000000000000000000000000000000000000000\n        /* \"#utility.yul\":1596:1597   */\n      0x00\n        /* \"#utility.yul\":1589:1677   */\n      mstore\n        /* \"#utility.yul\":1696:1700   */\n      0x41\n        /* \"#utility.yul\":1693:1694   */\n      0x04\n        /* \"#utility.yul\":1686:1701   */\n      mstore\n        /* \"#utility.yul\":1720:1724   */\n      0x24\n        /* \"#utility.yul\":1717:1718   */\n      0x00\n        /* \"#utility.yul\":1710:1725   */\n      revert\n        /* \"#utility.yul\":1737:2018   */\n    tag_95:\n        /* \"#utility.yul\":1820:1847   */\n      tag_163\n        /* \"#utility.yul\":1842:1846   */\n      dup3\n        /* \"#utility.yul\":1820:1847   */\n      tag_93\n      jump\t// in\n    tag_163:\n        /* \"#utility.yul\":1812:1818   */\n      dup2\n        /* \"#utility.yul\":1808:1848   */\n      add\n        /* \"#utility.yul\":1950:1956   */\n      dup2\n        /* \"#utility.yul\":1938:1948   */\n      dup2\n        /* \"#utility.yul\":1935:1957   */\n      lt\n        /* \"#utility.yul\":1914:1932   */\n      0xffffffffffffffff\n        /* \"#utility.yul\":1902:1912   */\n      dup3\n        /* \"#utility.yul\":1899:1933   */\n      gt\n        /* \"#utility.yul\":1896:1958   */\n      or\n        /* \"#utility.yul\":1893:1981   */\n      iszero\n      tag_164\n      jumpi\n        /* \"#utility.yul\":1961:1979   */\n      tag_165\n      tag_94\n      jump\t// in\n    tag_165:\n        /* \"#utility.yul\":1893:1981   */\n    tag_164:\n        /* \"#utility.yul\":2001:2011   */\n      dup1\n        /* \"#utility.yul\":1997:1999   */\n      0x40\n        /* \"#utility.yul\":1990:2012   */\n      mstore\n        /* \"#utility.yul\":1780:2018   */\n      pop\n        /* \"#utility.yul\":1737:2018   */\n      pop\n      pop\n      jump\t// out\n        /* \"#utility.yul\":2024:2153   */\n    tag_96:\n        /* \"#utility.yul\":2058:2064   */\n      0x00\n        /* \"#utility.yul\":2085:2105   */\n      tag_167\n      tag_81\n      jump\t// in\n    tag_167:\n        /* \"#utility.yul\":2075:2105   */\n      swap1\n      pop\n        /* \"#utility.yul\":2114:2147   */\n      tag_168\n        /* \"#utility.yul\":2142:2146   */\n      dup3\n        /* \"#utility.yul\":2134:2140   */\n      dup3\n        /* \"#utility.yul\":2114:2147   */\n      tag_95\n      jump\t// in\n    tag_168:\n        /* \"#utility.yul\":2024:2153   */\n      swap2\n      swap1\n      pop\n      jump\t// out\n        /* \"#utility.yul\":2159:2467   */\n    tag_97:\n        /* \"#utility.yul\":2221:2225   */\n      0x00\n        /* \"#utility.yul\":2311:2329   */\n      0xffffffffffffffff\n        /* \"#utility.yul\":2303:2309   */\n      dup3\n        /* \"#utility.yul\":2300:2330   */\n      gt\n        /* \"#utility.yul\":2297:2353   */\n      iszero\n      tag_170\n      jumpi\n        /* \"#utility.yul\":2333:2351   */\n      tag_171\n      tag_94\n      jump\t// in\n    tag_171:\n        /* \"#utility.yul\":2297:2353   */\n    tag_170:\n        /* \"#utility.yul\":2371:2400   */\n      tag_172\n        /* \"#utility.yul\":2393:2399   */\n      dup3\n        /* \"#utility.yul\":2371:2400   */\n      tag_93\n      jump\t// in\n    tag_172:\n        /* \"#utility.yul\":2363:2400   */\n      swap1\n      pop\n        /* \"#utility.yul\":2455:2459   */\n      0x20\n        /* \"#utility.yul\":2449:2453   */\n      dup2\n        /* \"#utility.yul\":2445:2460   */\n      add\n        /* \"#utility.yul\":2437:2460   */\n      swap1\n      pop\n        /* \"#utility.yul\":2159:2467   */\n      swap2\n      swap1\n      pop\n      jump\t// out\n        /* \"#utility.yul\":2473:2621   */\n    tag_98:\n        /* \"#utility.yul\":2571:2577   */\n      dup3\n        /* \"#utility.yul\":2566:2569   */\n      dup2\n        /* \"#utility.yul\":2561:2564   */\n      dup4\n        /* \"#utility.yul\":2548:2578   */\n      calldatacopy\n        /* \"#utility.yul\":2612:2613   */\n      0x00\n        /* \"#utility.yul\":2603:2609   */\n      dup4\n        /* \"#utility.yul\":2598:2601   */\n      dup4\n        /* \"#utility.yul\":2594:2610   */\n      add\n        /* \"#utility.yul\":2587:2614   */\n      mstore\n        /* \"#utility.yul\":2473:2621   */\n      pop\n      pop\n      pop\n      jump\t// out\n        /* \"#utility.yul\":2627:3052   */\n    tag_99:\n        /* \"#utility.yul\":2705:2710   */\n      0x00\n        /* \"#utility.yul\":2730:2796   */\n      tag_175\n        /* \"#utility.yul\":2746:2795   */\n      tag_176\n        /* \"#utility.yul\":2788:2794   */\n      dup5\n        /* \"#utility.yul\":2746:2795   */\n      tag_97\n      jump\t// in\n    tag_176:\n        /* \"#utility.yul\":2730:2796   */\n      tag_96\n      jump\t// in\n    tag_175:\n        /* \"#utility.yul\":2721:2796   */\n      swap1\n      pop\n        /* \"#utility.yul\":2819:2825   */\n      dup3\n        /* \"#utility.yul\":2812:2817   */\n      dup2\n        /* \"#utility.yul\":2805:2826   */\n      mstore\n        /* \"#utility.yul\":2857:2861   */\n      0x20\n        /* \"#utility.yul\":2850:2855   */\n      dup2\n        /* \"#utility.yul\":2846:2862   */\n      add\n        /* \"#utility.yul\":2895:2898   */\n      dup5\n        /* \"#utility.yul\":2886:2892   */\n      dup5\n        /* \"#utility.yul\":2881:2884   */\n      dup5\n        /* \"#utility.yul\":2877:2893   */\n      add\n        /* \"#utility.yul\":2874:2899   */\n      gt\n        /* \"#utility.yul\":2871:2983   */\n      iszero\n      tag_177\n      jumpi\n        /* \"#utility.yul\":2902:2981   */\n      tag_178\n      tag_92\n      jump\t// in\n    tag_178:\n        /* \"#utility.yul\":2871:2983   */\n    tag_177:\n        /* \"#utility.yul\":2992:3046   */\n      tag_179\n        /* \"#utility.yul\":3039:3045   */\n      dup5\n        /* \"#utility.yul\":3034:3037   */\n      dup3\n        /* \"#utility.yul\":3029:3032   */\n      dup6\n        /* \"#utility.yul\":2992:3046   */\n      tag_98\n      jump\t// in\n    tag_179:\n        /* \"#utility.yul\":2711:3052   */\n      pop\n        /* \"#utility.yul\":2627:3052   */\n      swap4\n      swap3\n      pop\n      pop\n      pop\n      jump\t// out\n        /* \"#utility.yul\":3072:3412   */\n    tag_100:\n        /* \"#utility.yul\":3128:3133   */\n      0x00\n        /* \"#utility.yul\":3177:3180   */\n      dup3\n        /* \"#utility.yul\":3170:3174   */\n      0x1f\n        /* \"#utility.yul\":3162:3168   */\n      dup4\n        /* \"#utility.yul\":3158:3175   */\n      add\n        /* \"#utility.yul\":3154:3181   */\n      slt\n        /* \"#utility.yul\":3144:3266   */\n      tag_181\n      jumpi\n        /* \"#utility.yul\":3185:3264   */\n      tag_182\n      tag_91\n      jump\t// in\n    tag_182:\n        /* \"#utility.yul\":3144:3266   */\n    tag_181:\n        /* \"#utility.yul\":3302:3308   */\n      dup2\n        /* \"#utility.yul\":3289:3309   */\n      calldataload\n        /* \"#utility.yul\":3327:3406   */\n      tag_183\n        /* \"#utility.yul\":3402:3405   */\n      dup5\n        /* \"#utility.yul\":3394:3400   */\n      dup3\n        /* \"#utility.yul\":3387:3391   */\n      0x20\n        /* \"#utility.yul\":3379:3385   */\n      dup7\n        /* \"#utility.yul\":3375:3392   */\n      add\n        /* \"#utility.yul\":3327:3406   */\n      tag_99\n      jump\t// in\n    tag_183:\n        /* \"#utility.yul\":3318:3406   */\n      swap2\n      pop\n        /* \"#utility.yul\":3134:3412   */\n      pop\n        /* \"#utility.yul\":3072:3412   */\n      swap3\n      swap2\n      pop\n      pop\n      jump\t// out\n        /* \"#utility.yul\":3418:4217   */\n    tag_9:\n        /* \"#utility.yul\":3505:3511   */\n      0x00\n        /* \"#utility.yul\":3513:3519   */\n      0x00\n        /* \"#utility.yul\":3521:3527   */\n      0x00\n        /* \"#utility.yul\":3570:3572   */\n      0x60\n        /* \"#utility.yul\":3558:3567   */\n      dup5\n        /* \"#utility.yul\":3549:3556   */\n      dup7\n        /* \"#utility.yul\":3545:3568   */\n      sub\n        /* \"#utility.yul\":3541:3573   */\n      slt\n        /* \"#utility.yul\":3538:3657   */\n      iszero\n      tag_185\n      jumpi\n        /* \"#utility.yul\":3576:3655   */\n      tag_186\n      tag_82\n      jump\t// in\n    tag_186:\n        /* \"#utility.yul\":3538:3657   */\n    tag_185:\n        /* \"#utility.yul\":3696:3697   */\n      0x00\n        /* \"#utility.yul\":3721:3774   */\n      tag_187\n        /* \"#utility.yul\":3766:3773   */\n      dup7\n        /* \"#utility.yul\":3757:3763   */\n      dup3\n        /* \"#utility.yul\":3746:3755   */\n      dup8\n        /* \"#utility.yul\":3742:3764   */\n      add\n        /* \"#utility.yul\":3721:3774   */\n      tag_87\n      jump\t// in\n    tag_187:\n        /* \"#utility.yul\":3711:3774   */\n      swap4\n      pop\n        /* \"#utility.yul\":3667:3784   */\n      pop\n        /* \"#utility.yul\":3823:3825   */\n      0x20\n        /* \"#utility.yul\":3849:3902   */\n      tag_188\n        /* \"#utility.yul\":3894:3901   */\n      dup7\n        /* \"#utility.yul\":3885:3891   */\n      dup3\n        /* \"#utility.yul\":3874:3883   */\n      dup8\n        /* \"#utility.yul\":3870:3892   */\n      add\n        /* \"#utility.yul\":3849:3902   */\n      tag_90\n      jump\t// in\n    tag_188:\n        /* \"#utility.yul\":3839:3902   */\n      swap3\n      pop\n        /* \"#utility.yul\":3794:3912   */\n      pop\n        /* \"#utility.yul\":3979:3981   */\n      0x40\n        /* \"#utility.yul\":3968:3977   */\n      dup5\n        /* \"#utility.yul\":3964:3982   */\n      add\n        /* \"#utility.yul\":3951:3983   */\n      calldataload\n        /* \"#utility.yul\":4010:4028   */\n      0xffffffffffffffff\n        /* \"#utility.yul\":4002:4008   */\n      dup2\n        /* \"#utility.yul\":3999:4029   */\n      gt\n        /* \"#utility.yul\":3996:4113   */\n      iszero\n      tag_189\n      jumpi\n        /* \"#utility.yul\":4032:4111   */\n      tag_190\n      tag_83\n      jump\t// in\n    tag_190:\n        /* \"#utility.yul\":3996:4113   */\n    tag_189:\n        /* \"#utility.yul\":4137:4200   */\n      tag_191\n        /* \"#utility.yul\":4192:4199   */\n      dup7\n        /* \"#utility.yul\":4183:4189   */\n      dup3\n        /* \"#utility.yul\":4172:4181   */\n      dup8\n        /* \"#utility.yul\":4168:4190   */\n      add\n        /* \"#utility.yul\":4137:4200   */\n      tag_100\n      jump\t// in\n    tag_191:\n        /* \"#utility.yul\":4127:4200   */\n      swap2\n      pop\n        /* \"#utility.yul\":3922:4210   */\n      pop\n        /* \"#utility.yul\":3418:4217   */\n      swap3\n      pop\n      swap3\n      pop\n      swap3\n      jump\t// out\n        /* \"#utility.yul\":4223:4552   */\n    tag_17:\n        /* \"#utility.yul\":4282:4288   */\n      0x00\n        /* \"#utility.yul\":4331:4333   */\n      0x20\n        /* \"#utility.yul\":4319:4328   */\n      dup3\n        /* \"#utility.yul\":4310:4317   */\n      dup5\n        /* \"#utility.yul\":4306:4329   */\n      sub\n        /* \"#utility.yul\":4302:4334   */\n      slt\n        /* \"#utility.yul\":4299:4418   */\n      iszero\n      tag_193\n      jumpi\n        /* \"#utility.yul\":4337:4416   */\n      tag_194\n      tag_82\n      jump\t// in\n    tag_194:\n        /* \"#utility.yul\":4299:4418   */\n    tag_193:\n        /* \"#utility.yul\":4457:4458   */\n      0x00\n        /* \"#utility.yul\":4482:4535   */\n      tag_195\n        /* \"#utility.yul\":4527:4534   */\n      dup5\n        /* \"#utility.yul\":4518:4524   */\n      dup3\n        /* \"#utility.yul\":4507:4516   */\n      dup6\n        /* \"#utility.yul\":4503:4525   */\n      add\n        /* \"#utility.yul\":4482:4535   */\n      tag_90\n      jump\t// in\n    tag_195:\n        /* \"#utility.yul\":4472:4535   */\n      swap2\n      pop\n        /* \"#utility.yul\":4428:4545   */\n      pop\n        /* \"#utility.yul\":4223:4552   */\n      swap3\n      swap2\n      pop\n      pop\n      jump\t// out\n        /* \"#utility.yul\":4558:4727   */\n    tag_101:\n        /* \"#utility.yul\":4642:4653   */\n      0x00\n        /* \"#utility.yul\":4676:4682   */\n      dup3\n        /* \"#utility.yul\":4671:4674   */\n      dup3\n        /* \"#utility.yul\":4664:4683   */\n      mstore\n        /* \"#utility.yul\":4716:4720   */\n      0x20\n        /* \"#utility.yul\":4711:4714   */\n      dup3\n        /* \"#utility.yul\":4707:4721   */\n      add\n        /* \"#utility.yul\":4692:4721   */\n      swap1\n      pop\n        /* \"#utility.yul\":4558:4727   */\n      swap3\n      swap2\n      pop\n      pop\n      jump\t// out\n        /* \"#utility.yul\":4733:4907   */\n    tag_102:\n        /* \"#utility.yul\":4873:4899   */\n      0x596f7520617265206e6f742061206c696272617269616e210000000000000000\n        /* \"#utility.yul\":4869:4870   */\n      0x00\n        /* \"#utility.yul\":4861:4867   */\n      dup3\n        /* \"#utility.yul\":4857:4871   */\n      add\n        /* \"#utility.yul\":4850:4900   */\n      mstore\n        /* \"#utility.yul\":4733:4907   */\n      pop\n      jump\t// out\n        /* \"#utility.yul\":4913:5279   */\n    tag_103:\n        /* \"#utility.yul\":5055:5058   */\n      0x00\n        /* \"#utility.yul\":5076:5143   */\n      tag_199\n        /* \"#utility.yul\":5140:5142   */\n      0x18\n        /* \"#utility.yul\":5135:5138   */\n      dup4\n        /* \"#utility.yul\":5076:5143   */\n      tag_101\n      jump\t// in\n    tag_199:\n        /* \"#utility.yul\":5069:5143   */\n      swap2\n      pop\n        /* \"#utility.yul\":5152:5245   */\n      tag_200\n        /* \"#utility.yul\":5241:5244   */\n      dup3\n        /* \"#utility.yul\":5152:5245   */\n      tag_102\n      jump\t// in\n    tag_200:\n        /* \"#utility.yul\":5270:5272   */\n      0x20\n        /* \"#utility.yul\":5265:5268   */\n      dup3\n        /* \"#utility.yul\":5261:5273   */\n      add\n        /* \"#utility.yul\":5254:5273   */\n      swap1\n      pop\n        /* \"#utility.yul\":4913:5279   */\n      swap2\n      swap1\n      pop\n      jump\t// out\n        /* \"#utility.yul\":5285:5704   */\n    tag_24:\n        /* \"#utility.yul\":5451:5455   */\n      0x00\n        /* \"#utility.yul\":5489:5491   */\n      0x20\n        /* \"#utility.yul\":5478:5487   */\n      dup3\n        /* \"#utility.yul\":5474:5492   */\n      add\n        /* \"#utility.yul\":5466:5492   */\n      swap1\n      pop\n        /* \"#utility.yul\":5538:5547   */\n      dup2\n        /* \"#utility.yul\":5532:5536   */\n      dup2\n        /* \"#utility.yul\":5528:5548   */\n      sub\n        /* \"#utility.yul\":5524:5525   */\n      0x00\n        /* \"#utility.yul\":5513:5522   */\n      dup4\n        /* \"#utility.yul\":5509:5526   */\n      add\n        /* \"#utility.yul\":5502:5549   */\n      mstore\n        /* \"#utility.yul\":5566:5697   */\n      tag_202\n        /* \"#utility.yul\":5692:5696   */\n      dup2\n        /* \"#utility.yul\":5566:5697   */\n      tag_103\n      jump\t// in\n    tag_202:\n        /* \"#utility.yul\":5558:5697   */\n      swap1\n      pop\n        /* \"#utility.yul\":5285:5704   */\n      swap2\n      swap1\n      pop\n      jump\t// out\n        /* \"#utility.yul\":5710:5885   */\n    tag_104:\n        /* \"#utility.yul\":5850:5877   */\n      0x53747564656e7420616c726561647920656e726f6c6c65642100000000000000\n        /* \"#utility.yul\":5846:5847   */\n      0x00\n        /* \"#utility.yul\":5838:5844   */\n      dup3\n        /* \"#utility.yul\":5834:5848   */\n      add\n        /* \"#utility.yul\":5827:5878   */\n      mstore\n        /* \"#utility.yul\":5710:5885   */\n      pop\n      jump\t// out\n        /* \"#utility.yul\":5891:6257   */\n    tag_105:\n        /* \"#utility.yul\":6033:6036   */\n      0x00\n        /* \"#utility.yul\":6054:6121   */\n      tag_205\n        /* \"#utility.yul\":6118:6120   */\n      0x19\n        /* \"#utility.yul\":6113:6116   */\n      dup4\n        /* \"#utility.yul\":6054:6121   */\n      tag_101\n      jump\t// in\n    tag_205:\n        /* \"#utility.yul\":6047:6121   */\n      swap2\n      pop\n        /* \"#utility.yul\":6130:6223   */\n      tag_206\n        /* \"#utility.yul\":6219:6222   */\n      dup3\n        /* \"#utility.yul\":6130:6223   */\n      tag_104\n      jump\t// in\n    tag_206:\n        /* \"#utility.yul\":6248:6250   */\n      0x20\n        /* \"#utility.yul\":6243:6246   */\n      dup3\n        /* \"#utility.yul\":6239:6251   */\n      add\n        /* \"#utility.yul\":6232:6251   */\n      swap1\n      pop\n        /* \"#utility.yul\":5891:6257   */\n      swap2\n      swap1\n      pop\n      jump\t// out\n        /* \"#utility.yul\":6263:6682   */\n    tag_28:\n        /* \"#utility.yul\":6429:6433   */\n      0x00\n        /* \"#utility.yul\":6467:6469   */\n      0x20\n        /* \"#utility.yul\":6456:6465   */\n      dup3\n        /* \"#utility.yul\":6452:6470   */\n      add\n        /* \"#utility.yul\":6444:6470   */\n      swap1\n      pop\n        /* \"#utility.yul\":6516:6525   */\n      dup2\n        /* \"#utility.yul\":6510:6514   */\n      dup2\n        /* \"#utility.yul\":6506:6526   */\n      sub\n        /* \"#utility.yul\":6502:6503   */\n      0x00\n        /* \"#utility.yul\":6491:6500   */\n      dup4\n        /* \"#utility.yul\":6487:6504   */\n      add\n        /* \"#utility.yul\":6480:6527   */\n      mstore\n        /* \"#utility.yul\":6544:6675   */\n      tag_208\n        /* \"#utility.yul\":6670:6674   */\n      dup2\n        /* \"#utility.yul\":6544:6675   */\n      tag_105\n      jump\t// in\n    tag_208:\n        /* \"#utility.yul\":6536:6675   */\n      swap1\n      pop\n        /* \"#utility.yul\":6263:6682   */\n      swap2\n      swap1\n      pop\n      jump\t// out\n        /* \"#utility.yul\":6688:6787   */\n    tag_106:\n        /* \"#utility.yul\":6740:6746   */\n      0x00\n        /* \"#utility.yul\":6774:6779   */\n      dup2\n        /* \"#utility.yul\":6768:6780   */\n      mload\n        /* \"#utility.yul\":6758:6780   */\n      swap1\n      pop\n        /* \"#utility.yul\":6688:6787   */\n      swap2\n      swap1\n      pop\n      jump\t// out\n        /* \"#utility.yul\":6793:6973   */\n    tag_107:\n        /* \"#utility.yul\":6841:6918   */\n      0x4e487b7100000000000000000000000000000000000000000000000000000000\n        /* \"#utility.yul\":6838:6839   */\n      0x00\n        /* \"#utility.yul\":6831:6919   */\n      mstore\n        /* \"#utility.yul\":6938:6942   */\n      0x22\n        /* \"#utility.yul\":6935:6936   */\n      0x04\n        /* \"#utility.yul\":6928:6943   */\n      mstore\n        /* \"#utility.yul\":6962:6966   */\n      0x24\n        /* \"#utility.yul\":6959:6960   */\n      0x00\n        /* \"#utility.yul\":6952:6967   */\n      revert\n        /* \"#utility.yul\":6979:7299   */\n    tag_108:\n        /* \"#utility.yul\":7023:7029   */\n      0x00\n        /* \"#utility.yul\":7060:7061   */\n      0x02\n        /* \"#utility.yul\":7054:7058   */\n      dup3\n        /* \"#utility.yul\":7050:7062   */\n      div\n        /* \"#utility.yul\":7040:7062   */\n      swap1\n      pop\n        /* \"#utility.yul\":7107:7108   */\n      0x01\n        /* \"#utility.yul\":7101:7105   */\n      dup3\n        /* \"#utility.yul\":7097:7109   */\n      and\n        /* \"#utility.yul\":7128:7146   */\n      dup1\n        /* \"#utility.yul\":7118:7199   */\n      tag_212\n      jumpi\n        /* \"#utility.yul\":7184:7188   */\n      0x7f\n        /* \"#utility.yul\":7176:7182   */\n      dup3\n        /* \"#utility.yul\":7172:7189   */\n      and\n        /* \"#utility.yul\":7162:7189   */\n      swap2\n      pop\n        /* \"#utility.yul\":7118:7199   */\n    tag_212:\n        /* \"#utility.yul\":7246:7248   */\n      0x20\n        /* \"#utility.yul\":7238:7244   */\n      dup3\n        /* \"#utility.yul\":7235:7249   */\n      lt\n        /* \"#utility.yul\":7215:7233   */\n      dup2\n        /* \"#utility.yul\":7212:7250   */\n      sub\n        /* \"#utility.yul\":7209:7293   */\n      tag_213\n      jumpi\n        /* \"#utility.yul\":7265:7283   */\n      tag_214\n      tag_107\n      jump\t// in\n    tag_214:\n        /* \"#utility.yul\":7209:7293   */\n    tag_213:\n        /* \"#utility.yul\":7030:7299   */\n      pop\n        /* \"#utility.yul\":6979:7299   */\n      swap2\n      swap1\n      pop\n      jump\t// out\n        /* \"#utility.yul\":7305:7446   */\n    tag_109:\n        /* \"#utility.yul\":7354:7358   */\n      0x00\n        /* \"#utility.yul\":7377:7380   */\n      dup2\n        /* \"#utility.yul\":7369:7380   */\n      swap1\n      pop\n        /* \"#utility.yul\":7400:7403   */\n      dup2\n        /* \"#utility.yul\":7397:7398   */\n      0x00\n        /* \"#utility.yul\":7390:7404   */\n      mstore\n        /* \"#utility.yul\":7434:7438   */\n      0x20\n        /* \"#utility.yul\":7431:7432   */\n      0x00\n        /* \"#utility.yul\":7421:7439   */\n      keccak256\n        /* \"#utility.yul\":7413:7439   */\n      swap1\n      pop\n        /* \"#utility.yul\":7305:7446   */\n      swap2\n      swap1\n      pop\n      jump\t// out\n        /* \"#utility.yul\":7452:7545   */\n    tag_110:\n        /* \"#utility.yul\":7489:7495   */\n      0x00\n        /* \"#utility.yul\":7536:7538   */\n      0x20\n        /* \"#utility.yul\":7531:7533   */\n      0x1f\n        /* \"#utility.yul\":7524:7529   */\n      dup4\n        /* \"#utility.yul\":7520:7534   */\n      add\n        /* \"#utility.yul\":7516:7539   */\n      div\n        /* \"#utility.yul\":7506:7539   */\n      swap1\n      pop\n        /* \"#utility.yul\":7452:7545   */\n      swap2\n      swap1\n      pop\n      jump\t// out\n        /* \"#utility.yul\":7551:7658   */\n    tag_111:\n        /* \"#utility.yul\":7595:7603   */\n      0x00\n        /* \"#utility.yul\":7645:7650   */\n      dup3\n        /* \"#utility.yul\":7639:7643   */\n      dup3\n        /* \"#utility.yul\":7635:7651   */\n      shl\n        /* \"#utility.yul\":7614:7651   */\n      swap1\n      pop\n        /* \"#utility.yul\":7551:7658   */\n      swap3\n      swap2\n      pop\n      pop\n      jump\t// out\n        /* \"#utility.yul\":7664:8057   */\n    tag_112:\n        /* \"#utility.yul\":7733:7739   */\n      0x00\n        /* \"#utility.yul\":7783:7784   */\n      0x08\n        /* \"#utility.yul\":7771:7781   */\n      dup4\n        /* \"#utility.yul\":7767:7785   */\n      mul\n        /* \"#utility.yul\":7806:7903   */\n      tag_219\n        /* \"#utility.yul\":7836:7902   */\n      0xffffffffffffffffffffffffffffffffffffffffffffffffffffffffffffffff\n        /* \"#utility.yul\":7825:7834   */\n      dup3\n        /* \"#utility.yul\":7806:7903   */\n      tag_111\n      jump\t// in\n    tag_219:\n        /* \"#utility.yul\":7924:7963   */\n      tag_220\n        /* \"#utility.yul\":7954:7962   */\n      dup7\n        /* \"#utility.yul\":7943:7952   */\n      dup4\n        /* \"#utility.yul\":7924:7963   */\n      tag_111\n      jump\t// in\n    tag_220:\n        /* \"#utility.yul\":7912:7963   */\n      swap6\n      pop\n        /* \"#utility.yul\":7996:8000   */\n      dup1\n        /* \"#utility.yul\":7992:8001   */\n      not\n        /* \"#utility.yul\":7985:7990   */\n      dup5\n        /* \"#utility.yul\":7981:8002   */\n      and\n        /* \"#utility.yul\":7972:8002   */\n      swap4\n      pop\n        /* \"#utility.yul\":8045:8049   */\n      dup1\n        /* \"#utility.yul\":8035:8043   */\n      dup7\n        /* \"#utility.yul\":8031:8050   */\n      and\n        /* \"#utility.yul\":8024:8029   */\n      dup5\n        /* \"#utility.yul\":8021:8051   */\n      or\n        /* \"#utility.yul\":8011:8051   */\n      swap3\n      pop\n        /* \"#utility.yul\":7740:8057   */\n      pop\n      pop\n        /* \"#utility.yul\":7664:8057   */\n      swap4\n      swap3\n      pop\n      pop\n      pop\n      jump\t// out\n        /* \"#utility.yul\":8063:8123   */\n    tag_113:\n        /* \"#utility.yul\":8091:8094   */\n      0x00\n        /* \"#utility.yul\":8112:8117   */\n      dup2\n        /* \"#utility.yul\":8105:8117   */\n      swap1\n      pop\n        /* \"#utility.yul\":8063:8123   */\n      swap2\n      swap1\n      pop\n      jump\t// out\n        /* \"#utility.yul\":8129:8271   */\n    tag_114:\n        /* \"#utility.yul\":8179:8188   */\n      0x00\n        /* \"#utility.yul\":8212:8265   */\n      tag_223\n        /* \"#utility.yul\":8230:8264   */\n      tag_224\n        /* \"#utility.yul\":8239:8263   */\n      tag_225\n        /* \"#utility.yul\":8257:8262   */\n      dup5\n        /* \"#utility.yul\":8239:8263   */\n      tag_88\n      jump\t// in\n    tag_225:\n        /* \"#utility.yul\":8230:8264   */\n      tag_113\n      jump\t// in\n    tag_224:\n        /* \"#utility.yul\":8212:8265   */\n      tag_88\n      jump\t// in\n    tag_223:\n        /* \"#utility.yul\":8199:8265   */\n      swap1\n      pop\n        /* \"#utility.yul\":8129:8271   */\n      swap2\n      swap1\n      pop\n      jump\t// out\n        /* \"#utility.yul\":8277:8352   */\n    tag_115:\n        /* \"#utility.yul\":8320:8323   */\n      0x00\n        /* \"#utility.yul\":8341:8346   */\n      dup2\n        /* \"#utility.yul\":8334:8346   */\n      swap1\n      pop\n        /* \"#utility.yul\":8277:8352   */\n      swap2\n      swap1\n      pop\n      jump\t// out\n        /* \"#utility.yul\":8358:8627   */\n    tag_116:\n        /* \"#utility.yul\":8468:8507   */\n      tag_228\n        /* \"#utility.yul\":8499:8506   */\n      dup4\n        /* \"#utility.yul\":8468:8507   */\n      tag_114\n      jump\t// in\n    tag_228:\n        /* \"#utility.yul\":8529:8620   */\n      tag_229\n        /* \"#utility.yul\":8578:8619   */\n      tag_230\n        /* \"#utility.yul\":8602:8618   */\n      dup3\n        /* \"#utility.yul\":8578:8619   */\n      tag_115\n      jump\t// in\n    tag_230:\n        /* \"#utility.yul\":8570:8576   */\n      dup5\n        /* \"#utility.yul\":8563:8567   */\n      dup5\n        /* \"#utility.yul\":8557:8568   */\n      sload\n        /* \"#utility.yul\":8529:8620   */\n      tag_112\n      jump\t// in\n    tag_229:\n        /* \"#utility.yul\":8523:8527   */\n      dup3\n        /* \"#utility.yul\":8516:8621   */\n      sstore\n        /* \"#utility.yul\":8434:8627   */\n      pop\n        /* \"#utility.yul\":8358:8627   */\n      pop\n      pop\n      pop\n      jump\t// out\n        /* \"#utility.yul\":8633:8706   */\n    tag_117:\n        /* \"#utility.yul\":8678:8681   */\n      0x00\n        /* \"#utility.yul\":8699:8700   */\n      0x00\n        /* \"#utility.yul\":8692:8700   */\n      swap1\n      pop\n        /* \"#utility.yul\":8633:8706   */\n      swap1\n      jump\t// out\n        /* \"#utility.yul\":8712:8901   */\n    tag_118:\n        /* \"#utility.yul\":8789:8821   */\n      tag_233\n      tag_117\n      jump\t// in\n    tag_233:\n        /* \"#utility.yul\":8830:8895   */\n      tag_234\n        /* \"#utility.yul\":8888:8894   */\n      dup2\n        /* \"#utility.yul\":8880:8886   */\n      dup5\n        /* \"#utility.yul\":8874:8878   */\n      dup5\n        /* \"#utility.yul\":8830:8895   */\n      tag_116\n      jump\t// in\n    tag_234:\n        /* \"#utility.yul\":8765:8901   */\n      pop\n        /* \"#utility.yul\":8712:8901   */\n      pop\n      pop\n      jump\t// out\n        /* \"#utility.yul\":8907:9093   */\n    tag_119:\n        /* \"#utility.yul\":8967:9087   */\n    tag_236:\n        /* \"#utility.yul\":8984:8987   */\n      dup2\n        /* \"#utility.yul\":8977:8982   */\n      dup2\n        /* \"#utility.yul\":8974:8988   */\n      lt\n        /* \"#utility.yul\":8967:9087   */\n      iszero\n      tag_238\n      jumpi\n        /* \"#utility.yul\":9038:9077   */\n      tag_239\n        /* \"#utility.yul\":9075:9076   */\n      0x00\n        /* \"#utility.yul\":9068:9073   */\n      dup3\n        /* \"#utility.yul\":9038:9077   */\n      tag_118\n      jump\t// in\n    tag_239:\n        /* \"#utility.yul\":9011:9012   */\n      0x01\n        /* \"#utility.yul\":9004:9009   */\n      dup2\n        /* \"#utility.yul\":9000:9013   */\n      add\n        /* \"#utility.yul\":8991:9013   */\n      swap1\n      pop\n        /* \"#utility.yul\":8967:9087   */\n      jump(tag_236)\n    tag_238:\n        /* \"#utility.yul\":8907:9093   */\n      pop\n      pop\n      jump\t// out\n        /* \"#utility.yul\":9099:9642   */\n    tag_120:\n        /* \"#utility.yul\":9200:9202   */\n      0x1f\n        /* \"#utility.yul\":9195:9198   */\n      dup3\n        /* \"#utility.yul\":9192:9203   */\n      gt\n        /* \"#utility.yul\":9189:9635   */\n      iszero\n      tag_241\n      jumpi\n        /* \"#utility.yul\":9234:9272   */\n      tag_242\n        /* \"#utility.yul\":9266:9271   */\n      dup2\n        /* \"#utility.yul\":9234:9272   */\n      tag_109\n      jump\t// in\n    tag_242:\n        /* \"#utility.yul\":9318:9347   */\n      tag_243\n        /* \"#utility.yul\":9336:9346   */\n      dup5\n        /* \"#utility.yul\":9318:9347   */\n      tag_110\n      jump\t// in\n    tag_243:\n        /* \"#utility.yul\":9308:9316   */\n      dup2\n        /* \"#utility.yul\":9304:9348   */\n      add\n        /* \"#utility.yul\":9501:9503   */\n      0x20\n        /* \"#utility.yul\":9489:9499   */\n      dup6\n        /* \"#utility.yul\":9486:9504   */\n      lt\n        /* \"#utility.yul\":9483:9532   */\n      iszero\n      tag_244\n      jumpi\n        /* \"#utility.yul\":9522:9530   */\n      dup2\n        /* \"#utility.yul\":9507:9530   */\n      swap1\n      pop\n        /* \"#utility.yul\":9483:9532   */\n    tag_244:\n        /* \"#utility.yul\":9545:9625   */\n      tag_245\n        /* \"#utility.yul\":9601:9623   */\n      tag_246\n        /* \"#utility.yul\":9619:9622   */\n      dup6\n        /* \"#utility.yul\":9601:9623   */\n      tag_110\n      jump\t// in\n    tag_246:\n        /* \"#utility.yul\":9591:9599   */\n      dup4\n        /* \"#utility.yul\":9587:9624   */\n      add\n        /* \"#utility.yul\":9574:9585   */\n      dup3\n        /* \"#utility.yul\":9545:9625   */\n      tag_119\n      jump\t// in\n    tag_245:\n        /* \"#utility.yul\":9204:9635   */\n      pop\n      pop\n        /* \"#utility.yul\":9189:9635   */\n    tag_241:\n        /* \"#utility.yul\":9099:9642   */\n      pop\n      pop\n      pop\n      jump\t// out\n        /* \"#utility.yul\":9648:9765   */\n    tag_121:\n        /* \"#utility.yul\":9702:9710   */\n      0x00\n        /* \"#utility.yul\":9752:9757   */\n      dup3\n        /* \"#utility.yul\":9746:9750   */\n      dup3\n        /* \"#utility.yul\":9742:9758   */\n      shr\n        /* \"#utility.yul\":9721:9758   */\n      swap1\n      pop\n        /* \"#utility.yul\":9648:9765   */\n      swap3\n      swap2\n      pop\n      pop\n      jump\t// out\n        /* \"#utility.yul\":9771:9940   */\n    tag_122:\n        /* \"#utility.yul\":9815:9821   */\n      0x00\n        /* \"#utility.yul\":9848:9899   */\n      tag_249\n        /* \"#utility.yul\":9896:9897   */\n      0x00\n        /* \"#utility.yul\":9892:9898   */\n      not\n        /* \"#utility.yul\":9884:9889   */\n      dup5\n        /* \"#utility.yul\":9881:9882   */\n      0x08\n        /* \"#utility.yul\":9877:9890   */\n      mul\n        /* \"#utility.yul\":9848:9899   */\n      tag_121\n      jump\t// in\n    tag_249:\n        /* \"#utility.yul\":9844:9900   */\n      not\n        /* \"#utility.yul\":9929:9933   */\n      dup1\n        /* \"#utility.yul\":9923:9927   */\n      dup4\n        /* \"#utility.yul\":9919:9934   */\n      and\n        /* \"#utility.yul\":9909:9934   */\n      swap2\n      pop\n        /* \"#utility.yul\":9822:9940   */\n      pop\n        /* \"#utility.yul\":9771:9940   */\n      swap3\n      swap2\n      pop\n      pop\n      jump\t// out\n        /* \"#utility.yul\":9945:10240   */\n    tag_123:\n        /* \"#utility.yul\":10021:10025   */\n      0x00\n        /* \"#utility.yul\":10167:10196   */\n      tag_251\n        /* \"#utility.yul\":10192:10195   */\n      dup4\n        /* \"#utility.yul\":10186:10190   */\n      dup4\n        /* \"#utility.yul\":10167:10196   */\n      tag_122\n      jump\t// in\n    tag_251:\n        /* \"#utility.yul\":10159:10196   */\n      swap2\n      pop\n        /* \"#utility.yul\":10229:10232   */\n      dup3\n        /* \"#utility.yul\":10226:10227   */\n      0x02\n        /* \"#utility.yul\":10222:10233   */\n      mul\n        /* \"#utility.yul\":10216:10220   */\n      dup3\n        /* \"#utility.yul\":10213:10234   */\n      or\n        /* \"#utility.yul\":10205:10234   */\n      swap1\n      pop\n        /* \"#utility.yul\":9945:10240   */\n      swap3\n      swap2\n      pop\n      pop\n      jump\t// out\n        /* \"#utility.yul\":10245:11640   */\n    tag_30:\n        /* \"#utility.yul\":10362:10399   */\n      tag_253\n        /* \"#utility.yul\":10395:10398   */\n      dup3\n        /* \"#utility.yul\":10362:10399   */\n      tag_106\n      jump\t// in\n    tag_253:\n        /* \"#utility.yul\":10464:10482   */\n      0xffffffffffffffff\n        /* \"#utility.yul\":10456:10462   */\n      dup2\n        /* \"#utility.yul\":10453:10483   */\n      gt\n        /* \"#utility.yul\":10450:10506   */\n      iszero\n      tag_254\n      jumpi\n        /* \"#utility.yul\":10486:10504   */\n      tag_255\n      tag_94\n      jump\t// in\n    tag_255:\n        /* \"#utility.yul\":10450:10506   */\n    tag_254:\n        /* \"#utility.yul\":10530:10568   */\n      tag_256\n        /* \"#utility.yul\":10562:10566   */\n      dup3\n        /* \"#utility.yul\":10556:10567   */\n      sload\n        /* \"#utility.yul\":10530:10568   */\n      tag_108\n      jump\t// in\n    tag_256:\n        /* \"#utility.yul\":10615:10682   */\n      tag_257\n        /* \"#utility.yul\":10675:10681   */\n      dup3\n        /* \"#utility.yul\":10667:10673   */\n      dup3\n        /* \"#utility.yul\":10661:10665   */\n      dup6\n        /* \"#utility.yul\":10615:10682   */\n      tag_120\n      jump\t// in\n    tag_257:\n        /* \"#utility.yul\":10709:10710   */\n      0x00\n        /* \"#utility.yul\":10733:10737   */\n      0x20\n        /* \"#utility.yul\":10720:10737   */\n      swap1\n      pop\n        /* \"#utility.yul\":10765:10767   */\n      0x1f\n        /* \"#utility.yul\":10757:10763   */\n      dup4\n        /* \"#utility.yul\":10754:10768   */\n      gt\n        /* \"#utility.yul\":10782:10783   */\n      0x01\n        /* \"#utility.yul\":10777:11395   */\n      dup2\n      eq\n      tag_259\n      jumpi\n        /* \"#utility.yul\":11439:11440   */\n      0x00\n        /* \"#utility.yul\":11456:11462   */\n      dup5\n        /* \"#utility.yul\":11453:11530   */\n      iszero\n      tag_260\n      jumpi\n        /* \"#utility.yul\":11505:11514   */\n      dup3\n        /* \"#utility.yul\":11500:11503   */\n      dup8\n        /* \"#utility.yul\":11496:11515   */\n      add\n        /* \"#utility.yul\":11490:11516   */\n      mload\n        /* \"#utility.yul\":11481:11516   */\n      swap1\n      pop\n        /* \"#utility.yul\":11453:11530   */\n    tag_260:\n        /* \"#utility.yul\":11556:11623   */\n      tag_261\n        /* \"#utility.yul\":11616:11622   */\n      dup6\n        /* \"#utility.yul\":11609:11614   */\n      dup3\n        /* \"#utility.yul\":11556:11623   */\n      tag_123\n      jump\t// in\n    tag_261:\n        /* \"#utility.yul\":11550:11554   */\n      dup7\n        /* \"#utility.yul\":11543:11624   */\n      sstore\n        /* \"#utility.yul\":11412:11634   */\n      pop\n        /* \"#utility.yul\":10747:11634   */\n      jump(tag_258)\n        /* \"#utility.yul\":10777:11395   */\n    tag_259:\n        /* \"#utility.yul\":10829:10833   */\n      0x1f\n        /* \"#utility.yul\":10825:10834   */\n      not\n        /* \"#utility.yul\":10817:10823   */\n      dup5\n        /* \"#utility.yul\":10813:10835   */\n      and\n        /* \"#utility.yul\":10863:10900   */\n      tag_262\n        /* \"#utility.yul\":10895:10899   */\n      dup7\n        /* \"#utility.yul\":10863:10900   */\n      tag_109\n      jump\t// in\n    tag_262:\n        /* \"#utility.yul\":10922:10923   */\n      0x00\n        /* \"#utility.yul\":10936:11144   */\n    tag_263:\n        /* \"#utility.yul\":10950:10957   */\n      dup3\n        /* \"#utility.yul\":10947:10948   */\n      dup2\n        /* \"#utility.yul\":10944:10958   */\n      lt\n        /* \"#utility.yul\":10936:11144   */\n      iszero\n      tag_265\n      jumpi\n        /* \"#utility.yul\":11029:11038   */\n      dup5\n        /* \"#utility.yul\":11024:11027   */\n      dup10\n        /* \"#utility.yul\":11020:11039   */\n      add\n        /* \"#utility.yul\":11014:11040   */\n      mload\n        /* \"#utility.yul\":11006:11012   */\n      dup3\n        /* \"#utility.yul\":10999:11041   */\n      sstore\n        /* \"#utility.yul\":11080:11081   */\n      0x01\n        /* \"#utility.yul\":11072:11078   */\n      dup3\n        /* \"#utility.yul\":11068:11082   */\n      add\n        /* \"#utility.yul\":11058:11082   */\n      swap2\n      pop\n        /* \"#utility.yul\":11127:11129   */\n      0x20\n        /* \"#utility.yul\":11116:11125   */\n      dup6\n        /* \"#utility.yul\":11112:11130   */\n      add\n        /* \"#utility.yul\":11099:11130   */\n      swap5\n      pop\n        /* \"#utility.yul\":10973:10977   */\n      0x20\n        /* \"#utility.yul\":10970:10971   */\n      dup2\n        /* \"#utility.yul\":10966:10978   */\n      add\n        /* \"#utility.yul\":10961:10978   */\n      swap1\n      pop\n        /* \"#utility.yul\":10936:11144   */\n      jump(tag_263)\n    tag_265:\n        /* \"#utility.yul\":11172:11178   */\n      dup7\n        /* \"#utility.yul\":11163:11170   */\n      dup4\n        /* \"#utility.yul\":11160:11179   */\n      lt\n        /* \"#utility.yul\":11157:11336   */\n      iszero\n      tag_266\n      jumpi\n        /* \"#utility.yul\":11230:11239   */\n      dup5\n        /* \"#utility.yul\":11225:11228   */\n      dup10\n        /* \"#utility.yul\":11221:11240   */\n      add\n        /* \"#utility.yul\":11215:11241   */\n      mload\n        /* \"#utility.yul\":11273:11321   */\n      tag_267\n        /* \"#utility.yul\":11315:11319   */\n      0x1f\n        /* \"#utility.yul\":11307:11313   */\n      dup10\n        /* \"#utility.yul\":11303:11320   */\n      and\n        /* \"#utility.yul\":11292:11301   */\n      dup3\n        /* \"#utility.yul\":11273:11321   */\n      tag_122\n      jump\t// in\n    tag_267:\n        /* \"#utility.yul\":11265:11271   */\n      dup4\n        /* \"#utility.yul\":11258:11322   */\n      sstore\n        /* \"#utility.yul\":11180:11336   */\n      pop\n        /* \"#utility.yul\":11157:11336   */\n    tag_266:\n        /* \"#utility.yul\":11382:11383   */\n      0x01\n        /* \"#utility.yul\":11378:11379   */\n      0x02\n        /* \"#utility.yul\":11370:11376   */\n      dup9\n        /* \"#utility.yul\":11366:11380   */\n      mul\n        /* \"#utility.yul\":11362:11384   */\n      add\n        /* \"#utility.yul\":11356:11360   */\n      dup9\n        /* \"#utility.yul\":11349:11385   */\n      sstore\n        /* \"#utility.yul\":10784:11395   */\n      pop\n      pop\n      pop\n        /* \"#utility.yul\":10747:11634   */\n    tag_258:\n      pop\n        /* \"#utility.yul\":10337:11640   */\n      pop\n      pop\n      pop\n        /* \"#utility.yul\":10245:11640   */\n      pop\n      pop\n      jump\t// out\n        /* \"#utility.yul\":11646:11818   */\n    tag_124:\n        /* \"#utility.yul\":11786:11810   */\n      0x596f7520617265206e6f7420612073747564656e742100000000000000000000\n        /* \"#utility.yul\":11782:11783   */\n      0x00\n        /* \"#utility.yul\":11774:11780   */\n      dup3\n        /* \"#utility.yul\":11770:11784   */\n      add\n        /* \"#utility.yul\":11763:11811   */\n      mstore\n        /* \"#utility.yul\":11646:11818   */\n      pop\n      jump\t// out\n        /* \"#utility.yul\":11824:12190   */\n    tag_125:\n        /* \"#utility.yul\":11966:11969   */\n      0x00\n        /* \"#utility.yul\":11987:12054   */\n      tag_270\n        /* \"#utility.yul\":12051:12053   */\n      0x16\n        /* \"#utility.yul\":12046:12049   */\n      dup4\n        /* \"#utility.yul\":11987:12054   */\n      tag_101\n      jump\t// in\n    tag_270:\n        /* \"#utility.yul\":11980:12054   */\n      swap2\n      pop\n        /* \"#utility.yul\":12063:12156   */\n      tag_271\n        /* \"#utility.yul\":12152:12155   */\n      dup3\n        /* \"#utility.yul\":12063:12156   */\n      tag_124\n      jump\t// in\n    tag_271:\n        /* \"#utility.yul\":12181:12183   */\n      0x20\n        /* \"#utility.yul\":12176:12179   */\n      dup3\n        /* \"#utility.yul\":12172:12184   */\n      add\n        /* \"#utility.yul\":12165:12184   */\n      swap1\n      pop\n        /* \"#utility.yul\":11824:12190   */\n      swap2\n      swap1\n      pop\n      jump\t// out\n        /* \"#utility.yul\":12196:12615   */\n    tag_34:\n        /* \"#utility.yul\":12362:12366   */\n      0x00\n        /* \"#utility.yul\":12400:12402   */\n      0x20\n        /* \"#utility.yul\":12389:12398   */\n      dup3\n        /* \"#utility.yul\":12385:12403   */\n      add\n        /* \"#utility.yul\":12377:12403   */\n      swap1\n      pop\n        /* \"#utility.yul\":12449:12458   */\n      dup2\n        /* \"#utility.yul\":12443:12447   */\n      dup2\n        /* \"#utility.yul\":12439:12459   */\n      sub\n        /* \"#utility.yul\":12435:12436   */\n      0x00\n        /* \"#utility.yul\":12424:12433   */\n      dup4\n        /* \"#utility.yul\":12420:12437   */\n      add\n        /* \"#utility.yul\":12413:12460   */\n      mstore\n        /* \"#utility.yul\":12477:12608   */\n      tag_273\n        /* \"#utility.yul\":12603:12607   */\n      dup2\n        /* \"#utility.yul\":12477:12608   */\n      tag_125\n      jump\t// in\n    tag_273:\n        /* \"#utility.yul\":12469:12608   */\n      swap1\n      pop\n        /* \"#utility.yul\":12196:12615   */\n      swap2\n      swap1\n      pop\n      jump\t// out\n        /* \"#utility.yul\":12621:12796   */\n    tag_126:\n        /* \"#utility.yul\":12761:12788   */\n      0x596f7520617265206e6f742079657420656e726f6c6c65642100000000000000\n        /* \"#utility.yul\":12757:12758   */\n      0x00\n        /* \"#utility.yul\":12749:12755   */\n      dup3\n        /* \"#utility.yul\":12745:12759   */\n      add\n        /* \"#utility.yul\":12738:12789   */\n      mstore\n        /* \"#utility.yul\":12621:12796   */\n      pop\n      jump\t// out\n        /* \"#utility.yul\":12802:13168   */\n    tag_127:\n        /* \"#utility.yul\":12944:12947   */\n      0x00\n        /* \"#utility.yul\":12965:13032   */\n      tag_276\n        /* \"#utility.yul\":13029:13031   */\n      0x19\n        /* \"#utility.yul\":13024:13027   */\n      dup4\n        /* \"#utility.yul\":12965:13032   */\n      tag_101\n      jump\t// in\n    tag_276:\n        /* \"#utility.yul\":12958:13032   */\n      swap2\n      pop\n        /* \"#utility.yul\":13041:13134   */\n      tag_277\n        /* \"#utility.yul\":13130:13133   */\n      dup3\n        /* \"#utility.yul\":13041:13134   */\n      tag_126\n      jump\t// in\n    tag_277:\n        /* \"#utility.yul\":13159:13161   */\n      0x20\n        /* \"#utility.yul\":13154:13157   */\n      dup3\n        /* \"#utility.yul\":13150:13162   */\n      add\n        /* \"#utility.yul\":13143:13162   */\n      swap1\n      pop\n        /* \"#utility.yul\":12802:13168   */\n      swap2\n      swap1\n      pop\n      jump\t// out\n        /* \"#utility.yul\":13174:13593   */\n    tag_38:\n        /* \"#utility.yul\":13340:13344   */\n      0x00\n        /* \"#utility.yul\":13378:13380   */\n      0x20\n        /* \"#utility.yul\":13367:13376   */\n      dup3\n        /* \"#utility.yul\":13363:13381   */\n      add\n        /* \"#utility.yul\":13355:13381   */\n      swap1\n      pop\n        /* \"#utility.yul\":13427:13436   */\n      dup2\n        /* \"#utility.yul\":13421:13425   */\n      dup2\n        /* \"#utility.yul\":13417:13437   */\n      sub\n        /* \"#utility.yul\":13413:13414   */\n      0x00\n        /* \"#utility.yul\":13402:13411   */\n      dup4\n        /* \"#utility.yul\":13398:13415   */\n      add\n        /* \"#utility.yul\":13391:13438   */\n      mstore\n        /* \"#utility.yul\":13455:13586   */\n      tag_279\n        /* \"#utility.yul\":13581:13585   */\n      dup2\n        /* \"#utility.yul\":13455:13586   */\n      tag_127\n      jump\t// in\n    tag_279:\n        /* \"#utility.yul\":13447:13586   */\n      swap1\n      pop\n        /* \"#utility.yul\":13174:13593   */\n      swap2\n      swap1\n      pop\n      jump\t// out\n        /* \"#utility.yul\":13599:13819   */\n    tag_128:\n        /* \"#utility.yul\":13739:13773   */\n      0x596f752068617665206e6f7420626f72726f776564206120626f6f6b20796574\n        /* \"#utility.yul\":13735:13736   */\n      0x00\n        /* \"#utility.yul\":13727:13733   */\n      dup3\n        /* \"#utility.yul\":13723:13737   */\n      add\n        /* \"#utility.yul\":13716:13774   */\n      mstore\n        /* \"#utility.yul\":13808:13811   */\n      0x2100000000000000000000000000000000000000000000000000000000000000\n        /* \"#utility.yul\":13803:13805   */\n      0x20\n        /* \"#utility.yul\":13795:13801   */\n      dup3\n        /* \"#utility.yul\":13791:13806   */\n      add\n        /* \"#utility.yul\":13784:13812   */\n      mstore\n        /* \"#utility.yul\":13599:13819   */\n      pop\n      jump\t// out\n        /* \"#utility.yul\":13825:14191   */\n    tag_129:\n        /* \"#utility.yul\":13967:13970   */\n      0x00\n        /* \"#utility.yul\":13988:14055   */\n      tag_282\n        /* \"#utility.yul\":14052:14054   */\n      0x21\n        /* \"#utility.yul\":14047:14050   */\n      dup4\n        /* \"#utility.yul\":13988:14055   */\n      tag_101\n      jump\t// in\n    tag_282:\n        /* \"#utility.yul\":13981:14055   */\n      swap2\n      pop\n        /* \"#utility.yul\":14064:14157   */\n      tag_283\n        /* \"#utility.yul\":14153:14156   */\n      dup3\n        /* \"#utility.yul\":14064:14157   */\n      tag_128\n      jump\t// in\n    tag_283:\n        /* \"#utility.yul\":14182:14184   */\n      0x40\n        /* \"#utility.yul\":14177:14180   */\n      dup3\n        /* \"#utility.yul\":14173:14185   */\n      add\n        /* \"#utility.yul\":14166:14185   */\n      swap1\n      pop\n        /* \"#utility.yul\":13825:14191   */\n      swap2\n      swap1\n      pop\n      jump\t// out\n        /* \"#utility.yul\":14197:14616   */\n    tag_42:\n        /* \"#utility.yul\":14363:14367   */\n      0x00\n        /* \"#utility.yul\":14401:14403   */\n      0x20\n        /* \"#utility.yul\":14390:14399   */\n      dup3\n        /* \"#utility.yul\":14386:14404   */\n      add\n        /* \"#utility.yul\":14378:14404   */\n      swap1\n      pop\n        /* \"#utility.yul\":14450:14459   */\n      dup2\n        /* \"#utility.yul\":14444:14448   */\n      dup2\n        /* \"#utility.yul\":14440:14460   */\n      sub\n        /* \"#utility.yul\":14436:14437   */\n      0x00\n        /* \"#utility.yul\":14425:14434   */\n      dup4\n        /* \"#utility.yul\":14421:14438   */\n      add\n        /* \"#utility.yul\":14414:14461   */\n      mstore\n        /* \"#utility.yul\":14478:14609   */\n      tag_285\n        /* \"#utility.yul\":14604:14608   */\n      dup2\n        /* \"#utility.yul\":14478:14609   */\n      tag_129\n      jump\t// in\n    tag_285:\n        /* \"#utility.yul\":14470:14609   */\n      swap1\n      pop\n        /* \"#utility.yul\":14197:14616   */\n      swap2\n      swap1\n      pop\n      jump\t// out\n        /* \"#utility.yul\":14622:14854   */\n    tag_130:\n        /* \"#utility.yul\":14762:14796   */\n      0x596f752068617665206120486f6c64204f726465722e204e6f7420616c6c6f77\n        /* \"#utility.yul\":14758:14759   */\n      0x00\n        /* \"#utility.yul\":14750:14756   */\n      dup3\n        /* \"#utility.yul\":14746:14760   */\n      add\n        /* \"#utility.yul\":14739:14797   */\n      mstore\n        /* \"#utility.yul\":14831:14846   */\n      0x656420746f20626f72726f772100000000000000000000000000000000000000\n        /* \"#utility.yul\":14826:14828   */\n      0x20\n        /* \"#utility.yul\":14818:14824   */\n      dup3\n        /* \"#utility.yul\":14814:14829   */\n      add\n        /* \"#utility.yul\":14807:14847   */\n      mstore\n        /* \"#utility.yul\":14622:14854   */\n      pop\n      jump\t// out\n        /* \"#utility.yul\":14860:15226   */\n    tag_131:\n        /* \"#utility.yul\":15002:15005   */\n      0x00\n        /* \"#utility.yul\":15023:15090   */\n      tag_288\n        /* \"#utility.yul\":15087:15089   */\n      0x2d\n        /* \"#utility.yul\":15082:15085   */\n      dup4\n        /* \"#utility.yul\":15023:15090   */\n      tag_101\n      jump\t// in\n    tag_288:\n        /* \"#utility.yul\":15016:15090   */\n      swap2\n      pop\n        /* \"#utility.yul\":15099:15192   */\n      tag_289\n        /* \"#utility.yul\":15188:15191   */\n      dup3\n        /* \"#utility.yul\":15099:15192   */\n      tag_130\n      jump\t// in\n    tag_289:\n        /* \"#utility.yul\":15217:15219   */\n      0x40\n        /* \"#utility.yul\":15212:15215   */\n      dup3\n        /* \"#utility.yul\":15208:15220   */\n      add\n        /* \"#utility.yul\":15201:15220   */\n      swap1\n      pop\n        /* \"#utility.yul\":14860:15226   */\n      swap2\n      swap1\n      pop\n      jump\t// out\n        /* \"#utility.yul\":15232:15651   */\n    tag_54:\n        /* \"#utility.yul\":15398:15402   */\n      0x00\n        /* \"#utility.yul\":15436:15438   */\n      0x20\n        /* \"#utility.yul\":15425:15434   */\n      dup3\n        /* \"#utility.yul\":15421:15439   */\n      add\n        /* \"#utility.yul\":15413:15439   */\n      swap1\n      pop\n        /* \"#utility.yul\":15485:15494   */\n      dup2\n        /* \"#utility.yul\":15479:15483   */\n      dup2\n        /* \"#utility.yul\":15475:15495   */\n      sub\n        /* \"#utility.yul\":15471:15472   */\n      0x00\n        /* \"#utility.yul\":15460:15469   */\n      dup4\n        /* \"#utility.yul\":15456:15473   */\n      add\n        /* \"#utility.yul\":15449:15496   */\n      mstore\n        /* \"#utility.yul\":15513:15644   */\n      tag_291\n        /* \"#utility.yul\":15639:15643   */\n      dup2\n        /* \"#utility.yul\":15513:15644   */\n      tag_131\n      jump\t// in\n    tag_291:\n        /* \"#utility.yul\":15505:15644   */\n      swap1\n      pop\n        /* \"#utility.yul\":15232:15651   */\n      swap2\n      swap1\n      pop\n      jump\t// out\n        /* \"#utility.yul\":15657:15893   */\n    tag_132:\n        /* \"#utility.yul\":15797:15831   */\n      0x596f7520616c726561647920626f72726f7765642e204e6f7420616c6c6f7765\n        /* \"#utility.yul\":15793:15794   */\n      0x00\n        /* \"#utility.yul\":15785:15791   */\n      dup3\n        /* \"#utility.yul\":15781:15795   */\n      add\n        /* \"#utility.yul\":15774:15832   */\n      mstore\n        /* \"#utility.yul\":15866:15885   */\n      0x6420746f20626f72726f77206d6f726521000000000000000000000000000000\n        /* \"#utility.yul\":15861:15863   */\n      0x20\n        /* \"#utility.yul\":15853:15859   */\n      dup3\n        /* \"#utility.yul\":15849:15864   */\n      add\n        /* \"#utility.yul\":15842:15886   */\n      mstore\n        /* \"#utility.yul\":15657:15893   */\n      pop\n      jump\t// out\n        /* \"#utility.yul\":15899:16265   */\n    tag_133:\n        /* \"#utility.yul\":16041:16044   */\n      0x00\n        /* \"#utility.yul\":16062:16129   */\n      tag_294\n        /* \"#utility.yul\":16126:16128   */\n      0x31\n        /* \"#utility.yul\":16121:16124   */\n      dup4\n        /* \"#utility.yul\":16062:16129   */\n      tag_101\n      jump\t// in\n    tag_294:\n        /* \"#utility.yul\":16055:16129   */\n      swap2\n      pop\n        /* \"#utility.yul\":16138:16231   */\n      tag_295\n        /* \"#utility.yul\":16227:16230   */\n      dup3\n        /* \"#utility.yul\":16138:16231   */\n      tag_132\n      jump\t// in\n    tag_295:\n        /* \"#utility.yul\":16256:16258   */\n      0x40\n        /* \"#utility.yul\":16251:16254   */\n      dup3\n        /* \"#utility.yul\":16247:16259   */\n      add\n        /* \"#utility.yul\":16240:16259   */\n      swap1\n      pop\n        /* \"#utility.yul\":15899:16265   */\n      swap2\n      swap1\n      pop\n      jump\t// out\n        /* \"#utility.yul\":16271:16690   */\n    tag_58:\n        /* \"#utility.yul\":16437:16441   */\n      0x00\n        /* \"#utility.yul\":16475:16477   */\n      0x20\n        /* \"#utility.yul\":16464:16473   */\n      dup3\n        /* \"#utility.yul\":16460:16478   */\n      add\n        /* \"#utility.yul\":16452:16478   */\n      swap1\n      pop\n        /* \"#utility.yul\":16524:16533   */\n      dup2\n        /* \"#utility.yul\":16518:16522   */\n      dup2\n        /* \"#utility.yul\":16514:16534   */\n      sub\n        /* \"#utility.yul\":16510:16511   */\n      0x00\n        /* \"#utility.yul\":16499:16508   */\n      dup4\n        /* \"#utility.yul\":16495:16512   */\n      add\n        /* \"#utility.yul\":16488:16535   */\n      mstore\n        /* \"#utility.yul\":16552:16683   */\n      tag_297\n        /* \"#utility.yul\":16678:16682   */\n      dup2\n        /* \"#utility.yul\":16552:16683   */\n      tag_133\n      jump\t// in\n    tag_297:\n        /* \"#utility.yul\":16544:16683   */\n      swap1\n      pop\n        /* \"#utility.yul\":16271:16690   */\n      swap2\n      swap1\n      pop\n      jump\t// out\n        /* \"#utility.yul\":16696:16876   */\n    tag_134:\n        /* \"#utility.yul\":16744:16821   */\n      0x4e487b7100000000000000000000000000000000000000000000000000000000\n        /* \"#utility.yul\":16741:16742   */\n      0x00\n        /* \"#utility.yul\":16734:16822   */\n      mstore\n        /* \"#utility.yul\":16841:16845   */\n      0x11\n        /* \"#utility.yul\":16838:16839   */\n      0x04\n        /* \"#utility.yul\":16831:16846   */\n      mstore\n        /* \"#utility.yul\":16865:16869   */\n      0x24\n        /* \"#utility.yul\":16862:16863   */\n      0x00\n        /* \"#utility.yul\":16855:16870   */\n      revert\n        /* \"#utility.yul\":16882:17073   */\n    tag_61:\n        /* \"#utility.yul\":16922:16925   */\n      0x00\n        /* \"#utility.yul\":16941:16961   */\n      tag_300\n        /* \"#utility.yul\":16959:16960   */\n      dup3\n        /* \"#utility.yul\":16941:16961   */\n      tag_88\n      jump\t// in\n    tag_300:\n        /* \"#utility.yul\":16936:16961   */\n      swap2\n      pop\n        /* \"#utility.yul\":16975:16995   */\n      tag_301\n        /* \"#utility.yul\":16993:16994   */\n      dup4\n        /* \"#utility.yul\":16975:16995   */\n      tag_88\n      jump\t// in\n    tag_301:\n        /* \"#utility.yul\":16970:16995   */\n      swap3\n      pop\n        /* \"#utility.yul\":17018:17019   */\n      dup3\n        /* \"#utility.yul\":17015:17016   */\n      dup3\n        /* \"#utility.yul\":17011:17020   */\n      add\n        /* \"#utility.yul\":17004:17020   */\n      swap1\n      pop\n        /* \"#utility.yul\":17039:17042   */\n      dup1\n        /* \"#utility.yul\":17036:17037   */\n      dup3\n        /* \"#utility.yul\":17033:17043   */\n      gt\n        /* \"#utility.yul\":17030:17066   */\n      iszero\n      tag_302\n      jumpi\n        /* \"#utility.yul\":17046:17064   */\n      tag_303\n      tag_134\n      jump\t// in\n    tag_303:\n        /* \"#utility.yul\":17030:17066   */\n    tag_302:\n        /* \"#utility.yul\":16882:17073   */\n      swap3\n      swap2\n      pop\n      pop\n      jump\t// out\n        /* \"#utility.yul\":17079:17197   */\n    tag_135:\n        /* \"#utility.yul\":17166:17190   */\n      tag_305\n        /* \"#utility.yul\":17184:17189   */\n      dup2\n        /* \"#utility.yul\":17166:17190   */\n      tag_88\n      jump\t// in\n    tag_305:\n        /* \"#utility.yul\":17161:17164   */\n      dup3\n        /* \"#utility.yul\":17154:17191   */\n      mstore\n        /* \"#utility.yul\":17079:17197   */\n      pop\n      pop\n      jump\t// out\n        /* \"#utility.yul\":17203:17425   */\n    tag_63:\n        /* \"#utility.yul\":17296:17300   */\n      0x00\n        /* \"#utility.yul\":17334:17336   */\n      0x20\n        /* \"#utility.yul\":17323:17332   */\n      dup3\n        /* \"#utility.yul\":17319:17337   */\n      add\n        /* \"#utility.yul\":17311:17337   */\n      swap1\n      pop\n        /* \"#utility.yul\":17347:17418   */\n      tag_307\n        /* \"#utility.yul\":17415:17416   */\n      0x00\n        /* \"#utility.yul\":17404:17413   */\n      dup4\n        /* \"#utility.yul\":17400:17417   */\n      add\n        /* \"#utility.yul\":17391:17397   */\n      dup5\n        /* \"#utility.yul\":17347:17418   */\n      tag_135\n      jump\t// in\n    tag_307:\n        /* \"#utility.yul\":17203:17425   */\n      swap3\n      swap2\n      pop\n      pop\n      jump\t// out\n        /* \"#utility.yul\":17431:17723   */\n    tag_136:\n        /* \"#utility.yul\":17571:17605   */\n      0x596f7520646f206e6f742068617665206120486f6c64204f726465722e20596f\n        /* \"#utility.yul\":17567:17568   */\n      0x00\n        /* \"#utility.yul\":17559:17565   */\n      dup3\n        /* \"#utility.yul\":17555:17569   */\n      add\n        /* \"#utility.yul\":17548:17606   */\n      mstore\n        /* \"#utility.yul\":17640:17674   */\n      0x7520646f206e6f74206861766520616e206f75747374616e64696e672062616c\n        /* \"#utility.yul\":17635:17637   */\n      0x20\n        /* \"#utility.yul\":17627:17633   */\n      dup3\n        /* \"#utility.yul\":17623:17638   */\n      add\n        /* \"#utility.yul\":17616:17675   */\n      mstore\n        /* \"#utility.yul\":17709:17715   */\n      0x616e636500000000000000000000000000000000000000000000000000000000\n        /* \"#utility.yul\":17704:17706   */\n      0x40\n        /* \"#utility.yul\":17696:17702   */\n      dup3\n        /* \"#utility.yul\":17692:17707   */\n      add\n        /* \"#utility.yul\":17685:17716   */\n      mstore\n        /* \"#utility.yul\":17431:17723   */\n      pop\n      jump\t// out\n        /* \"#utility.yul\":17729:18095   */\n    tag_137:\n        /* \"#utility.yul\":17871:17874   */\n      0x00\n        /* \"#utility.yul\":17892:17959   */\n      tag_310\n        /* \"#utility.yul\":17956:17958   */\n      0x44\n        /* \"#utility.yul\":17951:17954   */\n      dup4\n        /* \"#utility.yul\":17892:17959   */\n      tag_101\n      jump\t// in\n    tag_310:\n        /* \"#utility.yul\":17885:17959   */\n      swap2\n      pop\n        /* \"#utility.yul\":17968:18061   */\n      tag_311\n        /* \"#utility.yul\":18057:18060   */\n      dup3\n        /* \"#utility.yul\":17968:18061   */\n      tag_136\n      jump\t// in\n    tag_311:\n        /* \"#utility.yul\":18086:18088   */\n      0x60\n        /* \"#utility.yul\":18081:18084   */\n      dup3\n        /* \"#utility.yul\":18077:18089   */\n      add\n        /* \"#utility.yul\":18070:18089   */\n      swap1\n      pop\n        /* \"#utility.yul\":17729:18095   */\n      swap2\n      swap1\n      pop\n      jump\t// out\n        /* \"#utility.yul\":18101:18520   */\n    tag_73:\n        /* \"#utility.yul\":18267:18271   */\n      0x00\n        /* \"#utility.yul\":18305:18307   */\n      0x20\n        /* \"#utility.yul\":18294:18303   */\n      dup3\n        /* \"#utility.yul\":18290:18308   */\n      add\n        /* \"#utility.yul\":18282:18308   */\n      swap1\n      pop\n        /* \"#utility.yul\":18354:18363   */\n      dup2\n        /* \"#utility.yul\":18348:18352   */\n      dup2\n        /* \"#utility.yul\":18344:18364   */\n      sub\n        /* \"#utility.yul\":18340:18341   */\n      0x00\n        /* \"#utility.yul\":18329:18338   */\n      dup4\n        /* \"#utility.yul\":18325:18342   */\n      add\n        /* \"#utility.yul\":18318:18365   */\n      mstore\n        /* \"#utility.yul\":18382:18513   */\n      tag_313\n        /* \"#utility.yul\":18508:18512   */\n      dup2\n        /* \"#utility.yul\":18382:18513   */\n      tag_137\n      jump\t// in\n    tag_313:\n        /* \"#utility.yul\":18374:18513   */\n      swap1\n      pop\n        /* \"#utility.yul\":18101:18520   */\n      swap2\n      swap1\n      pop\n      jump\t// out\n        /* \"#utility.yul\":18526:18752   */\n    tag_138:\n        /* \"#utility.yul\":18666:18700   */\n      0x506c65617365207061792074686520657861637420616d6f756e74206f662074\n        /* \"#utility.yul\":18662:18663   */\n      0x00\n        /* \"#utility.yul\":18654:18660   */\n      dup3\n        /* \"#utility.yul\":18650:18664   */\n      add\n        /* \"#utility.yul\":18643:18701   */\n      mstore\n        /* \"#utility.yul\":18735:18744   */\n      0x68652066696e6500000000000000000000000000000000000000000000000000\n        /* \"#utility.yul\":18730:18732   */\n      0x20\n        /* \"#utility.yul\":18722:18728   */\n      dup3\n        /* \"#utility.yul\":18718:18733   */\n      add\n        /* \"#utility.yul\":18711:18745   */\n      mstore\n        /* \"#utility.yul\":18526:18752   */\n      pop\n      jump\t// out\n        /* \"#utility.yul\":18758:19124   */\n    tag_139:\n        /* \"#utility.yul\":18900:18903   */\n      0x00\n        /* \"#utility.yul\":18921:18988   */\n      tag_316\n        /* \"#utility.yul\":18985:18987   */\n      0x27\n        /* \"#utility.yul\":18980:18983   */\n      dup4\n        /* \"#utility.yul\":18921:18988   */\n      tag_101\n      jump\t// in\n    tag_316:\n        /* \"#utility.yul\":18914:18988   */\n      swap2\n      pop\n        /* \"#utility.yul\":18997:19090   */\n      tag_317\n        /* \"#utility.yul\":19086:19089   */\n      dup3\n        /* \"#utility.yul\":18997:19090   */\n      tag_138\n      jump\t// in\n    tag_317:\n        /* \"#utility.yul\":19115:19117   */\n      0x40\n        /* \"#utility.yul\":19110:19113   */\n      dup3\n        /* \"#utility.yul\":19106:19118   */\n      add\n        /* \"#utility.yul\":19099:19118   */\n      swap1\n      pop\n        /* \"#utility.yul\":18758:19124   */\n      swap2\n      swap1\n      pop\n      jump\t// out\n        /* \"#utility.yul\":19130:19549   */\n    tag_77:\n        /* \"#utility.yul\":19296:19300   */\n      0x00\n        /* \"#utility.yul\":19334:19336   */\n      0x20\n        /* \"#utility.yul\":19323:19332   */\n      dup3\n        /* \"#utility.yul\":19319:19337   */\n      add\n        /* \"#utility.yul\":19311:19337   */\n      swap1\n      pop\n        /* \"#utility.yul\":19383:19392   */\n      dup2\n        /* \"#utility.yul\":19377:19381   */\n      dup2\n        /* \"#utility.yul\":19373:19393   */\n      sub\n        /* \"#utility.yul\":19369:19370   */\n      0x00\n        /* \"#utility.yul\":19358:19367   */\n      dup4\n        /* \"#utility.yul\":19354:19371   */\n      add\n        /* \"#utility.yul\":19347:19394   */\n      mstore\n        /* \"#utility.yul\":19411:19542   */\n      tag_319\n        /* \"#utility.yul\":19537:19541   */\n      dup2\n        /* \"#utility.yul\":19411:19542   */\n      tag_139\n      jump\t// in\n    tag_319:\n        /* \"#utility.yul\":19403:19542   */\n      swap1\n      pop\n        /* \"#utility.yul\":19130:19549   */\n      swap2\n      swap1\n      pop\n      jump\t// out\n        /* \"#utility.yul\":19555:19749   */\n    tag_79:\n        /* \"#utility.yul\":19595:19599   */\n      0x00\n        /* \"#utility.yul\":19615:19635   */\n      tag_321\n        /* \"#utility.yul\":19633:19634   */\n      dup3\n        /* \"#utility.yul\":19615:19635   */\n      tag_88\n      jump\t// in\n    tag_321:\n        /* \"#utility.yul\":19610:19635   */\n      swap2\n      pop\n        /* \"#utility.yul\":19649:19669   */\n      tag_322\n        /* \"#utility.yul\":19667:19668   */\n      dup4\n        /* \"#utility.yul\":19649:19669   */\n      tag_88\n      jump\t// in\n    tag_322:\n        /* \"#utility.yul\":19644:19669   */\n      swap3\n      pop\n        /* \"#utility.yul\":19693:19694   */\n      dup3\n        /* \"#utility.yul\":19690:19691   */\n      dup3\n        /* \"#utility.yul\":19686:19695   */\n      sub\n        /* \"#utility.yul\":19678:19695   */\n      swap1\n      pop\n        /* \"#utility.yul\":19717:19718   */\n      dup2\n        /* \"#utility.yul\":19711:19715   */\n      dup2\n        /* \"#utility.yul\":19708:19719   */\n      gt\n        /* \"#utility.yul\":19705:19742   */\n      iszero\n      tag_323\n      jumpi\n        /* \"#utility.yul\":19722:19740   */\n      tag_324\n      tag_134\n      jump\t// in\n    tag_324:\n        /* \"#utility.yul\":19705:19742   */\n    tag_323:\n        /* \"#utility.yul\":19555:19749   */\n      swap3\n      swap2\n      pop\n      pop\n      jump\t// out\n\n    auxdata: 0xa264697066735822122090685ea2ae2d0b4753a06a349c35a1c938ae0ae8f8ee14b2efdf2ccb1d8fe79464736f6c634300081e0033\n}\n",
				"bytecode": {
					"linkReferences": {},
					"object": "6080604052348015600e575f5ffd5b50335f5f6101000a81548173ffffffffffffffffffffffffffffffffffffffff021916908373ffffffffffffffffffffffffffffffffffffffff1602179055506116eb8061005b5f395ff3fe60806040526004361061003e575f3560e01c806360e5f3bb14610042578063772aaeb51461006a578063c5ebeaec14610080578063d5503d5f146100a8575b5f5ffd5b34801561004d575f5ffd5b5061006860048036038101906100639190610df1565b6100b2565b005b348015610075575f5ffd5b5061007e610258565b005b34801561008b575f5ffd5b506100a660048036038101906100a19190610e5d565b6105a5565b005b6100b06108f4565b005b5f5f9054906101000a900473ffffffffffffffffffffffffffffffffffffffff1673ffffffffffffffffffffffffffffffffffffffff163373ffffffffffffffffffffffffffffffffffffffff1614610140576040517f08c379a000000000000000000000000000000000000000000000000000000000815260040161013790610ee2565b60405180910390fd5b5f60015f8573ffffffffffffffffffffffffffffffffffffffff1673ffffffffffffffffffffffffffffffffffffffff1681526020019081526020015f205f0154146101c1576040517f08c379a00000000000000000000000000000000000000000000000000000000081526004016101b890610f4a565b60405180910390fd5b8160015f8573ffffffffffffffffffffffffffffffffffffffff1673ffffffffffffffffffffffffffffffffffffffff1681526020019081526020015f205f01819055508060015f8573ffffffffffffffffffffffffffffffffffffffff1673ffffffffffffffffffffffffffffffffffffffff1681526020019081526020015f206001019081610252919061116f565b50505050565b5f5f9054906101000a900473ffffffffffffffffffffffffffffffffffffffff1673ffffffffffffffffffffffffffffffffffffffff163373ffffffffffffffffffffffffffffffffffffffff16036102e6576040517f08c379a00000000000000000000000000000000000000000000000000000000081526004016102dd90611288565b60405180910390fd5b5f60015f3373ffffffffffffffffffffffffffffffffffffffff1673ffffffffffffffffffffffffffffffffffffffff1681526020019081526020015f205f015411610367576040517f08c379a000000000000000000000000000000000000000000000000000000000815260040161035e906112f0565b60405180910390fd5b60015f3373ffffffffffffffffffffffffffffffffffffffff1673ffffffffffffffffffffffffffffffffffffffff1681526020019081526020015f206003015f9054906101000a900460ff166103f3576040517f08c379a00000000000000000000000000000000000000000000000000000000081526004016103ea9061137e565b60405180910390fd5b5f42905060015f3373ffffffffffffffffffffffffffffffffffffffff1673ffffffffffffffffffffffffffffffffffffffff1681526020019081526020015f206004016001015481126104e1576001805f3373ffffffffffffffffffffffffffffffffffffffff1673ffffffffffffffffffffffffffffffffffffffff1681526020019081526020015f2060030160016101000a81548160ff02191690831515021790555061c35060015f3373ffffffffffffffffffffffffffffffffffffffff1673ffffffffffffffffffffffffffffffffffffffff1681526020019081526020015f20600201819055505b5f60015f3373ffffffffffffffffffffffffffffffffffffffff1673ffffffffffffffffffffffffffffffffffffffff1681526020019081526020015f206003015f6101000a81548160ff02191690831515021790555060405180604001604052805f81526020015f81525060015f3373ffffffffffffffffffffffffffffffffffffffff1673ffffffffffffffffffffffffffffffffffffffff1681526020019081526020015f206004015f820151815f01556020820151816001015590505050565b5f5f9054906101000a900473ffffffffffffffffffffffffffffffffffffffff1673ffffffffffffffffffffffffffffffffffffffff163373ffffffffffffffffffffffffffffffffffffffff1603610633576040517f08c379a000000000000000000000000000000000000000000000000000000000815260040161062a90611288565b60405180910390fd5b5f60015f3373ffffffffffffffffffffffffffffffffffffffff1673ffffffffffffffffffffffffffffffffffffffff1681526020019081526020015f205f0154116106b4576040517f08c379a00000000000000000000000000000000000000000000000000000000081526004016106ab906112f0565b60405180910390fd5b5f151560015f3373ffffffffffffffffffffffffffffffffffffffff1673ffffffffffffffffffffffffffffffffffffffff1681526020019081526020015f2060030160019054906101000a900460ff16151514610747576040517f08c379a000000000000000000000000000000000000000000000000000000000815260040161073e9061140c565b60405180910390fd5b60015f3373ffffffffffffffffffffffffffffffffffffffff1673ffffffffffffffffffffffffffffffffffffffff1681526020019081526020015f206003015f9054906101000a900460ff16156107d4576040517f08c379a00000000000000000000000000000000000000000000000000000000081526004016107cb9061149a565b60405180910390fd5b6001805f3373ffffffffffffffffffffffffffffffffffffffff1673ffffffffffffffffffffffffffffffffffffffff1681526020019081526020015f206003015f6101000a81548160ff0219169083151502179055506040518060400160405280828152602001621275004261084b91906114e5565b81525060015f3373ffffffffffffffffffffffffffffffffffffffff1673ffffffffffffffffffffffffffffffffffffffff1681526020019081526020015f206004015f820151815f0155602082015181600101559050503373ffffffffffffffffffffffffffffffffffffffff167f7534124779d4d1eaf9cabba5f94b2b281856aba81c295cde4c9e69483b04b8cc826040516108e99190611527565b60405180910390a250565b5f5f9054906101000a900473ffffffffffffffffffffffffffffffffffffffff1673ffffffffffffffffffffffffffffffffffffffff163373ffffffffffffffffffffffffffffffffffffffff1603610982576040517f08c379a000000000000000000000000000000000000000000000000000000000815260040161097990611288565b60405180910390fd5b5f60015f3373ffffffffffffffffffffffffffffffffffffffff1673ffffffffffffffffffffffffffffffffffffffff1681526020019081526020015f205f015411610a03576040517f08c379a00000000000000000000000000000000000000000000000000000000081526004016109fa906112f0565b60405180910390fd5b6001151560015f3373ffffffffffffffffffffffffffffffffffffffff1673ffffffffffffffffffffffffffffffffffffffff1681526020019081526020015f2060030160019054906101000a900460ff16151514610a97576040517f08c379a0000000000000000000000000000000000000000000000000000000008152600401610a8e906115d6565b60405180910390fd5b3460015f3373ffffffffffffffffffffffffffffffffffffffff1673ffffffffffffffffffffffffffffffffffffffff1681526020019081526020015f206002015414610b19576040517f08c379a0000000000000000000000000000000000000000000000000000000008152600401610b1090611664565b60405180910390fd5b3460015f3373ffffffffffffffffffffffffffffffffffffffff1673ffffffffffffffffffffffffffffffffffffffff1681526020019081526020015f206002015f828254610b689190611682565b925050819055505f60015f3373ffffffffffffffffffffffffffffffffffffffff1673ffffffffffffffffffffffffffffffffffffffff1681526020019081526020015f2060030160016101000a81548160ff0219169083151502179055503373ffffffffffffffffffffffffffffffffffffffff167fa7d0b298a569865ccc0fafa222e634caa4cce3d90be03818417feea98025a81e34604051610c0d9190611527565b60405180910390a2565b5f604051905090565b5f5ffd5b5f5ffd5b5f73ffffffffffffffffffffffffffffffffffffffff82169050919050565b5f610c5182610c28565b9050919050565b610c6181610c47565b8114610c6b575f5ffd5b50565b5f81359050610c7c81610c58565b92915050565b5f819050919050565b610c9481610c82565b8114610c9e575f5ffd5b50565b5f81359050610caf81610c8b565b92915050565b5f5ffd5b5f5ffd5b5f601f19601f8301169050919050565b7f4e487b71000000000000000000000000000000000000000000000000000000005f52604160045260245ffd5b610d0382610cbd565b810181811067ffffffffffffffff82111715610d2257610d21610ccd565b5b80604052505050565b5f610d34610c17565b9050610d408282610cfa565b919050565b5f67ffffffffffffffff821115610d5f57610d5e610ccd565b5b610d6882610cbd565b9050602081019050919050565b828183375f83830152505050565b5f610d95610d9084610d45565b610d2b565b905082815260208101848484011115610db157610db0610cb9565b5b610dbc848285610d75565b509392505050565b5f82601f830112610dd857610dd7610cb5565b5b8135610de8848260208601610d83565b91505092915050565b5f5f5f60608486031215610e0857610e07610c20565b5b5f610e1586828701610c6e565b9350506020610e2686828701610ca1565b925050604084013567ffffffffffffffff811115610e4757610e46610c24565b5b610e5386828701610dc4565b9150509250925092565b5f60208284031215610e7257610e71610c20565b5b5f610e7f84828501610ca1565b91505092915050565b5f82825260208201905092915050565b7f596f7520617265206e6f742061206c696272617269616e2100000000000000005f82015250565b5f610ecc601883610e88565b9150610ed782610e98565b602082019050919050565b5f6020820190508181035f830152610ef981610ec0565b9050919050565b7f53747564656e7420616c726561647920656e726f6c6c656421000000000000005f82015250565b5f610f34601983610e88565b9150610f3f82610f00565b602082019050919050565b5f6020820190508181035f830152610f6181610f28565b9050919050565b5f81519050919050565b7f4e487b71000000000000000000000000000000000000000000000000000000005f52602260045260245ffd5b5f6002820490506001821680610fb657607f821691505b602082108103610fc957610fc8610f72565b5b50919050565b5f819050815f5260205f209050919050565b5f6020601f8301049050919050565b5f82821b905092915050565b5f6008830261102b7fffffffffffffffffffffffffffffffffffffffffffffffffffffffffffffffff82610ff0565b6110358683610ff0565b95508019841693508086168417925050509392505050565b5f819050919050565b5f61107061106b61106684610c82565b61104d565b610c82565b9050919050565b5f819050919050565b61108983611056565b61109d61109582611077565b848454610ffc565b825550505050565b5f5f905090565b6110b46110a5565b6110bf818484611080565b505050565b5b818110156110e2576110d75f826110ac565b6001810190506110c5565b5050565b601f821115611127576110f881610fcf565b61110184610fe1565b81016020851015611110578190505b61112461111c85610fe1565b8301826110c4565b50505b505050565b5f82821c905092915050565b5f6111475f198460080261112c565b1980831691505092915050565b5f61115f8383611138565b9150826002028217905092915050565b61117882610f68565b67ffffffffffffffff81111561119157611190610ccd565b5b61119b8254610f9f565b6111a68282856110e6565b5f60209050601f8311600181146111d7575f84156111c5578287015190505b6111cf8582611154565b865550611236565b601f1984166111e586610fcf565b5f5b8281101561120c578489015182556001820191506020850194506020810190506111e7565b868310156112295784890151611225601f891682611138565b8355505b6001600288020188555050505b505050505050565b7f596f7520617265206e6f7420612073747564656e7421000000000000000000005f82015250565b5f611272601683610e88565b915061127d8261123e565b602082019050919050565b5f6020820190508181035f83015261129f81611266565b9050919050565b7f596f7520617265206e6f742079657420656e726f6c6c656421000000000000005f82015250565b5f6112da601983610e88565b91506112e5826112a6565b602082019050919050565b5f6020820190508181035f830152611307816112ce565b9050919050565b7f596f752068617665206e6f7420626f72726f776564206120626f6f6b207965745f8201527f2100000000000000000000000000000000000000000000000000000000000000602082015250565b5f611368602183610e88565b91506113738261130e565b604082019050919050565b5f6020820190508181035f8301526113958161135c565b9050919050565b7f596f752068617665206120486f6c64204f726465722e204e6f7420616c6c6f775f8201527f656420746f20626f72726f772100000000000000000000000000000000000000602082015250565b5f6113f6602d83610e88565b91506114018261139c565b604082019050919050565b5f6020820190508181035f830152611423816113ea565b9050919050565b7f596f7520616c726561647920626f72726f7765642e204e6f7420616c6c6f77655f8201527f6420746f20626f72726f77206d6f726521000000000000000000000000000000602082015250565b5f611484603183610e88565b915061148f8261142a565b604082019050919050565b5f6020820190508181035f8301526114b181611478565b9050919050565b7f4e487b71000000000000000000000000000000000000000000000000000000005f52601160045260245ffd5b5f6114ef82610c82565b91506114fa83610c82565b9250828201905080821115611512576115116114b8565b5b92915050565b61152181610c82565b82525050565b5f60208201905061153a5f830184611518565b92915050565b7f596f7520646f206e6f742068617665206120486f6c64204f726465722e20596f5f8201527f7520646f206e6f74206861766520616e206f75747374616e64696e672062616c60208201527f616e636500000000000000000000000000000000000000000000000000000000604082015250565b5f6115c0604483610e88565b91506115cb82611540565b606082019050919050565b5f6020820190508181035f8301526115ed816115b4565b9050919050565b7f506c65617365207061792074686520657861637420616d6f756e74206f6620745f8201527f68652066696e6500000000000000000000000000000000000000000000000000602082015250565b5f61164e602783610e88565b9150611659826115f4565b604082019050919050565b5f6020820190508181035f83015261167b81611642565b9050919050565b5f61168c82610c82565b915061169783610c82565b92508282039050818111156116af576116ae6114b8565b5b9291505056fea264697066735822122090685ea2ae2d0b4753a06a349c35a1c938ae0ae8f8ee14b2efdf2ccb1d8fe79464736f6c634300081e0033",
					"opcodes": "PUSH1 0x80 PUSH1 0x40 MSTORE CALLVALUE DUP1 ISZERO PUSH1 0xE JUMPI PUSH0 PUSH0 REVERT JUMPDEST POP CALLER PUSH0 PUSH0 PUSH2 0x100 EXP DUP2 SLOAD DUP2 PUSH20 0xFFFFFFFFFFFFFFFFFFFFFFFFFFFFFFFFFFFFFFFF MUL NOT AND SWAP1 DUP4 PUSH20 0xFFFFFFFFFFFFFFFFFFFFFFFFFFFFFFFFFFFFFFFF AND MUL OR SWAP1 SSTORE POP PUSH2 0x16EB DUP1 PUSH2 0x5B PUSH0 CODECOPY PUSH0 RETURN INVALID PUSH1 0x80 PUSH1 0x40 MSTORE PUSH1 0x4 CALLDATASIZE LT PUSH2 0x3E JUMPI PUSH0 CALLDATALOAD PUSH1 0xE0 SHR DUP1 PUSH4 0x60E5F3BB EQ PUSH2 0x42 JUMPI DUP1 PUSH4 0x772AAEB5 EQ PUSH2 0x6A JUMPI DUP1 PUSH4 0xC5EBEAEC EQ PUSH2 0x80 JUMPI DUP1 PUSH4 0xD5503D5F EQ PUSH2 0xA8 JUMPI JUMPDEST PUSH0 PUSH0 REVERT JUMPDEST CALLVALUE DUP1 ISZERO PUSH2 0x4D JUMPI PUSH0 PUSH0 REVERT JUMPDEST POP PUSH2 0x68 PUSH1 0x4 DUP1 CALLDATASIZE SUB DUP2 ADD SWAP1 PUSH2 0x63 SWAP2 SWAP1 PUSH2 0xDF1 JUMP JUMPDEST PUSH2 0xB2 JUMP JUMPDEST STOP JUMPDEST CALLVALUE DUP1 ISZERO PUSH2 0x75 JUMPI PUSH0 PUSH0 REVERT JUMPDEST POP PUSH2 0x7E PUSH2 0x258 JUMP JUMPDEST STOP JUMPDEST CALLVALUE DUP1 ISZERO PUSH2 0x8B JUMPI PUSH0 PUSH0 REVERT JUMPDEST POP PUSH2 0xA6 PUSH1 0x4 DUP1 CALLDATASIZE SUB DUP2 ADD SWAP1 PUSH2 0xA1 SWAP2 SWAP1 PUSH2 0xE5D JUMP JUMPDEST PUSH2 0x5A5 JUMP JUMPDEST STOP JUMPDEST PUSH2 0xB0 PUSH2 0x8F4 JUMP JUMPDEST STOP JUMPDEST PUSH0 PUSH0 SWAP1 SLOAD SWAP1 PUSH2 0x100 EXP SWAP1 DIV PUSH20 0xFFFFFFFFFFFFFFFFFFFFFFFFFFFFFFFFFFFFFFFF AND PUSH20 0xFFFFFFFFFFFFFFFFFFFFFFFFFFFFFFFFFFFFFFFF AND CALLER PUSH20 0xFFFFFFFFFFFFFFFFFFFFFFFFFFFFFFFFFFFFFFFF AND EQ PUSH2 0x140 JUMPI PUSH1 0x40 MLOAD PUSH32 0x8C379A000000000000000000000000000000000000000000000000000000000 DUP2 MSTORE PUSH1 0x4 ADD PUSH2 0x137 SWAP1 PUSH2 0xEE2 JUMP JUMPDEST PUSH1 0x40 MLOAD DUP1 SWAP2 SUB SWAP1 REVERT JUMPDEST PUSH0 PUSH1 0x1 PUSH0 DUP6 PUSH20 0xFFFFFFFFFFFFFFFFFFFFFFFFFFFFFFFFFFFFFFFF AND PUSH20 0xFFFFFFFFFFFFFFFFFFFFFFFFFFFFFFFFFFFFFFFF AND DUP2 MSTORE PUSH1 0x20 ADD SWAP1 DUP2 MSTORE PUSH1 0x20 ADD PUSH0 KECCAK256 PUSH0 ADD SLOAD EQ PUSH2 0x1C1 JUMPI PUSH1 0x40 MLOAD PUSH32 0x8C379A000000000000000000000000000000000000000000000000000000000 DUP2 MSTORE PUSH1 0x4 ADD PUSH2 0x1B8 SWAP1 PUSH2 0xF4A JUMP JUMPDEST PUSH1 0x40 MLOAD DUP1 SWAP2 SUB SWAP1 REVERT JUMPDEST DUP2 PUSH1 0x1 PUSH0 DUP6 PUSH20 0xFFFFFFFFFFFFFFFFFFFFFFFFFFFFFFFFFFFFFFFF AND PUSH20 0xFFFFFFFFFFFFFFFFFFFFFFFFFFFFFFFFFFFFFFFF AND DUP2 MSTORE PUSH1 0x20 ADD SWAP1 DUP2 MSTORE PUSH1 0x20 ADD PUSH0 KECCAK256 PUSH0 ADD DUP2 SWAP1 SSTORE POP DUP1 PUSH1 0x1 PUSH0 DUP6 PUSH20 0xFFFFFFFFFFFFFFFFFFFFFFFFFFFFFFFFFFFFFFFF AND PUSH20 0xFFFFFFFFFFFFFFFFFFFFFFFFFFFFFFFFFFFFFFFF AND DUP2 MSTORE PUSH1 0x20 ADD SWAP1 DUP2 MSTORE PUSH1 0x20 ADD PUSH0 KECCAK256 PUSH1 0x1 ADD SWAP1 DUP2 PUSH2 0x252 SWAP2 SWAP1 PUSH2 0x116F JUMP JUMPDEST POP POP POP POP JUMP JUMPDEST PUSH0 PUSH0 SWAP1 SLOAD SWAP1 PUSH2 0x100 EXP SWAP1 DIV PUSH20 0xFFFFFFFFFFFFFFFFFFFFFFFFFFFFFFFFFFFFFFFF AND PUSH20 0xFFFFFFFFFFFFFFFFFFFFFFFFFFFFFFFFFFFFFFFF AND CALLER PUSH20 0xFFFFFFFFFFFFFFFFFFFFFFFFFFFFFFFFFFFFFFFF AND SUB PUSH2 0x2E6 JUMPI PUSH1 0x40 MLOAD PUSH32 0x8C379A000000000000000000000000000000000000000000000000000000000 DUP2 MSTORE PUSH1 0x4 ADD PUSH2 0x2DD SWAP1 PUSH2 0x1288 JUMP JUMPDEST PUSH1 0x40 MLOAD DUP1 SWAP2 SUB SWAP1 REVERT JUMPDEST PUSH0 PUSH1 0x1 PUSH0 CALLER PUSH20 0xFFFFFFFFFFFFFFFFFFFFFFFFFFFFFFFFFFFFFFFF AND PUSH20 0xFFFFFFFFFFFFFFFFFFFFFFFFFFFFFFFFFFFFFFFF AND DUP2 MSTORE PUSH1 0x20 ADD SWAP1 DUP2 MSTORE PUSH1 0x20 ADD PUSH0 KECCAK256 PUSH0 ADD SLOAD GT PUSH2 0x367 JUMPI PUSH1 0x40 MLOAD PUSH32 0x8C379A000000000000000000000000000000000000000000000000000000000 DUP2 MSTORE PUSH1 0x4 ADD PUSH2 0x35E SWAP1 PUSH2 0x12F0 JUMP JUMPDEST PUSH1 0x40 MLOAD DUP1 SWAP2 SUB SWAP1 REVERT JUMPDEST PUSH1 0x1 PUSH0 CALLER PUSH20 0xFFFFFFFFFFFFFFFFFFFFFFFFFFFFFFFFFFFFFFFF AND PUSH20 0xFFFFFFFFFFFFFFFFFFFFFFFFFFFFFFFFFFFFFFFF AND DUP2 MSTORE PUSH1 0x20 ADD SWAP1 DUP2 MSTORE PUSH1 0x20 ADD PUSH0 KECCAK256 PUSH1 0x3 ADD PUSH0 SWAP1 SLOAD SWAP1 PUSH2 0x100 EXP SWAP1 DIV PUSH1 0xFF AND PUSH2 0x3F3 JUMPI PUSH1 0x40 MLOAD PUSH32 0x8C379A000000000000000000000000000000000000000000000000000000000 DUP2 MSTORE PUSH1 0x4 ADD PUSH2 0x3EA SWAP1 PUSH2 0x137E JUMP JUMPDEST PUSH1 0x40 MLOAD DUP1 SWAP2 SUB SWAP1 REVERT JUMPDEST PUSH0 TIMESTAMP SWAP1 POP PUSH1 0x1 PUSH0 CALLER PUSH20 0xFFFFFFFFFFFFFFFFFFFFFFFFFFFFFFFFFFFFFFFF AND PUSH20 0xFFFFFFFFFFFFFFFFFFFFFFFFFFFFFFFFFFFFFFFF AND DUP2 MSTORE PUSH1 0x20 ADD SWAP1 DUP2 MSTORE PUSH1 0x20 ADD PUSH0 KECCAK256 PUSH1 0x4 ADD PUSH1 0x1 ADD SLOAD DUP2 SLT PUSH2 0x4E1 JUMPI PUSH1 0x1 DUP1 PUSH0 CALLER PUSH20 0xFFFFFFFFFFFFFFFFFFFFFFFFFFFFFFFFFFFFFFFF AND PUSH20 0xFFFFFFFFFFFFFFFFFFFFFFFFFFFFFFFFFFFFFFFF AND DUP2 MSTORE PUSH1 0x20 ADD SWAP1 DUP2 MSTORE PUSH1 0x20 ADD PUSH0 KECCAK256 PUSH1 0x3 ADD PUSH1 0x1 PUSH2 0x100 EXP DUP2 SLOAD DUP2 PUSH1 0xFF MUL NOT AND SWAP1 DUP4 ISZERO ISZERO MUL OR SWAP1 SSTORE POP PUSH2 0xC350 PUSH1 0x1 PUSH0 CALLER PUSH20 0xFFFFFFFFFFFFFFFFFFFFFFFFFFFFFFFFFFFFFFFF AND PUSH20 0xFFFFFFFFFFFFFFFFFFFFFFFFFFFFFFFFFFFFFFFF AND DUP2 MSTORE PUSH1 0x20 ADD SWAP1 DUP2 MSTORE PUSH1 0x20 ADD PUSH0 KECCAK256 PUSH1 0x2 ADD DUP2 SWAP1 SSTORE POP JUMPDEST PUSH0 PUSH1 0x1 PUSH0 CALLER PUSH20 0xFFFFFFFFFFFFFFFFFFFFFFFFFFFFFFFFFFFFFFFF AND PUSH20 0xFFFFFFFFFFFFFFFFFFFFFFFFFFFFFFFFFFFFFFFF AND DUP2 MSTORE PUSH1 0x20 ADD SWAP1 DUP2 MSTORE PUSH1 0x20 ADD PUSH0 KECCAK256 PUSH1 0x3 ADD PUSH0 PUSH2 0x100 EXP DUP2 SLOAD DUP2 PUSH1 0xFF MUL NOT AND SWAP1 DUP4 ISZERO ISZERO MUL OR SWAP1 SSTORE POP PUSH1 0x40 MLOAD DUP1 PUSH1 0x40 ADD PUSH1 0x40 MSTORE DUP1 PUSH0 DUP2 MSTORE PUSH1 0x20 ADD PUSH0 DUP2 MSTORE POP PUSH1 0x1 PUSH0 CALLER PUSH20 0xFFFFFFFFFFFFFFFFFFFFFFFFFFFFFFFFFFFFFFFF AND PUSH20 0xFFFFFFFFFFFFFFFFFFFFFFFFFFFFFFFFFFFFFFFF AND DUP2 MSTORE PUSH1 0x20 ADD SWAP1 DUP2 MSTORE PUSH1 0x20 ADD PUSH0 KECCAK256 PUSH1 0x4 ADD PUSH0 DUP3 ADD MLOAD DUP2 PUSH0 ADD SSTORE PUSH1 0x20 DUP3 ADD MLOAD DUP2 PUSH1 0x1 ADD SSTORE SWAP1 POP POP POP JUMP JUMPDEST PUSH0 PUSH0 SWAP1 SLOAD SWAP1 PUSH2 0x100 EXP SWAP1 DIV PUSH20 0xFFFFFFFFFFFFFFFFFFFFFFFFFFFFFFFFFFFFFFFF AND PUSH20 0xFFFFFFFFFFFFFFFFFFFFFFFFFFFFFFFFFFFFFFFF AND CALLER PUSH20 0xFFFFFFFFFFFFFFFFFFFFFFFFFFFFFFFFFFFFFFFF AND SUB PUSH2 0x633 JUMPI PUSH1 0x40 MLOAD PUSH32 0x8C379A000000000000000000000000000000000000000000000000000000000 DUP2 MSTORE PUSH1 0x4 ADD PUSH2 0x62A SWAP1 PUSH2 0x1288 JUMP JUMPDEST PUSH1 0x40 MLOAD DUP1 SWAP2 SUB SWAP1 REVERT JUMPDEST PUSH0 PUSH1 0x1 PUSH0 CALLER PUSH20 0xFFFFFFFFFFFFFFFFFFFFFFFFFFFFFFFFFFFFFFFF AND PUSH20 0xFFFFFFFFFFFFFFFFFFFFFFFFFFFFFFFFFFFFFFFF AND DUP2 MSTORE PUSH1 0x20 ADD SWAP1 DUP2 MSTORE PUSH1 0x20 ADD PUSH0 KECCAK256 PUSH0 ADD SLOAD GT PUSH2 0x6B4 JUMPI PUSH1 0x40 MLOAD PUSH32 0x8C379A000000000000000000000000000000000000000000000000000000000 DUP2 MSTORE PUSH1 0x4 ADD PUSH2 0x6AB SWAP1 PUSH2 0x12F0 JUMP JUMPDEST PUSH1 0x40 MLOAD DUP1 SWAP2 SUB SWAP1 REVERT JUMPDEST PUSH0 ISZERO ISZERO PUSH1 0x1 PUSH0 CALLER PUSH20 0xFFFFFFFFFFFFFFFFFFFFFFFFFFFFFFFFFFFFFFFF AND PUSH20 0xFFFFFFFFFFFFFFFFFFFFFFFFFFFFFFFFFFFFFFFF AND DUP2 MSTORE PUSH1 0x20 ADD SWAP1 DUP2 MSTORE PUSH1 0x20 ADD PUSH0 KECCAK256 PUSH1 0x3 ADD PUSH1 0x1 SWAP1 SLOAD SWAP1 PUSH2 0x100 EXP SWAP1 DIV PUSH1 0xFF AND ISZERO ISZERO EQ PUSH2 0x747 JUMPI PUSH1 0x40 MLOAD PUSH32 0x8C379A000000000000000000000000000000000000000000000000000000000 DUP2 MSTORE PUSH1 0x4 ADD PUSH2 0x73E SWAP1 PUSH2 0x140C JUMP JUMPDEST PUSH1 0x40 MLOAD DUP1 SWAP2 SUB SWAP1 REVERT JUMPDEST PUSH1 0x1 PUSH0 CALLER PUSH20 0xFFFFFFFFFFFFFFFFFFFFFFFFFFFFFFFFFFFFFFFF AND PUSH20 0xFFFFFFFFFFFFFFFFFFFFFFFFFFFFFFFFFFFFFFFF AND DUP2 MSTORE PUSH1 0x20 ADD SWAP1 DUP2 MSTORE PUSH1 0x20 ADD PUSH0 KECCAK256 PUSH1 0x3 ADD PUSH0 SWAP1 SLOAD SWAP1 PUSH2 0x100 EXP SWAP1 DIV PUSH1 0xFF AND ISZERO PUSH2 0x7D4 JUMPI PUSH1 0x40 MLOAD PUSH32 0x8C379A000000000000000000000000000000000000000000000000000000000 DUP2 MSTORE PUSH1 0x4 ADD PUSH2 0x7CB SWAP1 PUSH2 0x149A JUMP JUMPDEST PUSH1 0x40 MLOAD DUP1 SWAP2 SUB SWAP1 REVERT JUMPDEST PUSH1 0x1 DUP1 PUSH0 CALLER PUSH20 0xFFFFFFFFFFFFFFFFFFFFFFFFFFFFFFFFFFFFFFFF AND PUSH20 0xFFFFFFFFFFFFFFFFFFFFFFFFFFFFFFFFFFFFFFFF AND DUP2 MSTORE PUSH1 0x20 ADD SWAP1 DUP2 MSTORE PUSH1 0x20 ADD PUSH0 KECCAK256 PUSH1 0x3 ADD PUSH0 PUSH2 0x100 EXP DUP2 SLOAD DUP2 PUSH1 0xFF MUL NOT AND SWAP1 DUP4 ISZERO ISZERO MUL OR SWAP1 SSTORE POP PUSH1 0x40 MLOAD DUP1 PUSH1 0x40 ADD PUSH1 0x40 MSTORE DUP1 DUP3 DUP2 MSTORE PUSH1 0x20 ADD PUSH3 0x127500 TIMESTAMP PUSH2 0x84B SWAP2 SWAP1 PUSH2 0x14E5 JUMP JUMPDEST DUP2 MSTORE POP PUSH1 0x1 PUSH0 CALLER PUSH20 0xFFFFFFFFFFFFFFFFFFFFFFFFFFFFFFFFFFFFFFFF AND PUSH20 0xFFFFFFFFFFFFFFFFFFFFFFFFFFFFFFFFFFFFFFFF AND DUP2 MSTORE PUSH1 0x20 ADD SWAP1 DUP2 MSTORE PUSH1 0x20 ADD PUSH0 KECCAK256 PUSH1 0x4 ADD PUSH0 DUP3 ADD MLOAD DUP2 PUSH0 ADD SSTORE PUSH1 0x20 DUP3 ADD MLOAD DUP2 PUSH1 0x1 ADD SSTORE SWAP1 POP POP CALLER PUSH20 0xFFFFFFFFFFFFFFFFFFFFFFFFFFFFFFFFFFFFFFFF AND PUSH32 0x7534124779D4D1EAF9CABBA5F94B2B281856ABA81C295CDE4C9E69483B04B8CC DUP3 PUSH1 0x40 MLOAD PUSH2 0x8E9 SWAP2 SWAP1 PUSH2 0x1527 JUMP JUMPDEST PUSH1 0x40 MLOAD DUP1 SWAP2 SUB SWAP1 LOG2 POP JUMP JUMPDEST PUSH0 PUSH0 SWAP1 SLOAD SWAP1 PUSH2 0x100 EXP SWAP1 DIV PUSH20 0xFFFFFFFFFFFFFFFFFFFFFFFFFFFFFFFFFFFFFFFF AND PUSH20 0xFFFFFFFFFFFFFFFFFFFFFFFFFFFFFFFFFFFFFFFF AND CALLER PUSH20 0xFFFFFFFFFFFFFFFFFFFFFFFFFFFFFFFFFFFFFFFF AND SUB PUSH2 0x982 JUMPI PUSH1 0x40 MLOAD PUSH32 0x8C379A000000000000000000000000000000000000000000000000000000000 DUP2 MSTORE PUSH1 0x4 ADD PUSH2 0x979 SWAP1 PUSH2 0x1288 JUMP JUMPDEST PUSH1 0x40 MLOAD DUP1 SWAP2 SUB SWAP1 REVERT JUMPDEST PUSH0 PUSH1 0x1 PUSH0 CALLER PUSH20 0xFFFFFFFFFFFFFFFFFFFFFFFFFFFFFFFFFFFFFFFF AND PUSH20 0xFFFFFFFFFFFFFFFFFFFFFFFFFFFFFFFFFFFFFFFF AND DUP2 MSTORE PUSH1 0x20 ADD SWAP1 DUP2 MSTORE PUSH1 0x20 ADD PUSH0 KECCAK256 PUSH0 ADD SLOAD GT PUSH2 0xA03 JUMPI PUSH1 0x40 MLOAD PUSH32 0x8C379A000000000000000000000000000000000000000000000000000000000 DUP2 MSTORE PUSH1 0x4 ADD PUSH2 0x9FA SWAP1 PUSH2 0x12F0 JUMP JUMPDEST PUSH1 0x40 MLOAD DUP1 SWAP2 SUB SWAP1 REVERT JUMPDEST PUSH1 0x1 ISZERO ISZERO PUSH1 0x1 PUSH0 CALLER PUSH20 0xFFFFFFFFFFFFFFFFFFFFFFFFFFFFFFFFFFFFFFFF AND PUSH20 0xFFFFFFFFFFFFFFFFFFFFFFFFFFFFFFFFFFFFFFFF AND DUP2 MSTORE PUSH1 0x20 ADD SWAP1 DUP2 MSTORE PUSH1 0x20 ADD PUSH0 KECCAK256 PUSH1 0x3 ADD PUSH1 0x1 SWAP1 SLOAD SWAP1 PUSH2 0x100 EXP SWAP1 DIV PUSH1 0xFF AND ISZERO ISZERO EQ PUSH2 0xA97 JUMPI PUSH1 0x40 MLOAD PUSH32 0x8C379A000000000000000000000000000000000000000000000000000000000 DUP2 MSTORE PUSH1 0x4 ADD PUSH2 0xA8E SWAP1 PUSH2 0x15D6 JUMP JUMPDEST PUSH1 0x40 MLOAD DUP1 SWAP2 SUB SWAP1 REVERT JUMPDEST CALLVALUE PUSH1 0x1 PUSH0 CALLER PUSH20 0xFFFFFFFFFFFFFFFFFFFFFFFFFFFFFFFFFFFFFFFF AND PUSH20 0xFFFFFFFFFFFFFFFFFFFFFFFFFFFFFFFFFFFFFFFF AND DUP2 MSTORE PUSH1 0x20 ADD SWAP1 DUP2 MSTORE PUSH1 0x20 ADD PUSH0 KECCAK256 PUSH1 0x2 ADD SLOAD EQ PUSH2 0xB19 JUMPI PUSH1 0x40 MLOAD PUSH32 0x8C379A000000000000000000000000000000000000000000000000000000000 DUP2 MSTORE PUSH1 0x4 ADD PUSH2 0xB10 SWAP1 PUSH2 0x1664 JUMP JUMPDEST PUSH1 0x40 MLOAD DUP1 SWAP2 SUB SWAP1 REVERT JUMPDEST CALLVALUE PUSH1 0x1 PUSH0 CALLER PUSH20 0xFFFFFFFFFFFFFFFFFFFFFFFFFFFFFFFFFFFFFFFF AND PUSH20 0xFFFFFFFFFFFFFFFFFFFFFFFFFFFFFFFFFFFFFFFF AND DUP2 MSTORE PUSH1 0x20 ADD SWAP1 DUP2 MSTORE PUSH1 0x20 ADD PUSH0 KECCAK256 PUSH1 0x2 ADD PUSH0 DUP3 DUP3 SLOAD PUSH2 0xB68 SWAP2 SWAP1 PUSH2 0x1682 JUMP JUMPDEST SWAP3 POP POP DUP2 SWAP1 SSTORE POP PUSH0 PUSH1 0x1 PUSH0 CALLER PUSH20 0xFFFFFFFFFFFFFFFFFFFFFFFFFFFFFFFFFFFFFFFF AND PUSH20 0xFFFFFFFFFFFFFFFFFFFFFFFFFFFFFFFFFFFFFFFF AND DUP2 MSTORE PUSH1 0x20 ADD SWAP1 DUP2 MSTORE PUSH1 0x20 ADD PUSH0 KECCAK256 PUSH1 0x3 ADD PUSH1 0x1 PUSH2 0x100 EXP DUP2 SLOAD DUP2 PUSH1 0xFF MUL NOT AND SWAP1 DUP4 ISZERO ISZERO MUL OR SWAP1 SSTORE POP CALLER PUSH20 0xFFFFFFFFFFFFFFFFFFFFFFFFFFFFFFFFFFFFFFFF AND PUSH32 0xA7D0B298A569865CCC0FAFA222E634CAA4CCE3D90BE03818417FEEA98025A81E CALLVALUE PUSH1 0x40 MLOAD PUSH2 0xC0D SWAP2 SWAP1 PUSH2 0x1527 JUMP JUMPDEST PUSH1 0x40 MLOAD DUP1 SWAP2 SUB SWAP1 LOG2 JUMP JUMPDEST PUSH0 PUSH1 0x40 MLOAD SWAP1 POP SWAP1 JUMP JUMPDEST PUSH0 PUSH0 REVERT JUMPDEST PUSH0 PUSH0 REVERT JUMPDEST PUSH0 PUSH20 0xFFFFFFFFFFFFFFFFFFFFFFFFFFFFFFFFFFFFFFFF DUP3 AND SWAP1 POP SWAP2 SWAP1 POP JUMP JUMPDEST PUSH0 PUSH2 0xC51 DUP3 PUSH2 0xC28 JUMP JUMPDEST SWAP1 POP SWAP2 SWAP1 POP JUMP JUMPDEST PUSH2 0xC61 DUP2 PUSH2 0xC47 JUMP JUMPDEST DUP2 EQ PUSH2 0xC6B JUMPI PUSH0 PUSH0 REVERT JUMPDEST POP JUMP JUMPDEST PUSH0 DUP2 CALLDATALOAD SWAP1 POP PUSH2 0xC7C DUP2 PUSH2 0xC58 JUMP JUMPDEST SWAP3 SWAP2 POP POP JUMP JUMPDEST PUSH0 DUP2 SWAP1 POP SWAP2 SWAP1 POP JUMP JUMPDEST PUSH2 0xC94 DUP2 PUSH2 0xC82 JUMP JUMPDEST DUP2 EQ PUSH2 0xC9E JUMPI PUSH0 PUSH0 REVERT JUMPDEST POP JUMP JUMPDEST PUSH0 DUP2 CALLDATALOAD SWAP1 POP PUSH2 0xCAF DUP2 PUSH2 0xC8B JUMP JUMPDEST SWAP3 SWAP2 POP POP JUMP JUMPDEST PUSH0 PUSH0 REVERT JUMPDEST PUSH0 PUSH0 REVERT JUMPDEST PUSH0 PUSH1 0x1F NOT PUSH1 0x1F DUP4 ADD AND SWAP1 POP SWAP2 SWAP1 POP JUMP JUMPDEST PUSH32 0x4E487B7100000000000000000000000000000000000000000000000000000000 PUSH0 MSTORE PUSH1 0x41 PUSH1 0x4 MSTORE PUSH1 0x24 PUSH0 REVERT JUMPDEST PUSH2 0xD03 DUP3 PUSH2 0xCBD JUMP JUMPDEST DUP2 ADD DUP2 DUP2 LT PUSH8 0xFFFFFFFFFFFFFFFF DUP3 GT OR ISZERO PUSH2 0xD22 JUMPI PUSH2 0xD21 PUSH2 0xCCD JUMP JUMPDEST JUMPDEST DUP1 PUSH1 0x40 MSTORE POP POP POP JUMP JUMPDEST PUSH0 PUSH2 0xD34 PUSH2 0xC17 JUMP JUMPDEST SWAP1 POP PUSH2 0xD40 DUP3 DUP3 PUSH2 0xCFA JUMP JUMPDEST SWAP2 SWAP1 POP JUMP JUMPDEST PUSH0 PUSH8 0xFFFFFFFFFFFFFFFF DUP3 GT ISZERO PUSH2 0xD5F JUMPI PUSH2 0xD5E PUSH2 0xCCD JUMP JUMPDEST JUMPDEST PUSH2 0xD68 DUP3 PUSH2 0xCBD JUMP JUMPDEST SWAP1 POP PUSH1 0x20 DUP2 ADD SWAP1 POP SWAP2 SWAP1 POP JUMP JUMPDEST DUP3 DUP2 DUP4 CALLDATACOPY PUSH0 DUP4 DUP4 ADD MSTORE POP POP POP JUMP JUMPDEST PUSH0 PUSH2 0xD95 PUSH2 0xD90 DUP5 PUSH2 0xD45 JUMP JUMPDEST PUSH2 0xD2B JUMP JUMPDEST SWAP1 POP DUP3 DUP2 MSTORE PUSH1 0x20 DUP2 ADD DUP5 DUP5 DUP5 ADD GT ISZERO PUSH2 0xDB1 JUMPI PUSH2 0xDB0 PUSH2 0xCB9 JUMP JUMPDEST JUMPDEST PUSH2 0xDBC DUP5 DUP3 DUP6 PUSH2 0xD75 JUMP JUMPDEST POP SWAP4 SWAP3 POP POP POP JUMP JUMPDEST PUSH0 DUP3 PUSH1 0x1F DUP4 ADD SLT PUSH2 0xDD8 JUMPI PUSH2 0xDD7 PUSH2 0xCB5 JUMP JUMPDEST JUMPDEST DUP2 CALLDATALOAD PUSH2 0xDE8 DUP5 DUP3 PUSH1 0x20 DUP7 ADD PUSH2 0xD83 JUMP JUMPDEST SWAP2 POP POP SWAP3 SWAP2 POP POP JUMP JUMPDEST PUSH0 PUSH0 PUSH0 PUSH1 0x60 DUP5 DUP7 SUB SLT ISZERO PUSH2 0xE08 JUMPI PUSH2 0xE07 PUSH2 0xC20 JUMP JUMPDEST JUMPDEST PUSH0 PUSH2 0xE15 DUP7 DUP3 DUP8 ADD PUSH2 0xC6E JUMP JUMPDEST SWAP4 POP POP PUSH1 0x20 PUSH2 0xE26 DUP7 DUP3 DUP8 ADD PUSH2 0xCA1 JUMP JUMPDEST SWAP3 POP POP PUSH1 0x40 DUP5 ADD CALLDATALOAD PUSH8 0xFFFFFFFFFFFFFFFF DUP2 GT ISZERO PUSH2 0xE47 JUMPI PUSH2 0xE46 PUSH2 0xC24 JUMP JUMPDEST JUMPDEST PUSH2 0xE53 DUP7 DUP3 DUP8 ADD PUSH2 0xDC4 JUMP JUMPDEST SWAP2 POP POP SWAP3 POP SWAP3 POP SWAP3 JUMP JUMPDEST PUSH0 PUSH1 0x20 DUP3 DUP5 SUB SLT ISZERO PUSH2 0xE72 JUMPI PUSH2 0xE71 PUSH2 0xC20 JUMP JUMPDEST JUMPDEST PUSH0 PUSH2 0xE7F DUP5 DUP3 DUP6 ADD PUSH2 0xCA1 JUMP JUMPDEST SWAP2 POP POP SWAP3 SWAP2 POP POP JUMP JUMPDEST PUSH0 DUP3 DUP3 MSTORE PUSH1 0x20 DUP3 ADD SWAP1 POP SWAP3 SWAP2 POP POP JUMP JUMPDEST PUSH32 0x596F7520617265206E6F742061206C696272617269616E210000000000000000 PUSH0 DUP3 ADD MSTORE POP JUMP JUMPDEST PUSH0 PUSH2 0xECC PUSH1 0x18 DUP4 PUSH2 0xE88 JUMP JUMPDEST SWAP2 POP PUSH2 0xED7 DUP3 PUSH2 0xE98 JUMP JUMPDEST PUSH1 0x20 DUP3 ADD SWAP1 POP SWAP2 SWAP1 POP JUMP JUMPDEST PUSH0 PUSH1 0x20 DUP3 ADD SWAP1 POP DUP2 DUP2 SUB PUSH0 DUP4 ADD MSTORE PUSH2 0xEF9 DUP2 PUSH2 0xEC0 JUMP JUMPDEST SWAP1 POP SWAP2 SWAP1 POP JUMP JUMPDEST PUSH32 0x53747564656E7420616C726561647920656E726F6C6C65642100000000000000 PUSH0 DUP3 ADD MSTORE POP JUMP JUMPDEST PUSH0 PUSH2 0xF34 PUSH1 0x19 DUP4 PUSH2 0xE88 JUMP JUMPDEST SWAP2 POP PUSH2 0xF3F DUP3 PUSH2 0xF00 JUMP JUMPDEST PUSH1 0x20 DUP3 ADD SWAP1 POP SWAP2 SWAP1 POP JUMP JUMPDEST PUSH0 PUSH1 0x20 DUP3 ADD SWAP1 POP DUP2 DUP2 SUB PUSH0 DUP4 ADD MSTORE PUSH2 0xF61 DUP2 PUSH2 0xF28 JUMP JUMPDEST SWAP1 POP SWAP2 SWAP1 POP JUMP JUMPDEST PUSH0 DUP2 MLOAD SWAP1 POP SWAP2 SWAP1 POP JUMP JUMPDEST PUSH32 0x4E487B7100000000000000000000000000000000000000000000000000000000 PUSH0 MSTORE PUSH1 0x22 PUSH1 0x4 MSTORE PUSH1 0x24 PUSH0 REVERT JUMPDEST PUSH0 PUSH1 0x2 DUP3 DIV SWAP1 POP PUSH1 0x1 DUP3 AND DUP1 PUSH2 0xFB6 JUMPI PUSH1 0x7F DUP3 AND SWAP2 POP JUMPDEST PUSH1 0x20 DUP3 LT DUP2 SUB PUSH2 0xFC9 JUMPI PUSH2 0xFC8 PUSH2 0xF72 JUMP JUMPDEST JUMPDEST POP SWAP2 SWAP1 POP JUMP JUMPDEST PUSH0 DUP2 SWAP1 POP DUP2 PUSH0 MSTORE PUSH1 0x20 PUSH0 KECCAK256 SWAP1 POP SWAP2 SWAP1 POP JUMP JUMPDEST PUSH0 PUSH1 0x20 PUSH1 0x1F DUP4 ADD DIV SWAP1 POP SWAP2 SWAP1 POP JUMP JUMPDEST PUSH0 DUP3 DUP3 SHL SWAP1 POP SWAP3 SWAP2 POP POP JUMP JUMPDEST PUSH0 PUSH1 0x8 DUP4 MUL PUSH2 0x102B PUSH32 0xFFFFFFFFFFFFFFFFFFFFFFFFFFFFFFFFFFFFFFFFFFFFFFFFFFFFFFFFFFFFFFFF DUP3 PUSH2 0xFF0 JUMP JUMPDEST PUSH2 0x1035 DUP7 DUP4 PUSH2 0xFF0 JUMP JUMPDEST SWAP6 POP DUP1 NOT DUP5 AND SWAP4 POP DUP1 DUP7 AND DUP5 OR SWAP3 POP POP POP SWAP4 SWAP3 POP POP POP JUMP JUMPDEST PUSH0 DUP2 SWAP1 POP SWAP2 SWAP1 POP JUMP JUMPDEST PUSH0 PUSH2 0x1070 PUSH2 0x106B PUSH2 0x1066 DUP5 PUSH2 0xC82 JUMP JUMPDEST PUSH2 0x104D JUMP JUMPDEST PUSH2 0xC82 JUMP JUMPDEST SWAP1 POP SWAP2 SWAP1 POP JUMP JUMPDEST PUSH0 DUP2 SWAP1 POP SWAP2 SWAP1 POP JUMP JUMPDEST PUSH2 0x1089 DUP4 PUSH2 0x1056 JUMP JUMPDEST PUSH2 0x109D PUSH2 0x1095 DUP3 PUSH2 0x1077 JUMP JUMPDEST DUP5 DUP5 SLOAD PUSH2 0xFFC JUMP JUMPDEST DUP3 SSTORE POP POP POP POP JUMP JUMPDEST PUSH0 PUSH0 SWAP1 POP SWAP1 JUMP JUMPDEST PUSH2 0x10B4 PUSH2 0x10A5 JUMP JUMPDEST PUSH2 0x10BF DUP2 DUP5 DUP5 PUSH2 0x1080 JUMP JUMPDEST POP POP POP JUMP JUMPDEST JUMPDEST DUP2 DUP2 LT ISZERO PUSH2 0x10E2 JUMPI PUSH2 0x10D7 PUSH0 DUP3 PUSH2 0x10AC JUMP JUMPDEST PUSH1 0x1 DUP2 ADD SWAP1 POP PUSH2 0x10C5 JUMP JUMPDEST POP POP JUMP JUMPDEST PUSH1 0x1F DUP3 GT ISZERO PUSH2 0x1127 JUMPI PUSH2 0x10F8 DUP2 PUSH2 0xFCF JUMP JUMPDEST PUSH2 0x1101 DUP5 PUSH2 0xFE1 JUMP JUMPDEST DUP2 ADD PUSH1 0x20 DUP6 LT ISZERO PUSH2 0x1110 JUMPI DUP2 SWAP1 POP JUMPDEST PUSH2 0x1124 PUSH2 0x111C DUP6 PUSH2 0xFE1 JUMP JUMPDEST DUP4 ADD DUP3 PUSH2 0x10C4 JUMP JUMPDEST POP POP JUMPDEST POP POP POP JUMP JUMPDEST PUSH0 DUP3 DUP3 SHR SWAP1 POP SWAP3 SWAP2 POP POP JUMP JUMPDEST PUSH0 PUSH2 0x1147 PUSH0 NOT DUP5 PUSH1 0x8 MUL PUSH2 0x112C JUMP JUMPDEST NOT DUP1 DUP4 AND SWAP2 POP POP SWAP3 SWAP2 POP POP JUMP JUMPDEST PUSH0 PUSH2 0x115F DUP4 DUP4 PUSH2 0x1138 JUMP JUMPDEST SWAP2 POP DUP3 PUSH1 0x2 MUL DUP3 OR SWAP1 POP SWAP3 SWAP2 POP POP JUMP JUMPDEST PUSH2 0x1178 DUP3 PUSH2 0xF68 JUMP JUMPDEST PUSH8 0xFFFFFFFFFFFFFFFF DUP2 GT ISZERO PUSH2 0x1191 JUMPI PUSH2 0x1190 PUSH2 0xCCD JUMP JUMPDEST JUMPDEST PUSH2 0x119B DUP3 SLOAD PUSH2 0xF9F JUMP JUMPDEST PUSH2 0x11A6 DUP3 DUP3 DUP6 PUSH2 0x10E6 JUMP JUMPDEST PUSH0 PUSH1 0x20 SWAP1 POP PUSH1 0x1F DUP4 GT PUSH1 0x1 DUP2 EQ PUSH2 0x11D7 JUMPI PUSH0 DUP5 ISZERO PUSH2 0x11C5 JUMPI DUP3 DUP8 ADD MLOAD SWAP1 POP JUMPDEST PUSH2 0x11CF DUP6 DUP3 PUSH2 0x1154 JUMP JUMPDEST DUP7 SSTORE POP PUSH2 0x1236 JUMP JUMPDEST PUSH1 0x1F NOT DUP5 AND PUSH2 0x11E5 DUP7 PUSH2 0xFCF JUMP JUMPDEST PUSH0 JUMPDEST DUP3 DUP2 LT ISZERO PUSH2 0x120C JUMPI DUP5 DUP10 ADD MLOAD DUP3 SSTORE PUSH1 0x1 DUP3 ADD SWAP2 POP PUSH1 0x20 DUP6 ADD SWAP5 POP PUSH1 0x20 DUP2 ADD SWAP1 POP PUSH2 0x11E7 JUMP JUMPDEST DUP7 DUP4 LT ISZERO PUSH2 0x1229 JUMPI DUP5 DUP10 ADD MLOAD PUSH2 0x1225 PUSH1 0x1F DUP10 AND DUP3 PUSH2 0x1138 JUMP JUMPDEST DUP4 SSTORE POP JUMPDEST PUSH1 0x1 PUSH1 0x2 DUP9 MUL ADD DUP9 SSTORE POP POP POP JUMPDEST POP POP POP POP POP POP JUMP JUMPDEST PUSH32 0x596F7520617265206E6F7420612073747564656E742100000000000000000000 PUSH0 DUP3 ADD MSTORE POP JUMP JUMPDEST PUSH0 PUSH2 0x1272 PUSH1 0x16 DUP4 PUSH2 0xE88 JUMP JUMPDEST SWAP2 POP PUSH2 0x127D DUP3 PUSH2 0x123E JUMP JUMPDEST PUSH1 0x20 DUP3 ADD SWAP1 POP SWAP2 SWAP1 POP JUMP JUMPDEST PUSH0 PUSH1 0x20 DUP3 ADD SWAP1 POP DUP2 DUP2 SUB PUSH0 DUP4 ADD MSTORE PUSH2 0x129F DUP2 PUSH2 0x1266 JUMP JUMPDEST SWAP1 POP SWAP2 SWAP1 POP JUMP JUMPDEST PUSH32 0x596F7520617265206E6F742079657420656E726F6C6C65642100000000000000 PUSH0 DUP3 ADD MSTORE POP JUMP JUMPDEST PUSH0 PUSH2 0x12DA PUSH1 0x19 DUP4 PUSH2 0xE88 JUMP JUMPDEST SWAP2 POP PUSH2 0x12E5 DUP3 PUSH2 0x12A6 JUMP JUMPDEST PUSH1 0x20 DUP3 ADD SWAP1 POP SWAP2 SWAP1 POP JUMP JUMPDEST PUSH0 PUSH1 0x20 DUP3 ADD SWAP1 POP DUP2 DUP2 SUB PUSH0 DUP4 ADD MSTORE PUSH2 0x1307 DUP2 PUSH2 0x12CE JUMP JUMPDEST SWAP1 POP SWAP2 SWAP1 POP JUMP JUMPDEST PUSH32 0x596F752068617665206E6F7420626F72726F776564206120626F6F6B20796574 PUSH0 DUP3 ADD MSTORE PUSH32 0x2100000000000000000000000000000000000000000000000000000000000000 PUSH1 0x20 DUP3 ADD MSTORE POP JUMP JUMPDEST PUSH0 PUSH2 0x1368 PUSH1 0x21 DUP4 PUSH2 0xE88 JUMP JUMPDEST SWAP2 POP PUSH2 0x1373 DUP3 PUSH2 0x130E JUMP JUMPDEST PUSH1 0x40 DUP3 ADD SWAP1 POP SWAP2 SWAP1 POP JUMP JUMPDEST PUSH0 PUSH1 0x20 DUP3 ADD SWAP1 POP DUP2 DUP2 SUB PUSH0 DUP4 ADD MSTORE PUSH2 0x1395 DUP2 PUSH2 0x135C JUMP JUMPDEST SWAP1 POP SWAP2 SWAP1 POP JUMP JUMPDEST PUSH32 0x596F752068617665206120486F6C64204F726465722E204E6F7420616C6C6F77 PUSH0 DUP3 ADD MSTORE PUSH32 0x656420746F20626F72726F772100000000000000000000000000000000000000 PUSH1 0x20 DUP3 ADD MSTORE POP JUMP JUMPDEST PUSH0 PUSH2 0x13F6 PUSH1 0x2D DUP4 PUSH2 0xE88 JUMP JUMPDEST SWAP2 POP PUSH2 0x1401 DUP3 PUSH2 0x139C JUMP JUMPDEST PUSH1 0x40 DUP3 ADD SWAP1 POP SWAP2 SWAP1 POP JUMP JUMPDEST PUSH0 PUSH1 0x20 DUP3 ADD SWAP1 POP DUP2 DUP2 SUB PUSH0 DUP4 ADD MSTORE PUSH2 0x1423 DUP2 PUSH2 0x13EA JUMP JUMPDEST SWAP1 POP SWAP2 SWAP1 POP JUMP JUMPDEST PUSH32 0x596F7520616C726561647920626F72726F7765642E204E6F7420616C6C6F7765 PUSH0 DUP3 ADD MSTORE PUSH32 0x6420746F20626F72726F77206D6F726521000000000000000000000000000000 PUSH1 0x20 DUP3 ADD MSTORE POP JUMP JUMPDEST PUSH0 PUSH2 0x1484 PUSH1 0x31 DUP4 PUSH2 0xE88 JUMP JUMPDEST SWAP2 POP PUSH2 0x148F DUP3 PUSH2 0x142A JUMP JUMPDEST PUSH1 0x40 DUP3 ADD SWAP1 POP SWAP2 SWAP1 POP JUMP JUMPDEST PUSH0 PUSH1 0x20 DUP3 ADD SWAP1 POP DUP2 DUP2 SUB PUSH0 DUP4 ADD MSTORE PUSH2 0x14B1 DUP2 PUSH2 0x1478 JUMP JUMPDEST SWAP1 POP SWAP2 SWAP1 POP JUMP JUMPDEST PUSH32 0x4E487B7100000000000000000000000000000000000000000000000000000000 PUSH0 MSTORE PUSH1 0x11 PUSH1 0x4 MSTORE PUSH1 0x24 PUSH0 REVERT JUMPDEST PUSH0 PUSH2 0x14EF DUP3 PUSH2 0xC82 JUMP JUMPDEST SWAP2 POP PUSH2 0x14FA DUP4 PUSH2 0xC82 JUMP JUMPDEST SWAP3 POP DUP3 DUP3 ADD SWAP1 POP DUP1 DUP3 GT ISZERO PUSH2 0x1512 JUMPI PUSH2 0x1511 PUSH2 0x14B8 JUMP JUMPDEST JUMPDEST SWAP3 SWAP2 POP POP JUMP JUMPDEST PUSH2 0x1521 DUP2 PUSH2 0xC82 JUMP JUMPDEST DUP3 MSTORE POP POP JUMP JUMPDEST PUSH0 PUSH1 0x20 DUP3 ADD SWAP1 POP PUSH2 0x153A PUSH0 DUP4 ADD DUP5 PUSH2 0x1518 JUMP JUMPDEST SWAP3 SWAP2 POP POP JUMP JUMPDEST PUSH32 0x596F7520646F206E6F742068617665206120486F6C64204F726465722E20596F PUSH0 DUP3 ADD MSTORE PUSH32 0x7520646F206E6F74206861766520616E206F75747374616E64696E672062616C PUSH1 0x20 DUP3 ADD MSTORE PUSH32 0x616E636500000000000000000000000000000000000000000000000000000000 PUSH1 0x40 DUP3 ADD MSTORE POP JUMP JUMPDEST PUSH0 PUSH2 0x15C0 PUSH1 0x44 DUP4 PUSH2 0xE88 JUMP JUMPDEST SWAP2 POP PUSH2 0x15CB DUP3 PUSH2 0x1540 JUMP JUMPDEST PUSH1 0x60 DUP3 ADD SWAP1 POP SWAP2 SWAP1 POP JUMP JUMPDEST PUSH0 PUSH1 0x20 DUP3 ADD SWAP1 POP DUP2 DUP2 SUB PUSH0 DUP4 ADD MSTORE PUSH2 0x15ED DUP2 PUSH2 0x15B4 JUMP JUMPDEST SWAP1 POP SWAP2 SWAP1 POP JUMP JUMPDEST PUSH32 0x506C65617365207061792074686520657861637420616D6F756E74206F662074 PUSH0 DUP3 ADD MSTORE PUSH32 0x68652066696E6500000000000000000000000000000000000000000000000000 PUSH1 0x20 DUP3 ADD MSTORE POP JUMP JUMPDEST PUSH0 PUSH2 0x164E PUSH1 0x27 DUP4 PUSH2 0xE88 JUMP JUMPDEST SWAP2 POP PUSH2 0x1659 DUP3 PUSH2 0x15F4 JUMP JUMPDEST PUSH1 0x40 DUP3 ADD SWAP1 POP SWAP2 SWAP1 POP JUMP JUMPDEST PUSH0 PUSH1 0x20 DUP3 ADD SWAP1 POP DUP2 DUP2 SUB PUSH0 DUP4 ADD MSTORE PUSH2 0x167B DUP2 PUSH2 0x1642 JUMP JUMPDEST SWAP1 POP SWAP2 SWAP1 POP JUMP JUMPDEST PUSH0 PUSH2 0x168C DUP3 PUSH2 0xC82 JUMP JUMPDEST SWAP2 POP PUSH2 0x1697 DUP4 PUSH2 0xC82 JUMP JUMPDEST SWAP3 POP DUP3 DUP3 SUB SWAP1 POP DUP2 DUP2 GT ISZERO PUSH2 0x16AF JUMPI PUSH2 0x16AE PUSH2 0x14B8 JUMP JUMPDEST JUMPDEST SWAP3 SWAP2 POP POP JUMP INVALID LOG2 PUSH5 0x6970667358 0x22 SLT KECCAK256 SWAP1 PUSH9 0x5EA2AE2D0B4753A06A CALLVALUE SWAP13 CALLDATALOAD LOG1 0xC9 CODESIZE 0xAE EXP 0xE8 EXTCALL RETURNCONTRACT 0x14 0xB2 0xEF 0xDF 0x2C 0xCB SAR DUP16 SWAPN 0x94 PUSH5 0x736F6C6343 STOP ADDMOD 0x1E STOP CALLER "
				},
				"gasEstimates": {
					"creation": {
						"codeDepositCost": "1173400",
						"executionCost": "25483",
						"totalCost": "1198883"
					},
					"external": {
						"addStudent(address,uint256,string)": "infinite",
						"borrow(uint256)": "infinite",
						"payBalance()": "infinite",
						"returnBook()": "90178"
					}
				},
				"methodIdentifiers": {
					"addStudent(address,uint256,string)": "60e5f3bb",
					"borrow(uint256)": "c5ebeaec",
					"payBalance()": "d5503d5f",
					"returnBook()": "772aaeb5"
				}
			},
			"storageLayout": {
				"storage": [
					{
						"astId": 3,
						"contract": "contracts/RizalLibrary.sol:RizalLibrary",
						"label": "librarian",
						"offset": 0,
						"slot": "0",
						"type": "t_address"
					},
					{
						"astId": 27,
						"contract": "contracts/RizalLibrary.sol:RizalLibrary",
						"label": "students",
						"offset": 0,
						"slot": "1",
						"type": "t_mapping(t_address,t_struct(Student)22_storage)"
					}
				],
				"types": {
					"t_address": {
						"encoding": "inplace",
						"label": "address",
						"numberOfBytes": "20"
					},
					"t_bool": {
						"encoding": "inplace",
						"label": "bool",
						"numberOfBytes": "1"
					},
					"t_int256": {
						"encoding": "inplace",
						"label": "int256",
						"numberOfBytes": "32"
					},
					"t_mapping(t_address,t_struct(Student)22_storage)": {
						"encoding": "mapping",
						"key": "t_address",
						"label": "mapping(address => struct RizalLibrary.Student)",
						"numberOfBytes": "32",
						"value": "t_struct(Student)22_storage"
					},
					"t_string_storage": {
						"encoding": "bytes",
						"label": "string",
						"numberOfBytes": "32"
					},
					"t_struct(Book)8_storage": {
						"encoding": "inplace",
						"label": "struct RizalLibrary.Book",
						"members": [
							{
								"astId": 5,
								"contract": "contracts/RizalLibrary.sol:RizalLibrary",
								"label": "bookCallNum",
								"offset": 0,
								"slot": "0",
								"type": "t_uint256"
							},
							{
								"astId": 7,
								"contract": "contracts/RizalLibrary.sol:RizalLibrary",
								"label": "borrowDeadline",
								"offset": 0,
								"slot": "1",
								"type": "t_int256"
							}
						],
						"numberOfBytes": "64"
					},
					"t_struct(Student)22_storage": {
						"encoding": "inplace",
						"label": "struct RizalLibrary.Student",
						"members": [
							{
								"astId": 10,
								"contract": "contracts/RizalLibrary.sol:RizalLibrary",
								"label": "idnumber",
								"offset": 0,
								"slot": "0",
								"type": "t_uint256"
							},
							{
								"astId": 12,
								"contract": "contracts/RizalLibrary.sol:RizalLibrary",
								"label": "name",
								"offset": 0,
								"slot": "1",
								"type": "t_string_storage"
							},
							{
								"astId": 14,
								"contract": "contracts/RizalLibrary.sol:RizalLibrary",
								"label": "balance",
								"offset": 0,
								"slot": "2",
								"type": "t_uint256"
							},
							{
								"astId": 16,
								"contract": "contracts/RizalLibrary.sol:RizalLibrary",
								"label": "hasBorrowed",
								"offset": 0,
								"slot": "3",
								"type": "t_bool"
							},
							{
								"astId": 18,
								"contract": "contracts/RizalLibrary.sol:RizalLibrary",
								"label": "holdOrder",
								"offset": 1,
								"slot": "3",
								"type": "t_bool"
							},
							{
								"astId": 21,
								"contract": "contracts/RizalLibrary.sol:RizalLibrary",
								"label": "bookBorrowed",
								"offset": 0,
								"slot": "4",
								"type": "t_struct(Book)8_storage"
							}
						],
						"numberOfBytes": "192"
					},
					"t_uint256": {
						"encoding": "inplace",
						"label": "uint256",
						"numberOfBytes": "32"
					}
				}
			},
			"userdoc": {
				"kind": "user",
				"methods": {},
				"version": 1
			}
		}
	}
}