{
	"contracts/RizalLibrary.sol": {
		"RizalLibrary": {
			"abi": [
				{
					"inputs": [],
					"stateMutability": "nonpayable",
					"type": "constructor"
				},
				{
					"anonymous": false,
					"inputs": [
						{
							"indexed": false,
							"internalType": "uint256",
							"name": "bookCallNum",
							"type": "uint256"
						},
						{
							"indexed": true,
							"internalType": "address",
							"name": "studentAddress",
							"type": "address"
						}
					],
					"name": "BookBorrowed",
					"type": "event"
				},
				{
					"anonymous": false,
					"inputs": [
						{
							"indexed": true,
							"internalType": "address",
							"name": "studentAddress",
							"type": "address"
						},
						{
							"indexed": false,
							"internalType": "uint256",
							"name": "idnumber",
							"type": "uint256"
						}
					],
					"name": "StudentEnrolled",
					"type": "event"
				},
				{
					"anonymous": false,
					"inputs": [
						{
							"indexed": true,
							"internalType": "address",
							"name": "studentAddress",
							"type": "address"
						},
						{
							"indexed": false,
							"internalType": "uint256",
							"name": "paid",
							"type": "uint256"
						}
					],
					"name": "StudentPaid",
					"type": "event"
				},
				{
					"inputs": [
						{
							"internalType": "address",
							"name": "_student",
							"type": "address"
						},
						{
							"internalType": "uint256",
							"name": "_idnumber",
							"type": "uint256"
						},
						{
							"internalType": "string",
							"name": "_name",
							"type": "string"
						}
					],
					"name": "addStudent",
					"outputs": [],
					"stateMutability": "nonpayable",
					"type": "function"
				},
				{
					"inputs": [
						{
							"internalType": "uint256",
							"name": "_bookCallNum",
							"type": "uint256"
						}
					],
					"name": "borrow",
					"outputs": [],
					"stateMutability": "nonpayable",
					"type": "function"
				},
				{
					"inputs": [],
					"name": "payBalance",
					"outputs": [],
					"stateMutability": "payable",
					"type": "function"
				},
				{
					"inputs": [],
					"name": "returnBook",
					"outputs": [],
					"stateMutability": "nonpayable",
					"type": "function"
				}
			],
			"devdoc": {
				"kind": "dev",
				"methods": {},
				"version": 1
			},
			"evm": {
				"assembly": "    /* \"contracts/RizalLibrary.sol\":611:4313  contract RizalLibrary {... */\n  mstore(0x40, 0x80)\n    /* \"contracts/RizalLibrary.sol\":2234:2289  constructor() {... */\n  callvalue\n  dup1\n  iszero\n  tag_1\n  jumpi\n  revert(0x00, 0x00)\ntag_1:\n  pop\n    /* \"contracts/RizalLibrary.sol\":2271:2281  msg.sender */\n  caller\n    /* \"contracts/RizalLibrary.sol\":2259:2268  librarian */\n  0x00\n  0x00\n    /* \"contracts/RizalLibrary.sol\":2259:2281  librarian = msg.sender */\n  0x0100\n  exp\n  dup2\n  sload\n  dup2\n  0xffffffffffffffffffffffffffffffffffffffff\n  mul\n  not\n  and\n  swap1\n  dup4\n  0xffffffffffffffffffffffffffffffffffffffff\n  and\n  mul\n  or\n  swap1\n  sstore\n  pop\n    /* \"contracts/RizalLibrary.sol\":611:4313  contract RizalLibrary {... */\n  dataSize(sub_0)\n  dup1\n  dataOffset(sub_0)\n  0x00\n  codecopy\n  0x00\n  return\nstop\n\nsub_0: assembly {\n        /* \"contracts/RizalLibrary.sol\":611:4313  contract RizalLibrary {... */\n      mstore(0x40, 0x80)\n      jumpi(tag_1, lt(calldatasize, 0x04))\n      shr(0xe0, calldataload(0x00))\n      dup1\n      0x60e5f3bb\n      eq\n      tag_2\n      jumpi\n      dup1\n      0x772aaeb5\n      eq\n      tag_3\n      jumpi\n      dup1\n      0xc5ebeaec\n      eq\n      tag_4\n      jumpi\n      dup1\n      0xd5503d5f\n      eq\n      tag_5\n      jumpi\n    tag_1:\n      revert(0x00, 0x00)\n        /* \"contracts/RizalLibrary.sol\":2297:2574  function addStudent(address _student, uint _idnumber, string memory _name) public isLibrarian {... */\n    tag_2:\n      callvalue\n      dup1\n      iszero\n      tag_6\n      jumpi\n      revert(0x00, 0x00)\n    tag_6:\n      pop\n      tag_7\n      0x04\n      dup1\n      calldatasize\n      sub\n      dup2\n      add\n      swap1\n      tag_8\n      swap2\n      swap1\n      tag_9\n      jump\t// in\n    tag_8:\n      tag_10\n      jump\t// in\n    tag_7:\n      stop\n        /* \"contracts/RizalLibrary.sol\":2986:3758  function returnBook() external isStudent isEnrolled hasBorrowedBook {... */\n    tag_3:\n      callvalue\n      dup1\n      iszero\n      tag_11\n      jumpi\n      revert(0x00, 0x00)\n    tag_11:\n      pop\n      tag_12\n      tag_13\n      jump\t// in\n    tag_12:\n      stop\n        /* \"contracts/RizalLibrary.sol\":2582:2978  function borrow(uint _bookCallNum) external isStudent isEnrolled noHoldOrder noBorrowedBook {... */\n    tag_4:\n      callvalue\n      dup1\n      iszero\n      tag_14\n      jumpi\n      revert(0x00, 0x00)\n    tag_14:\n      pop\n      tag_15\n      0x04\n      dup1\n      calldatasize\n      sub\n      dup2\n      add\n      swap1\n      tag_16\n      swap2\n      swap1\n      tag_17\n      jump\t// in\n    tag_16:\n      tag_18\n      jump\t// in\n    tag_15:\n      stop\n        /* \"contracts/RizalLibrary.sol\":3766:4205  function payBalance() external payable isStudent isEnrolled hasHoldOrder {... */\n    tag_5:\n      tag_19\n      tag_20\n      jump\t// in\n    tag_19:\n      stop\n        /* \"contracts/RizalLibrary.sol\":2297:2574  function addStudent(address _student, uint _idnumber, string memory _name) public isLibrarian {... */\n    tag_10:\n        /* \"contracts/RizalLibrary.sol\":1513:1522  librarian */\n      0x00\n      0x00\n      swap1\n      sload\n      swap1\n      0x0100\n      exp\n      swap1\n      div\n      0xffffffffffffffffffffffffffffffffffffffff\n      and\n        /* \"contracts/RizalLibrary.sol\":1499:1522  msg.sender == librarian */\n      0xffffffffffffffffffffffffffffffffffffffff\n      and\n        /* \"contracts/RizalLibrary.sol\":1499:1509  msg.sender */\n      caller\n        /* \"contracts/RizalLibrary.sol\":1499:1522  msg.sender == librarian */\n      0xffffffffffffffffffffffffffffffffffffffff\n      and\n      eq\n        /* \"contracts/RizalLibrary.sol\":1491:1551  require(msg.sender == librarian, \"You are not a librarian!\") */\n      tag_22\n      jumpi\n      mload(0x40)\n      0x08c379a000000000000000000000000000000000000000000000000000000000\n      dup2\n      mstore\n      0x04\n      add\n      tag_23\n      swap1\n      tag_24\n      jump\t// in\n    tag_23:\n      mload(0x40)\n      dup1\n      swap2\n      sub\n      swap1\n      revert\n    tag_22:\n        /* \"contracts/RizalLibrary.sol\":2441:2442  0 */\n      0x00\n        /* \"contracts/RizalLibrary.sol\":2410:2418  students */\n      0x01\n        /* \"contracts/RizalLibrary.sol\":2410:2428  students[_student] */\n      0x00\n        /* \"contracts/RizalLibrary.sol\":2419:2427  _student */\n      dup6\n        /* \"contracts/RizalLibrary.sol\":2410:2428  students[_student] */\n      0xffffffffffffffffffffffffffffffffffffffff\n      and\n      0xffffffffffffffffffffffffffffffffffffffff\n      and\n      dup2\n      mstore\n      0x20\n      add\n      swap1\n      dup2\n      mstore\n      0x20\n      add\n      0x00\n      keccak256\n        /* \"contracts/RizalLibrary.sol\":2410:2437  students[_student].idnumber */\n      0x00\n      add\n      sload\n        /* \"contracts/RizalLibrary.sol\":2410:2442  students[_student].idnumber == 0 */\n      eq\n        /* \"contracts/RizalLibrary.sol\":2402:2472  require(students[_student].idnumber == 0, \"Student already enrolled!\") */\n      tag_26\n      jumpi\n      mload(0x40)\n      0x08c379a000000000000000000000000000000000000000000000000000000000\n      dup2\n      mstore\n      0x04\n      add\n      tag_27\n      swap1\n      tag_28\n      jump\t// in\n    tag_27:\n      mload(0x40)\n      dup1\n      swap2\n      sub\n      swap1\n      revert\n    tag_26:\n        /* \"contracts/RizalLibrary.sol\":2513:2522  _idnumber */\n      dup2\n        /* \"contracts/RizalLibrary.sol\":2483:2491  students */\n      0x01\n        /* \"contracts/RizalLibrary.sol\":2483:2501  students[_student] */\n      0x00\n        /* \"contracts/RizalLibrary.sol\":2492:2500  _student */\n      dup6\n        /* \"contracts/RizalLibrary.sol\":2483:2501  students[_student] */\n      0xffffffffffffffffffffffffffffffffffffffff\n      and\n      0xffffffffffffffffffffffffffffffffffffffff\n      and\n      dup2\n      mstore\n      0x20\n      add\n      swap1\n      dup2\n      mstore\n      0x20\n      add\n      0x00\n      keccak256\n        /* \"contracts/RizalLibrary.sol\":2483:2510  students[_student].idnumber */\n      0x00\n      add\n        /* \"contracts/RizalLibrary.sol\":2483:2522  students[_student].idnumber = _idnumber */\n      dup2\n      swap1\n      sstore\n      pop\n        /* \"contracts/RizalLibrary.sol\":2560:2565  _name */\n      dup1\n        /* \"contracts/RizalLibrary.sol\":2534:2542  students */\n      0x01\n        /* \"contracts/RizalLibrary.sol\":2534:2552  students[_student] */\n      0x00\n        /* \"contracts/RizalLibrary.sol\":2543:2551  _student */\n      dup6\n        /* \"contracts/RizalLibrary.sol\":2534:2552  students[_student] */\n      0xffffffffffffffffffffffffffffffffffffffff\n      and\n      0xffffffffffffffffffffffffffffffffffffffff\n      and\n      dup2\n      mstore\n      0x20\n      add\n      swap1\n      dup2\n      mstore\n      0x20\n      add\n      0x00\n      keccak256\n        /* \"contracts/RizalLibrary.sol\":2534:2557  students[_student].name */\n      0x01\n      add\n        /* \"contracts/RizalLibrary.sol\":2534:2565  students[_student].name = _name */\n      swap1\n      dup2\n      tag_29\n      swap2\n      swap1\n      tag_30\n      jump\t// in\n    tag_29:\n      pop\n        /* \"contracts/RizalLibrary.sol\":2297:2574  function addStudent(address _student, uint _idnumber, string memory _name) public isLibrarian {... */\n      pop\n      pop\n      pop\n      jump\t// out\n        /* \"contracts/RizalLibrary.sol\":2986:3758  function returnBook() external isStudent isEnrolled hasBorrowedBook {... */\n    tag_13:\n        /* \"contracts/RizalLibrary.sol\":1388:1397  librarian */\n      0x00\n      0x00\n      swap1\n      sload\n      swap1\n      0x0100\n      exp\n      swap1\n      div\n      0xffffffffffffffffffffffffffffffffffffffff\n      and\n        /* \"contracts/RizalLibrary.sol\":1374:1397  msg.sender != librarian */\n      0xffffffffffffffffffffffffffffffffffffffff\n      and\n        /* \"contracts/RizalLibrary.sol\":1374:1384  msg.sender */\n      caller\n        /* \"contracts/RizalLibrary.sol\":1374:1397  msg.sender != librarian */\n      0xffffffffffffffffffffffffffffffffffffffff\n      and\n      sub\n        /* \"contracts/RizalLibrary.sol\":1366:1425  require(msg.sender != librarian , \"You are not a student!\") */\n      tag_32\n      jumpi\n      mload(0x40)\n      0x08c379a000000000000000000000000000000000000000000000000000000000\n      dup2\n      mstore\n      0x04\n      add\n      tag_33\n      swap1\n      tag_34\n      jump\t// in\n    tag_33:\n      mload(0x40)\n      dup1\n      swap2\n      sub\n      swap1\n      revert\n    tag_32:\n        /* \"contracts/RizalLibrary.sol\":1956:1957  0 */\n      0x00\n        /* \"contracts/RizalLibrary.sol\":1924:1932  students */\n      0x01\n        /* \"contracts/RizalLibrary.sol\":1924:1944  students[msg.sender] */\n      0x00\n        /* \"contracts/RizalLibrary.sol\":1933:1943  msg.sender */\n      caller\n        /* \"contracts/RizalLibrary.sol\":1924:1944  students[msg.sender] */\n      0xffffffffffffffffffffffffffffffffffffffff\n      and\n      0xffffffffffffffffffffffffffffffffffffffff\n      and\n      dup2\n      mstore\n      0x20\n      add\n      swap1\n      dup2\n      mstore\n      0x20\n      add\n      0x00\n      keccak256\n        /* \"contracts/RizalLibrary.sol\":1924:1953  students[msg.sender].idnumber */\n      0x00\n      add\n      sload\n        /* \"contracts/RizalLibrary.sol\":1924:1957  students[msg.sender].idnumber > 0 */\n      gt\n        /* \"contracts/RizalLibrary.sol\":1916:1987  require(students[msg.sender].idnumber > 0, \"You are not yet enrolled!\") */\n      tag_36\n      jumpi\n      mload(0x40)\n      0x08c379a000000000000000000000000000000000000000000000000000000000\n      dup2\n      mstore\n      0x04\n      add\n      tag_37\n      swap1\n      tag_38\n      jump\t// in\n    tag_37:\n      mload(0x40)\n      dup1\n      swap2\n      sub\n      swap1\n      revert\n    tag_36:\n        /* \"contracts/RizalLibrary.sol\":1785:1793  students */\n      0x01\n        /* \"contracts/RizalLibrary.sol\":1785:1805  students[msg.sender] */\n      0x00\n        /* \"contracts/RizalLibrary.sol\":1794:1804  msg.sender */\n      caller\n        /* \"contracts/RizalLibrary.sol\":1785:1805  students[msg.sender] */\n      0xffffffffffffffffffffffffffffffffffffffff\n      and\n      0xffffffffffffffffffffffffffffffffffffffff\n      and\n      dup2\n      mstore\n      0x20\n      add\n      swap1\n      dup2\n      mstore\n      0x20\n      add\n      0x00\n      keccak256\n        /* \"contracts/RizalLibrary.sol\":1785:1817  students[msg.sender].hasBorrowed */\n      0x03\n      add\n      0x00\n      swap1\n      sload\n      swap1\n      0x0100\n      exp\n      swap1\n      div\n      0xff\n      and\n        /* \"contracts/RizalLibrary.sol\":1777:1855  require(students[msg.sender].hasBorrowed, \"You have not borrowed a book yet!\") */\n      tag_40\n      jumpi\n      mload(0x40)\n      0x08c379a000000000000000000000000000000000000000000000000000000000\n      dup2\n      mstore\n      0x04\n      add\n      tag_41\n      swap1\n      tag_42\n      jump\t// in\n    tag_41:\n      mload(0x40)\n      dup1\n      swap2\n      sub\n      swap1\n      revert\n    tag_40:\n        /* \"contracts/RizalLibrary.sol\":3267:3278  int current */\n      0x00\n        /* \"contracts/RizalLibrary.sol\":3285:3294  getTime() */\n      tag_44\n        /* \"contracts/RizalLibrary.sol\":3285:3292  getTime */\n      tag_45\n        /* \"contracts/RizalLibrary.sol\":3285:3294  getTime() */\n      jump\t// in\n    tag_44:\n        /* \"contracts/RizalLibrary.sol\":3267:3295  int current = int(getTime()) */\n      swap1\n      pop\n        /* \"contracts/RizalLibrary.sol\":3321:3329  students */\n      0x01\n        /* \"contracts/RizalLibrary.sol\":3321:3341  students[msg.sender] */\n      0x00\n        /* \"contracts/RizalLibrary.sol\":3330:3340  msg.sender */\n      caller\n        /* \"contracts/RizalLibrary.sol\":3321:3341  students[msg.sender] */\n      0xffffffffffffffffffffffffffffffffffffffff\n      and\n      0xffffffffffffffffffffffffffffffffffffffff\n      and\n      dup2\n      mstore\n      0x20\n      add\n      swap1\n      dup2\n      mstore\n      0x20\n      add\n      0x00\n      keccak256\n        /* \"contracts/RizalLibrary.sol\":3321:3354  students[msg.sender].bookBorrowed */\n      0x04\n      add\n        /* \"contracts/RizalLibrary.sol\":3321:3369  students[msg.sender].bookBorrowed.borrowDeadline */\n      0x01\n      add\n      sload\n        /* \"contracts/RizalLibrary.sol\":3310:3317  current */\n      dup2\n        /* \"contracts/RizalLibrary.sol\":3310:3369  current >= students[msg.sender].bookBorrowed.borrowDeadline */\n      slt\n        /* \"contracts/RizalLibrary.sol\":3306:3490  if (current >= students[msg.sender].bookBorrowed.borrowDeadline) {... */\n      tag_46\n      jumpi\n        /* \"contracts/RizalLibrary.sol\":3419:3423  true */\n      0x01\n        /* \"contracts/RizalLibrary.sol\":3386:3394  students */\n      dup1\n        /* \"contracts/RizalLibrary.sol\":3386:3406  students[msg.sender] */\n      0x00\n        /* \"contracts/RizalLibrary.sol\":3395:3405  msg.sender */\n      caller\n        /* \"contracts/RizalLibrary.sol\":3386:3406  students[msg.sender] */\n      0xffffffffffffffffffffffffffffffffffffffff\n      and\n      0xffffffffffffffffffffffffffffffffffffffff\n      and\n      dup2\n      mstore\n      0x20\n      add\n      swap1\n      dup2\n      mstore\n      0x20\n      add\n      0x00\n      keccak256\n        /* \"contracts/RizalLibrary.sol\":3386:3416  students[msg.sender].holdOrder */\n      0x03\n      add\n      0x01\n        /* \"contracts/RizalLibrary.sol\":3386:3423  students[msg.sender].holdOrder = true */\n      0x0100\n      exp\n      dup2\n      sload\n      dup2\n      0xff\n      mul\n      not\n      and\n      swap1\n      dup4\n      iszero\n      iszero\n      mul\n      or\n      swap1\n      sstore\n      pop\n        /* \"contracts/RizalLibrary.sol\":3469:3478  50000 wei */\n      0xc350\n        /* \"contracts/RizalLibrary.sol\":3438:3446  students */\n      0x01\n        /* \"contracts/RizalLibrary.sol\":3438:3458  students[msg.sender] */\n      0x00\n        /* \"contracts/RizalLibrary.sol\":3447:3457  msg.sender */\n      caller\n        /* \"contracts/RizalLibrary.sol\":3438:3458  students[msg.sender] */\n      0xffffffffffffffffffffffffffffffffffffffff\n      and\n      0xffffffffffffffffffffffffffffffffffffffff\n      and\n      dup2\n      mstore\n      0x20\n      add\n      swap1\n      dup2\n      mstore\n      0x20\n      add\n      0x00\n      keccak256\n        /* \"contracts/RizalLibrary.sol\":3438:3466  students[msg.sender].balance */\n      0x02\n      add\n        /* \"contracts/RizalLibrary.sol\":3438:3478  students[msg.sender].balance = 50000 wei */\n      dup2\n      swap1\n      sstore\n      pop\n        /* \"contracts/RizalLibrary.sol\":3306:3490  if (current >= students[msg.sender].bookBorrowed.borrowDeadline) {... */\n    tag_46:\n        /* \"contracts/RizalLibrary.sol\":3535:3540  false */\n      0x00\n        /* \"contracts/RizalLibrary.sol\":3500:3508  students */\n      0x01\n        /* \"contracts/RizalLibrary.sol\":3500:3520  students[msg.sender] */\n      0x00\n        /* \"contracts/RizalLibrary.sol\":3509:3519  msg.sender */\n      caller\n        /* \"contracts/RizalLibrary.sol\":3500:3520  students[msg.sender] */\n      0xffffffffffffffffffffffffffffffffffffffff\n      and\n      0xffffffffffffffffffffffffffffffffffffffff\n      and\n      dup2\n      mstore\n      0x20\n      add\n      swap1\n      dup2\n      mstore\n      0x20\n      add\n      0x00\n      keccak256\n        /* \"contracts/RizalLibrary.sol\":3500:3532  students[msg.sender].hasBorrowed */\n      0x03\n      add\n      0x00\n        /* \"contracts/RizalLibrary.sol\":3500:3540  students[msg.sender].hasBorrowed = false */\n      0x0100\n      exp\n      dup2\n      sload\n      dup2\n      0xff\n      mul\n      not\n      and\n      swap1\n      dup4\n      iszero\n      iszero\n      mul\n      or\n      swap1\n      sstore\n      pop\n        /* \"contracts/RizalLibrary.sol\":3587:3598  Book(0 , 0) */\n      mload(0x40)\n      dup1\n      0x40\n      add\n      0x40\n      mstore\n      dup1\n        /* \"contracts/RizalLibrary.sol\":3592:3593  0 */\n      0x00\n        /* \"contracts/RizalLibrary.sol\":3587:3598  Book(0 , 0) */\n      dup2\n      mstore\n      0x20\n      add\n        /* \"contracts/RizalLibrary.sol\":3596:3597  0 */\n      0x00\n        /* \"contracts/RizalLibrary.sol\":3587:3598  Book(0 , 0) */\n      dup2\n      mstore\n      pop\n        /* \"contracts/RizalLibrary.sol\":3551:3559  students */\n      0x01\n        /* \"contracts/RizalLibrary.sol\":3551:3571  students[msg.sender] */\n      0x00\n        /* \"contracts/RizalLibrary.sol\":3560:3570  msg.sender */\n      caller\n        /* \"contracts/RizalLibrary.sol\":3551:3571  students[msg.sender] */\n      0xffffffffffffffffffffffffffffffffffffffff\n      and\n      0xffffffffffffffffffffffffffffffffffffffff\n      and\n      dup2\n      mstore\n      0x20\n      add\n      swap1\n      dup2\n      mstore\n      0x20\n      add\n      0x00\n      keccak256\n        /* \"contracts/RizalLibrary.sol\":3551:3584  students[msg.sender].bookBorrowed */\n      0x04\n      add\n        /* \"contracts/RizalLibrary.sol\":3551:3598  students[msg.sender].bookBorrowed = Book(0 , 0) */\n      0x00\n      dup3\n      add\n      mload\n      dup2\n      0x00\n      add\n      sstore\n      0x20\n      dup3\n      add\n      mload\n      dup2\n      0x01\n      add\n      sstore\n      swap1\n      pop\n      pop\n        /* \"contracts/RizalLibrary.sol\":3054:3758  {... */\n      pop\n        /* \"contracts/RizalLibrary.sol\":2986:3758  function returnBook() external isStudent isEnrolled hasBorrowedBook {... */\n      jump\t// out\n        /* \"contracts/RizalLibrary.sol\":2582:2978  function borrow(uint _bookCallNum) external isStudent isEnrolled noHoldOrder noBorrowedBook {... */\n    tag_18:\n        /* \"contracts/RizalLibrary.sol\":1388:1397  librarian */\n      0x00\n      0x00\n      swap1\n      sload\n      swap1\n      0x0100\n      exp\n      swap1\n      div\n      0xffffffffffffffffffffffffffffffffffffffff\n      and\n        /* \"contracts/RizalLibrary.sol\":1374:1397  msg.sender != librarian */\n      0xffffffffffffffffffffffffffffffffffffffff\n      and\n        /* \"contracts/RizalLibrary.sol\":1374:1384  msg.sender */\n      caller\n        /* \"contracts/RizalLibrary.sol\":1374:1397  msg.sender != librarian */\n      0xffffffffffffffffffffffffffffffffffffffff\n      and\n      sub\n        /* \"contracts/RizalLibrary.sol\":1366:1425  require(msg.sender != librarian , \"You are not a student!\") */\n      tag_48\n      jumpi\n      mload(0x40)\n      0x08c379a000000000000000000000000000000000000000000000000000000000\n      dup2\n      mstore\n      0x04\n      add\n      tag_49\n      swap1\n      tag_34\n      jump\t// in\n    tag_49:\n      mload(0x40)\n      dup1\n      swap2\n      sub\n      swap1\n      revert\n    tag_48:\n        /* \"contracts/RizalLibrary.sol\":1956:1957  0 */\n      0x00\n        /* \"contracts/RizalLibrary.sol\":1924:1932  students */\n      0x01\n        /* \"contracts/RizalLibrary.sol\":1924:1944  students[msg.sender] */\n      0x00\n        /* \"contracts/RizalLibrary.sol\":1933:1943  msg.sender */\n      caller\n        /* \"contracts/RizalLibrary.sol\":1924:1944  students[msg.sender] */\n      0xffffffffffffffffffffffffffffffffffffffff\n      and\n      0xffffffffffffffffffffffffffffffffffffffff\n      and\n      dup2\n      mstore\n      0x20\n      add\n      swap1\n      dup2\n      mstore\n      0x20\n      add\n      0x00\n      keccak256\n        /* \"contracts/RizalLibrary.sol\":1924:1953  students[msg.sender].idnumber */\n      0x00\n      add\n      sload\n        /* \"contracts/RizalLibrary.sol\":1924:1957  students[msg.sender].idnumber > 0 */\n      gt\n        /* \"contracts/RizalLibrary.sol\":1916:1987  require(students[msg.sender].idnumber > 0, \"You are not yet enrolled!\") */\n      tag_51\n      jumpi\n      mload(0x40)\n      0x08c379a000000000000000000000000000000000000000000000000000000000\n      dup2\n      mstore\n      0x04\n      add\n      tag_52\n      swap1\n      tag_38\n      jump\t// in\n    tag_52:\n      mload(0x40)\n      dup1\n      swap2\n      sub\n      swap1\n      revert\n    tag_51:\n        /* \"contracts/RizalLibrary.sol\":1070:1075  false */\n      0x00\n        /* \"contracts/RizalLibrary.sol\":1036:1075  students[msg.sender].holdOrder == false */\n      iszero\n      iszero\n        /* \"contracts/RizalLibrary.sol\":1036:1044  students */\n      0x01\n        /* \"contracts/RizalLibrary.sol\":1036:1056  students[msg.sender] */\n      0x00\n        /* \"contracts/RizalLibrary.sol\":1045:1055  msg.sender */\n      caller\n        /* \"contracts/RizalLibrary.sol\":1036:1056  students[msg.sender] */\n      0xffffffffffffffffffffffffffffffffffffffff\n      and\n      0xffffffffffffffffffffffffffffffffffffffff\n      and\n      dup2\n      mstore\n      0x20\n      add\n      swap1\n      dup2\n      mstore\n      0x20\n      add\n      0x00\n      keccak256\n        /* \"contracts/RizalLibrary.sol\":1036:1066  students[msg.sender].holdOrder */\n      0x03\n      add\n      0x01\n      swap1\n      sload\n      swap1\n      0x0100\n      exp\n      swap1\n      div\n      0xff\n      and\n        /* \"contracts/RizalLibrary.sol\":1036:1075  students[msg.sender].holdOrder == false */\n      iszero\n      iszero\n      eq\n        /* \"contracts/RizalLibrary.sol\":1028:1125  require(students[msg.sender].holdOrder == false, \"You have a Hold Order. Not allowed to borrow!\") */\n      tag_54\n      jumpi\n      mload(0x40)\n      0x08c379a000000000000000000000000000000000000000000000000000000000\n      dup2\n      mstore\n      0x04\n      add\n      tag_55\n      swap1\n      tag_56\n      jump\t// in\n    tag_55:\n      mload(0x40)\n      dup1\n      swap2\n      sub\n      swap1\n      revert\n    tag_54:\n        /* \"contracts/RizalLibrary.sol\":1625:1633  students */\n      0x01\n        /* \"contracts/RizalLibrary.sol\":1625:1645  students[msg.sender] */\n      0x00\n        /* \"contracts/RizalLibrary.sol\":1634:1644  msg.sender */\n      caller\n        /* \"contracts/RizalLibrary.sol\":1625:1645  students[msg.sender] */\n      0xffffffffffffffffffffffffffffffffffffffff\n      and\n      0xffffffffffffffffffffffffffffffffffffffff\n      and\n      dup2\n      mstore\n      0x20\n      add\n      swap1\n      dup2\n      mstore\n      0x20\n      add\n      0x00\n      keccak256\n        /* \"contracts/RizalLibrary.sol\":1625:1657  students[msg.sender].hasBorrowed */\n      0x03\n      add\n      0x00\n      swap1\n      sload\n      swap1\n      0x0100\n      exp\n      swap1\n      div\n      0xff\n      and\n        /* \"contracts/RizalLibrary.sol\":1624:1657  !students[msg.sender].hasBorrowed */\n      iszero\n        /* \"contracts/RizalLibrary.sol\":1616:1711  require(!students[msg.sender].hasBorrowed, \"You already borrowed. Not allowed to borrow more!\") */\n      tag_58\n      jumpi\n      mload(0x40)\n      0x08c379a000000000000000000000000000000000000000000000000000000000\n      dup2\n      mstore\n      0x04\n      add\n      tag_59\n      swap1\n      tag_60\n      jump\t// in\n    tag_59:\n      mload(0x40)\n      dup1\n      swap2\n      sub\n      swap1\n      revert\n    tag_58:\n        /* \"contracts/RizalLibrary.sol\":2720:2724  true */\n      0x01\n        /* \"contracts/RizalLibrary.sol\":2685:2693  students */\n      dup1\n        /* \"contracts/RizalLibrary.sol\":2685:2705  students[msg.sender] */\n      0x00\n        /* \"contracts/RizalLibrary.sol\":2694:2704  msg.sender */\n      caller\n        /* \"contracts/RizalLibrary.sol\":2685:2705  students[msg.sender] */\n      0xffffffffffffffffffffffffffffffffffffffff\n      and\n      0xffffffffffffffffffffffffffffffffffffffff\n      and\n      dup2\n      mstore\n      0x20\n      add\n      swap1\n      dup2\n      mstore\n      0x20\n      add\n      0x00\n      keccak256\n        /* \"contracts/RizalLibrary.sol\":2685:2717  students[msg.sender].hasBorrowed */\n      0x03\n      add\n      0x00\n        /* \"contracts/RizalLibrary.sol\":2685:2724  students[msg.sender].hasBorrowed = true */\n      0x0100\n      exp\n      dup2\n      sload\n      dup2\n      0xff\n      mul\n      not\n      and\n      swap1\n      dup4\n      iszero\n      iszero\n      mul\n      or\n      swap1\n      sstore\n      pop\n        /* \"contracts/RizalLibrary.sol\":2862:2906  Book(_bookCallNum, int(getTime() + 2 weeks)) */\n      mload(0x40)\n      dup1\n      0x40\n      add\n      0x40\n      mstore\n      dup1\n        /* \"contracts/RizalLibrary.sol\":2867:2879  _bookCallNum */\n      dup3\n        /* \"contracts/RizalLibrary.sol\":2862:2906  Book(_bookCallNum, int(getTime() + 2 weeks)) */\n      dup2\n      mstore\n      0x20\n      add\n        /* \"contracts/RizalLibrary.sol\":2897:2904  2 weeks */\n      0x127500\n        /* \"contracts/RizalLibrary.sol\":2885:2894  getTime() */\n      tag_62\n        /* \"contracts/RizalLibrary.sol\":2885:2892  getTime */\n      tag_45\n        /* \"contracts/RizalLibrary.sol\":2885:2894  getTime() */\n      jump\t// in\n    tag_62:\n        /* \"contracts/RizalLibrary.sol\":2885:2904  getTime() + 2 weeks */\n      tag_63\n      swap2\n      swap1\n      tag_64\n      jump\t// in\n    tag_63:\n        /* \"contracts/RizalLibrary.sol\":2862:2906  Book(_bookCallNum, int(getTime() + 2 weeks)) */\n      dup2\n      mstore\n      pop\n        /* \"contracts/RizalLibrary.sol\":2826:2834  students */\n      0x01\n        /* \"contracts/RizalLibrary.sol\":2826:2846  students[msg.sender] */\n      0x00\n        /* \"contracts/RizalLibrary.sol\":2835:2845  msg.sender */\n      caller\n        /* \"contracts/RizalLibrary.sol\":2826:2846  students[msg.sender] */\n      0xffffffffffffffffffffffffffffffffffffffff\n      and\n      0xffffffffffffffffffffffffffffffffffffffff\n      and\n      dup2\n      mstore\n      0x20\n      add\n      swap1\n      dup2\n      mstore\n      0x20\n      add\n      0x00\n      keccak256\n        /* \"contracts/RizalLibrary.sol\":2826:2859  students[msg.sender].bookBorrowed */\n      0x04\n      add\n        /* \"contracts/RizalLibrary.sol\":2826:2906  students[msg.sender].bookBorrowed = Book(_bookCallNum, int(getTime() + 2 weeks)) */\n      0x00\n      dup3\n      add\n      mload\n      dup2\n      0x00\n      add\n      sstore\n      0x20\n      dup3\n      add\n      mload\n      dup2\n      0x01\n      add\n      sstore\n      swap1\n      pop\n      pop\n        /* \"contracts/RizalLibrary.sol\":2959:2969  msg.sender */\n      caller\n        /* \"contracts/RizalLibrary.sol\":2932:2970  BookBorrowed(_bookCallNum, msg.sender) */\n      0xffffffffffffffffffffffffffffffffffffffff\n      and\n      0x7534124779d4d1eaf9cabba5f94b2b281856aba81c295cde4c9e69483b04b8cc\n        /* \"contracts/RizalLibrary.sol\":2945:2957  _bookCallNum */\n      dup3\n        /* \"contracts/RizalLibrary.sol\":2932:2970  BookBorrowed(_bookCallNum, msg.sender) */\n      mload(0x40)\n      tag_65\n      swap2\n      swap1\n      tag_66\n      jump\t// in\n    tag_65:\n      mload(0x40)\n      dup1\n      swap2\n      sub\n      swap1\n      log2\n        /* \"contracts/RizalLibrary.sol\":2582:2978  function borrow(uint _bookCallNum) external isStudent isEnrolled noHoldOrder noBorrowedBook {... */\n      pop\n      jump\t// out\n        /* \"contracts/RizalLibrary.sol\":3766:4205  function payBalance() external payable isStudent isEnrolled hasHoldOrder {... */\n    tag_20:\n        /* \"contracts/RizalLibrary.sol\":1388:1397  librarian */\n      0x00\n      0x00\n      swap1\n      sload\n      swap1\n      0x0100\n      exp\n      swap1\n      div\n      0xffffffffffffffffffffffffffffffffffffffff\n      and\n        /* \"contracts/RizalLibrary.sol\":1374:1397  msg.sender != librarian */\n      0xffffffffffffffffffffffffffffffffffffffff\n      and\n        /* \"contracts/RizalLibrary.sol\":1374:1384  msg.sender */\n      caller\n        /* \"contracts/RizalLibrary.sol\":1374:1397  msg.sender != librarian */\n      0xffffffffffffffffffffffffffffffffffffffff\n      and\n      sub\n        /* \"contracts/RizalLibrary.sol\":1366:1425  require(msg.sender != librarian , \"You are not a student!\") */\n      tag_68\n      jumpi\n      mload(0x40)\n      0x08c379a000000000000000000000000000000000000000000000000000000000\n      dup2\n      mstore\n      0x04\n      add\n      tag_69\n      swap1\n      tag_34\n      jump\t// in\n    tag_69:\n      mload(0x40)\n      dup1\n      swap2\n      sub\n      swap1\n      revert\n    tag_68:\n        /* \"contracts/RizalLibrary.sol\":1956:1957  0 */\n      0x00\n        /* \"contracts/RizalLibrary.sol\":1924:1932  students */\n      0x01\n        /* \"contracts/RizalLibrary.sol\":1924:1944  students[msg.sender] */\n      0x00\n        /* \"contracts/RizalLibrary.sol\":1933:1943  msg.sender */\n      caller\n        /* \"contracts/RizalLibrary.sol\":1924:1944  students[msg.sender] */\n      0xffffffffffffffffffffffffffffffffffffffff\n      and\n      0xffffffffffffffffffffffffffffffffffffffff\n      and\n      dup2\n      mstore\n      0x20\n      add\n      swap1\n      dup2\n      mstore\n      0x20\n      add\n      0x00\n      keccak256\n        /* \"contracts/RizalLibrary.sol\":1924:1953  students[msg.sender].idnumber */\n      0x00\n      add\n      sload\n        /* \"contracts/RizalLibrary.sol\":1924:1957  students[msg.sender].idnumber > 0 */\n      gt\n        /* \"contracts/RizalLibrary.sol\":1916:1987  require(students[msg.sender].idnumber > 0, \"You are not yet enrolled!\") */\n      tag_71\n      jumpi\n      mload(0x40)\n      0x08c379a000000000000000000000000000000000000000000000000000000000\n      dup2\n      mstore\n      0x04\n      add\n      tag_72\n      swap1\n      tag_38\n      jump\t// in\n    tag_72:\n      mload(0x40)\n      dup1\n      swap2\n      sub\n      swap1\n      revert\n    tag_71:\n        /* \"contracts/RizalLibrary.sol\":1229:1233  true */\n      0x01\n        /* \"contracts/RizalLibrary.sol\":1195:1233  students[msg.sender].holdOrder == true */\n      iszero\n      iszero\n        /* \"contracts/RizalLibrary.sol\":1195:1203  students */\n      0x01\n        /* \"contracts/RizalLibrary.sol\":1195:1215  students[msg.sender] */\n      0x00\n        /* \"contracts/RizalLibrary.sol\":1204:1214  msg.sender */\n      caller\n        /* \"contracts/RizalLibrary.sol\":1195:1215  students[msg.sender] */\n      0xffffffffffffffffffffffffffffffffffffffff\n      and\n      0xffffffffffffffffffffffffffffffffffffffff\n      and\n      dup2\n      mstore\n      0x20\n      add\n      swap1\n      dup2\n      mstore\n      0x20\n      add\n      0x00\n      keccak256\n        /* \"contracts/RizalLibrary.sol\":1195:1225  students[msg.sender].holdOrder */\n      0x03\n      add\n      0x01\n      swap1\n      sload\n      swap1\n      0x0100\n      exp\n      swap1\n      div\n      0xff\n      and\n        /* \"contracts/RizalLibrary.sol\":1195:1233  students[msg.sender].holdOrder == true */\n      iszero\n      iszero\n      eq\n        /* \"contracts/RizalLibrary.sol\":1187:1306  require(students[msg.sender].holdOrder == true, \"You do not have a Hold Order. You do not have an outstanding balance\") */\n      tag_74\n      jumpi\n      mload(0x40)\n      0x08c379a000000000000000000000000000000000000000000000000000000000\n      dup2\n      mstore\n      0x04\n      add\n      tag_75\n      swap1\n      tag_76\n      jump\t// in\n    tag_75:\n      mload(0x40)\n      dup1\n      swap2\n      sub\n      swap1\n      revert\n    tag_74:\n        /* \"contracts/RizalLibrary.sol\":3960:3969  msg.value */\n      callvalue\n        /* \"contracts/RizalLibrary.sol\":3928:3936  students */\n      0x01\n        /* \"contracts/RizalLibrary.sol\":3928:3948  students[msg.sender] */\n      0x00\n        /* \"contracts/RizalLibrary.sol\":3937:3947  msg.sender */\n      caller\n        /* \"contracts/RizalLibrary.sol\":3928:3948  students[msg.sender] */\n      0xffffffffffffffffffffffffffffffffffffffff\n      and\n      0xffffffffffffffffffffffffffffffffffffffff\n      and\n      dup2\n      mstore\n      0x20\n      add\n      swap1\n      dup2\n      mstore\n      0x20\n      add\n      0x00\n      keccak256\n        /* \"contracts/RizalLibrary.sol\":3928:3956  students[msg.sender].balance */\n      0x02\n      add\n      sload\n        /* \"contracts/RizalLibrary.sol\":3928:3969  students[msg.sender].balance == msg.value */\n      eq\n        /* \"contracts/RizalLibrary.sol\":3920:4013  require(students[msg.sender].balance == msg.value, \"Please pay the exact amount of the fine\") */\n      tag_78\n      jumpi\n      mload(0x40)\n      0x08c379a000000000000000000000000000000000000000000000000000000000\n      dup2\n      mstore\n      0x04\n      add\n      tag_79\n      swap1\n      tag_80\n      jump\t// in\n    tag_79:\n      mload(0x40)\n      dup1\n      swap2\n      sub\n      swap1\n      revert\n    tag_78:\n        /* \"contracts/RizalLibrary.sol\":4087:4096  msg.value */\n      callvalue\n        /* \"contracts/RizalLibrary.sol\":4055:4063  students */\n      0x01\n        /* \"contracts/RizalLibrary.sol\":4055:4075  students[msg.sender] */\n      0x00\n        /* \"contracts/RizalLibrary.sol\":4064:4074  msg.sender */\n      caller\n        /* \"contracts/RizalLibrary.sol\":4055:4075  students[msg.sender] */\n      0xffffffffffffffffffffffffffffffffffffffff\n      and\n      0xffffffffffffffffffffffffffffffffffffffff\n      and\n      dup2\n      mstore\n      0x20\n      add\n      swap1\n      dup2\n      mstore\n      0x20\n      add\n      0x00\n      keccak256\n        /* \"contracts/RizalLibrary.sol\":4055:4083  students[msg.sender].balance */\n      0x02\n      add\n      0x00\n        /* \"contracts/RizalLibrary.sol\":4055:4096  students[msg.sender].balance -= msg.value */\n      dup3\n      dup3\n      sload\n      tag_81\n      swap2\n      swap1\n      tag_82\n      jump\t// in\n    tag_81:\n      swap3\n      pop\n      pop\n      dup2\n      swap1\n      sstore\n      pop\n        /* \"contracts/RizalLibrary.sol\":4140:4145  false */\n      0x00\n        /* \"contracts/RizalLibrary.sol\":4107:4115  students */\n      0x01\n        /* \"contracts/RizalLibrary.sol\":4107:4127  students[msg.sender] */\n      0x00\n        /* \"contracts/RizalLibrary.sol\":4116:4126  msg.sender */\n      caller\n        /* \"contracts/RizalLibrary.sol\":4107:4127  students[msg.sender] */\n      0xffffffffffffffffffffffffffffffffffffffff\n      and\n      0xffffffffffffffffffffffffffffffffffffffff\n      and\n      dup2\n      mstore\n      0x20\n      add\n      swap1\n      dup2\n      mstore\n      0x20\n      add\n      0x00\n      keccak256\n        /* \"contracts/RizalLibrary.sol\":4107:4137  students[msg.sender].holdOrder */\n      0x03\n      add\n      0x01\n        /* \"contracts/RizalLibrary.sol\":4107:4145  students[msg.sender].holdOrder = false */\n      0x0100\n      exp\n      dup2\n      sload\n      dup2\n      0xff\n      mul\n      not\n      and\n      swap1\n      dup4\n      iszero\n      iszero\n      mul\n      or\n      swap1\n      sstore\n      pop\n        /* \"contracts/RizalLibrary.sol\":4175:4185  msg.sender */\n      caller\n        /* \"contracts/RizalLibrary.sol\":4163:4197  StudentPaid(msg.sender, msg.value) */\n      0xffffffffffffffffffffffffffffffffffffffff\n      and\n      0xa7d0b298a569865ccc0fafa222e634caa4cce3d90be03818417feea98025a81e\n        /* \"contracts/RizalLibrary.sol\":4187:4196  msg.value */\n      callvalue\n        /* \"contracts/RizalLibrary.sol\":4163:4197  StudentPaid(msg.sender, msg.value) */\n      mload(0x40)\n      tag_83\n      swap2\n      swap1\n      tag_66\n      jump\t// in\n    tag_83:\n      mload(0x40)\n      dup1\n      swap2\n      sub\n      swap1\n      log2\n        /* \"contracts/RizalLibrary.sol\":3766:4205  function payBalance() external payable isStudent isEnrolled hasHoldOrder {... */\n      jump\t// out\n        /* \"contracts/RizalLibrary.sol\":4213:4310  function getTime() internal view virtual returns (uint) {... */\n    tag_45:\n        /* \"contracts/RizalLibrary.sol\":4263:4267  uint */\n      0x00\n        /* \"contracts/RizalLibrary.sol\":4287:4302  block.timestamp */\n      timestamp\n        /* \"contracts/RizalLibrary.sol\":4280:4302  return block.timestamp */\n      swap1\n      pop\n        /* \"contracts/RizalLibrary.sol\":4213:4310  function getTime() internal view virtual returns (uint) {... */\n      swap1\n      jump\t// out\n        /* \"#utility.yul\":7:82   */\n    tag_85:\n        /* \"#utility.yul\":40:46   */\n      0x00\n        /* \"#utility.yul\":73:75   */\n      0x40\n        /* \"#utility.yul\":67:76   */\n      mload\n        /* \"#utility.yul\":57:76   */\n      swap1\n      pop\n        /* \"#utility.yul\":7:82   */\n      swap1\n      jump\t// out\n        /* \"#utility.yul\":88:205   */\n    tag_86:\n        /* \"#utility.yul\":197:198   */\n      0x00\n        /* \"#utility.yul\":194:195   */\n      0x00\n        /* \"#utility.yul\":187:199   */\n      revert\n        /* \"#utility.yul\":211:328   */\n    tag_87:\n        /* \"#utility.yul\":320:321   */\n      0x00\n        /* \"#utility.yul\":317:318   */\n      0x00\n        /* \"#utility.yul\":310:322   */\n      revert\n        /* \"#utility.yul\":334:460   */\n    tag_88:\n        /* \"#utility.yul\":371:378   */\n      0x00\n        /* \"#utility.yul\":411:453   */\n      0xffffffffffffffffffffffffffffffffffffffff\n        /* \"#utility.yul\":404:409   */\n      dup3\n        /* \"#utility.yul\":400:454   */\n      and\n        /* \"#utility.yul\":389:454   */\n      swap1\n      pop\n        /* \"#utility.yul\":334:460   */\n      swap2\n      swap1\n      pop\n      jump\t// out\n        /* \"#utility.yul\":466:562   */\n    tag_89:\n        /* \"#utility.yul\":503:510   */\n      0x00\n        /* \"#utility.yul\":532:556   */\n      tag_150\n        /* \"#utility.yul\":550:555   */\n      dup3\n        /* \"#utility.yul\":532:556   */\n      tag_88\n      jump\t// in\n    tag_150:\n        /* \"#utility.yul\":521:556   */\n      swap1\n      pop\n        /* \"#utility.yul\":466:562   */\n      swap2\n      swap1\n      pop\n      jump\t// out\n        /* \"#utility.yul\":568:690   */\n    tag_90:\n        /* \"#utility.yul\":641:665   */\n      tag_152\n        /* \"#utility.yul\":659:664   */\n      dup2\n        /* \"#utility.yul\":641:665   */\n      tag_89\n      jump\t// in\n    tag_152:\n        /* \"#utility.yul\":634:639   */\n      dup2\n        /* \"#utility.yul\":631:666   */\n      eq\n        /* \"#utility.yul\":621:684   */\n      tag_153\n      jumpi\n        /* \"#utility.yul\":680:681   */\n      0x00\n        /* \"#utility.yul\":677:678   */\n      0x00\n        /* \"#utility.yul\":670:682   */\n      revert\n        /* \"#utility.yul\":621:684   */\n    tag_153:\n        /* \"#utility.yul\":568:690   */\n      pop\n      jump\t// out\n        /* \"#utility.yul\":696:835   */\n    tag_91:\n        /* \"#utility.yul\":742:747   */\n      0x00\n        /* \"#utility.yul\":780:786   */\n      dup2\n        /* \"#utility.yul\":767:787   */\n      calldataload\n        /* \"#utility.yul\":758:787   */\n      swap1\n      pop\n        /* \"#utility.yul\":796:829   */\n      tag_155\n        /* \"#utility.yul\":823:828   */\n      dup2\n        /* \"#utility.yul\":796:829   */\n      tag_90\n      jump\t// in\n    tag_155:\n        /* \"#utility.yul\":696:835   */\n      swap3\n      swap2\n      pop\n      pop\n      jump\t// out\n        /* \"#utility.yul\":841:918   */\n    tag_92:\n        /* \"#utility.yul\":878:885   */\n      0x00\n        /* \"#utility.yul\":907:912   */\n      dup2\n        /* \"#utility.yul\":896:912   */\n      swap1\n      pop\n        /* \"#utility.yul\":841:918   */\n      swap2\n      swap1\n      pop\n      jump\t// out\n        /* \"#utility.yul\":924:1046   */\n    tag_93:\n        /* \"#utility.yul\":997:1021   */\n      tag_158\n        /* \"#utility.yul\":1015:1020   */\n      dup2\n        /* \"#utility.yul\":997:1021   */\n      tag_92\n      jump\t// in\n    tag_158:\n        /* \"#utility.yul\":990:995   */\n      dup2\n        /* \"#utility.yul\":987:1022   */\n      eq\n        /* \"#utility.yul\":977:1040   */\n      tag_159\n      jumpi\n        /* \"#utility.yul\":1036:1037   */\n      0x00\n        /* \"#utility.yul\":1033:1034   */\n      0x00\n        /* \"#utility.yul\":1026:1038   */\n      revert\n        /* \"#utility.yul\":977:1040   */\n    tag_159:\n        /* \"#utility.yul\":924:1046   */\n      pop\n      jump\t// out\n        /* \"#utility.yul\":1052:1191   */\n    tag_94:\n        /* \"#utility.yul\":1098:1103   */\n      0x00\n        /* \"#utility.yul\":1136:1142   */\n      dup2\n        /* \"#utility.yul\":1123:1143   */\n      calldataload\n        /* \"#utility.yul\":1114:1143   */\n      swap1\n      pop\n        /* \"#utility.yul\":1152:1185   */\n      tag_161\n        /* \"#utility.yul\":1179:1184   */\n      dup2\n        /* \"#utility.yul\":1152:1185   */\n      tag_93\n      jump\t// in\n    tag_161:\n        /* \"#utility.yul\":1052:1191   */\n      swap3\n      swap2\n      pop\n      pop\n      jump\t// out\n        /* \"#utility.yul\":1197:1314   */\n    tag_95:\n        /* \"#utility.yul\":1306:1307   */\n      0x00\n        /* \"#utility.yul\":1303:1304   */\n      0x00\n        /* \"#utility.yul\":1296:1308   */\n      revert\n        /* \"#utility.yul\":1320:1437   */\n    tag_96:\n        /* \"#utility.yul\":1429:1430   */\n      0x00\n        /* \"#utility.yul\":1426:1427   */\n      0x00\n        /* \"#utility.yul\":1419:1431   */\n      revert\n        /* \"#utility.yul\":1443:1545   */\n    tag_97:\n        /* \"#utility.yul\":1484:1490   */\n      0x00\n        /* \"#utility.yul\":1535:1537   */\n      0x1f\n        /* \"#utility.yul\":1531:1538   */\n      not\n        /* \"#utility.yul\":1526:1528   */\n      0x1f\n        /* \"#utility.yul\":1519:1524   */\n      dup4\n        /* \"#utility.yul\":1515:1529   */\n      add\n        /* \"#utility.yul\":1511:1539   */\n      and\n        /* \"#utility.yul\":1501:1539   */\n      swap1\n      pop\n        /* \"#utility.yul\":1443:1545   */\n      swap2\n      swap1\n      pop\n      jump\t// out\n        /* \"#utility.yul\":1551:1731   */\n    tag_98:\n        /* \"#utility.yul\":1599:1676   */\n      0x4e487b7100000000000000000000000000000000000000000000000000000000\n        /* \"#utility.yul\":1596:1597   */\n      0x00\n        /* \"#utility.yul\":1589:1677   */\n      mstore\n        /* \"#utility.yul\":1696:1700   */\n      0x41\n        /* \"#utility.yul\":1693:1694   */\n      0x04\n        /* \"#utility.yul\":1686:1701   */\n      mstore\n        /* \"#utility.yul\":1720:1724   */\n      0x24\n        /* \"#utility.yul\":1717:1718   */\n      0x00\n        /* \"#utility.yul\":1710:1725   */\n      revert\n        /* \"#utility.yul\":1737:2018   */\n    tag_99:\n        /* \"#utility.yul\":1820:1847   */\n      tag_167\n        /* \"#utility.yul\":1842:1846   */\n      dup3\n        /* \"#utility.yul\":1820:1847   */\n      tag_97\n      jump\t// in\n    tag_167:\n        /* \"#utility.yul\":1812:1818   */\n      dup2\n        /* \"#utility.yul\":1808:1848   */\n      add\n        /* \"#utility.yul\":1950:1956   */\n      dup2\n        /* \"#utility.yul\":1938:1948   */\n      dup2\n        /* \"#utility.yul\":1935:1957   */\n      lt\n        /* \"#utility.yul\":1914:1932   */\n      0xffffffffffffffff\n        /* \"#utility.yul\":1902:1912   */\n      dup3\n        /* \"#utility.yul\":1899:1933   */\n      gt\n        /* \"#utility.yul\":1896:1958   */\n      or\n        /* \"#utility.yul\":1893:1981   */\n      iszero\n      tag_168\n      jumpi\n        /* \"#utility.yul\":1961:1979   */\n      tag_169\n      tag_98\n      jump\t// in\n    tag_169:\n        /* \"#utility.yul\":1893:1981   */\n    tag_168:\n        /* \"#utility.yul\":2001:2011   */\n      dup1\n        /* \"#utility.yul\":1997:1999   */\n      0x40\n        /* \"#utility.yul\":1990:2012   */\n      mstore\n        /* \"#utility.yul\":1780:2018   */\n      pop\n        /* \"#utility.yul\":1737:2018   */\n      pop\n      pop\n      jump\t// out\n        /* \"#utility.yul\":2024:2153   */\n    tag_100:\n        /* \"#utility.yul\":2058:2064   */\n      0x00\n        /* \"#utility.yul\":2085:2105   */\n      tag_171\n      tag_85\n      jump\t// in\n    tag_171:\n        /* \"#utility.yul\":2075:2105   */\n      swap1\n      pop\n        /* \"#utility.yul\":2114:2147   */\n      tag_172\n        /* \"#utility.yul\":2142:2146   */\n      dup3\n        /* \"#utility.yul\":2134:2140   */\n      dup3\n        /* \"#utility.yul\":2114:2147   */\n      tag_99\n      jump\t// in\n    tag_172:\n        /* \"#utility.yul\":2024:2153   */\n      swap2\n      swap1\n      pop\n      jump\t// out\n        /* \"#utility.yul\":2159:2467   */\n    tag_101:\n        /* \"#utility.yul\":2221:2225   */\n      0x00\n        /* \"#utility.yul\":2311:2329   */\n      0xffffffffffffffff\n        /* \"#utility.yul\":2303:2309   */\n      dup3\n        /* \"#utility.yul\":2300:2330   */\n      gt\n        /* \"#utility.yul\":2297:2353   */\n      iszero\n      tag_174\n      jumpi\n        /* \"#utility.yul\":2333:2351   */\n      tag_175\n      tag_98\n      jump\t// in\n    tag_175:\n        /* \"#utility.yul\":2297:2353   */\n    tag_174:\n        /* \"#utility.yul\":2371:2400   */\n      tag_176\n        /* \"#utility.yul\":2393:2399   */\n      dup3\n        /* \"#utility.yul\":2371:2400   */\n      tag_97\n      jump\t// in\n    tag_176:\n        /* \"#utility.yul\":2363:2400   */\n      swap1\n      pop\n        /* \"#utility.yul\":2455:2459   */\n      0x20\n        /* \"#utility.yul\":2449:2453   */\n      dup2\n        /* \"#utility.yul\":2445:2460   */\n      add\n        /* \"#utility.yul\":2437:2460   */\n      swap1\n      pop\n        /* \"#utility.yul\":2159:2467   */\n      swap2\n      swap1\n      pop\n      jump\t// out\n        /* \"#utility.yul\":2473:2621   */\n    tag_102:\n        /* \"#utility.yul\":2571:2577   */\n      dup3\n        /* \"#utility.yul\":2566:2569   */\n      dup2\n        /* \"#utility.yul\":2561:2564   */\n      dup4\n        /* \"#utility.yul\":2548:2578   */\n      calldatacopy\n        /* \"#utility.yul\":2612:2613   */\n      0x00\n        /* \"#utility.yul\":2603:2609   */\n      dup4\n        /* \"#utility.yul\":2598:2601   */\n      dup4\n        /* \"#utility.yul\":2594:2610   */\n      add\n        /* \"#utility.yul\":2587:2614   */\n      mstore\n        /* \"#utility.yul\":2473:2621   */\n      pop\n      pop\n      pop\n      jump\t// out\n        /* \"#utility.yul\":2627:3052   */\n    tag_103:\n        /* \"#utility.yul\":2705:2710   */\n      0x00\n        /* \"#utility.yul\":2730:2796   */\n      tag_179\n        /* \"#utility.yul\":2746:2795   */\n      tag_180\n        /* \"#utility.yul\":2788:2794   */\n      dup5\n        /* \"#utility.yul\":2746:2795   */\n      tag_101\n      jump\t// in\n    tag_180:\n        /* \"#utility.yul\":2730:2796   */\n      tag_100\n      jump\t// in\n    tag_179:\n        /* \"#utility.yul\":2721:2796   */\n      swap1\n      pop\n        /* \"#utility.yul\":2819:2825   */\n      dup3\n        /* \"#utility.yul\":2812:2817   */\n      dup2\n        /* \"#utility.yul\":2805:2826   */\n      mstore\n        /* \"#utility.yul\":2857:2861   */\n      0x20\n        /* \"#utility.yul\":2850:2855   */\n      dup2\n        /* \"#utility.yul\":2846:2862   */\n      add\n        /* \"#utility.yul\":2895:2898   */\n      dup5\n        /* \"#utility.yul\":2886:2892   */\n      dup5\n        /* \"#utility.yul\":2881:2884   */\n      dup5\n        /* \"#utility.yul\":2877:2893   */\n      add\n        /* \"#utility.yul\":2874:2899   */\n      gt\n        /* \"#utility.yul\":2871:2983   */\n      iszero\n      tag_181\n      jumpi\n        /* \"#utility.yul\":2902:2981   */\n      tag_182\n      tag_96\n      jump\t// in\n    tag_182:\n        /* \"#utility.yul\":2871:2983   */\n    tag_181:\n        /* \"#utility.yul\":2992:3046   */\n      tag_183\n        /* \"#utility.yul\":3039:3045   */\n      dup5\n        /* \"#utility.yul\":3034:3037   */\n      dup3\n        /* \"#utility.yul\":3029:3032   */\n      dup6\n        /* \"#utility.yul\":2992:3046   */\n      tag_102\n      jump\t// in\n    tag_183:\n        /* \"#utility.yul\":2711:3052   */\n      pop\n        /* \"#utility.yul\":2627:3052   */\n      swap4\n      swap3\n      pop\n      pop\n      pop\n      jump\t// out\n        /* \"#utility.yul\":3072:3412   */\n    tag_104:\n        /* \"#utility.yul\":3128:3133   */\n      0x00\n        /* \"#utility.yul\":3177:3180   */\n      dup3\n        /* \"#utility.yul\":3170:3174   */\n      0x1f\n        /* \"#utility.yul\":3162:3168   */\n      dup4\n        /* \"#utility.yul\":3158:3175   */\n      add\n        /* \"#utility.yul\":3154:3181   */\n      slt\n        /* \"#utility.yul\":3144:3266   */\n      tag_185\n      jumpi\n        /* \"#utility.yul\":3185:3264   */\n      tag_186\n      tag_95\n      jump\t// in\n    tag_186:\n        /* \"#utility.yul\":3144:3266   */\n    tag_185:\n        /* \"#utility.yul\":3302:3308   */\n      dup2\n        /* \"#utility.yul\":3289:3309   */\n      calldataload\n        /* \"#utility.yul\":3327:3406   */\n      tag_187\n        /* \"#utility.yul\":3402:3405   */\n      dup5\n        /* \"#utility.yul\":3394:3400   */\n      dup3\n        /* \"#utility.yul\":3387:3391   */\n      0x20\n        /* \"#utility.yul\":3379:3385   */\n      dup7\n        /* \"#utility.yul\":3375:3392   */\n      add\n        /* \"#utility.yul\":3327:3406   */\n      tag_103\n      jump\t// in\n    tag_187:\n        /* \"#utility.yul\":3318:3406   */\n      swap2\n      pop\n        /* \"#utility.yul\":3134:3412   */\n      pop\n        /* \"#utility.yul\":3072:3412   */\n      swap3\n      swap2\n      pop\n      pop\n      jump\t// out\n        /* \"#utility.yul\":3418:4217   */\n    tag_9:\n        /* \"#utility.yul\":3505:3511   */\n      0x00\n        /* \"#utility.yul\":3513:3519   */\n      0x00\n        /* \"#utility.yul\":3521:3527   */\n      0x00\n        /* \"#utility.yul\":3570:3572   */\n      0x60\n        /* \"#utility.yul\":3558:3567   */\n      dup5\n        /* \"#utility.yul\":3549:3556   */\n      dup7\n        /* \"#utility.yul\":3545:3568   */\n      sub\n        /* \"#utility.yul\":3541:3573   */\n      slt\n        /* \"#utility.yul\":3538:3657   */\n      iszero\n      tag_189\n      jumpi\n        /* \"#utility.yul\":3576:3655   */\n      tag_190\n      tag_86\n      jump\t// in\n    tag_190:\n        /* \"#utility.yul\":3538:3657   */\n    tag_189:\n        /* \"#utility.yul\":3696:3697   */\n      0x00\n        /* \"#utility.yul\":3721:3774   */\n      tag_191\n        /* \"#utility.yul\":3766:3773   */\n      dup7\n        /* \"#utility.yul\":3757:3763   */\n      dup3\n        /* \"#utility.yul\":3746:3755   */\n      dup8\n        /* \"#utility.yul\":3742:3764   */\n      add\n        /* \"#utility.yul\":3721:3774   */\n      tag_91\n      jump\t// in\n    tag_191:\n        /* \"#utility.yul\":3711:3774   */\n      swap4\n      pop\n        /* \"#utility.yul\":3667:3784   */\n      pop\n        /* \"#utility.yul\":3823:3825   */\n      0x20\n        /* \"#utility.yul\":3849:3902   */\n      tag_192\n        /* \"#utility.yul\":3894:3901   */\n      dup7\n        /* \"#utility.yul\":3885:3891   */\n      dup3\n        /* \"#utility.yul\":3874:3883   */\n      dup8\n        /* \"#utility.yul\":3870:3892   */\n      add\n        /* \"#utility.yul\":3849:3902   */\n      tag_94\n      jump\t// in\n    tag_192:\n        /* \"#utility.yul\":3839:3902   */\n      swap3\n      pop\n        /* \"#utility.yul\":3794:3912   */\n      pop\n        /* \"#utility.yul\":3979:3981   */\n      0x40\n        /* \"#utility.yul\":3968:3977   */\n      dup5\n        /* \"#utility.yul\":3964:3982   */\n      add\n        /* \"#utility.yul\":3951:3983   */\n      calldataload\n        /* \"#utility.yul\":4010:4028   */\n      0xffffffffffffffff\n        /* \"#utility.yul\":4002:4008   */\n      dup2\n        /* \"#utility.yul\":3999:4029   */\n      gt\n        /* \"#utility.yul\":3996:4113   */\n      iszero\n      tag_193\n      jumpi\n        /* \"#utility.yul\":4032:4111   */\n      tag_194\n      tag_87\n      jump\t// in\n    tag_194:\n        /* \"#utility.yul\":3996:4113   */\n    tag_193:\n        /* \"#utility.yul\":4137:4200   */\n      tag_195\n        /* \"#utility.yul\":4192:4199   */\n      dup7\n        /* \"#utility.yul\":4183:4189   */\n      dup3\n        /* \"#utility.yul\":4172:4181   */\n      dup8\n        /* \"#utility.yul\":4168:4190   */\n      add\n        /* \"#utility.yul\":4137:4200   */\n      tag_104\n      jump\t// in\n    tag_195:\n        /* \"#utility.yul\":4127:4200   */\n      swap2\n      pop\n        /* \"#utility.yul\":3922:4210   */\n      pop\n        /* \"#utility.yul\":3418:4217   */\n      swap3\n      pop\n      swap3\n      pop\n      swap3\n      jump\t// out\n        /* \"#utility.yul\":4223:4552   */\n    tag_17:\n        /* \"#utility.yul\":4282:4288   */\n      0x00\n        /* \"#utility.yul\":4331:4333   */\n      0x20\n        /* \"#utility.yul\":4319:4328   */\n      dup3\n        /* \"#utility.yul\":4310:4317   */\n      dup5\n        /* \"#utility.yul\":4306:4329   */\n      sub\n        /* \"#utility.yul\":4302:4334   */\n      slt\n        /* \"#utility.yul\":4299:4418   */\n      iszero\n      tag_197\n      jumpi\n        /* \"#utility.yul\":4337:4416   */\n      tag_198\n      tag_86\n      jump\t// in\n    tag_198:\n        /* \"#utility.yul\":4299:4418   */\n    tag_197:\n        /* \"#utility.yul\":4457:4458   */\n      0x00\n        /* \"#utility.yul\":4482:4535   */\n      tag_199\n        /* \"#utility.yul\":4527:4534   */\n      dup5\n        /* \"#utility.yul\":4518:4524   */\n      dup3\n        /* \"#utility.yul\":4507:4516   */\n      dup6\n        /* \"#utility.yul\":4503:4525   */\n      add\n        /* \"#utility.yul\":4482:4535   */\n      tag_94\n      jump\t// in\n    tag_199:\n        /* \"#utility.yul\":4472:4535   */\n      swap2\n      pop\n        /* \"#utility.yul\":4428:4545   */\n      pop\n        /* \"#utility.yul\":4223:4552   */\n      swap3\n      swap2\n      pop\n      pop\n      jump\t// out\n        /* \"#utility.yul\":4558:4727   */\n    tag_105:\n        /* \"#utility.yul\":4642:4653   */\n      0x00\n        /* \"#utility.yul\":4676:4682   */\n      dup3\n        /* \"#utility.yul\":4671:4674   */\n      dup3\n        /* \"#utility.yul\":4664:4683   */\n      mstore\n        /* \"#utility.yul\":4716:4720   */\n      0x20\n        /* \"#utility.yul\":4711:4714   */\n      dup3\n        /* \"#utility.yul\":4707:4721   */\n      add\n        /* \"#utility.yul\":4692:4721   */\n      swap1\n      pop\n        /* \"#utility.yul\":4558:4727   */\n      swap3\n      swap2\n      pop\n      pop\n      jump\t// out\n        /* \"#utility.yul\":4733:4907   */\n    tag_106:\n        /* \"#utility.yul\":4873:4899   */\n      0x596f7520617265206e6f742061206c696272617269616e210000000000000000\n        /* \"#utility.yul\":4869:4870   */\n      0x00\n        /* \"#utility.yul\":4861:4867   */\n      dup3\n        /* \"#utility.yul\":4857:4871   */\n      add\n        /* \"#utility.yul\":4850:4900   */\n      mstore\n        /* \"#utility.yul\":4733:4907   */\n      pop\n      jump\t// out\n        /* \"#utility.yul\":4913:5279   */\n    tag_107:\n        /* \"#utility.yul\":5055:5058   */\n      0x00\n        /* \"#utility.yul\":5076:5143   */\n      tag_203\n        /* \"#utility.yul\":5140:5142   */\n      0x18\n        /* \"#utility.yul\":5135:5138   */\n      dup4\n        /* \"#utility.yul\":5076:5143   */\n      tag_105\n      jump\t// in\n    tag_203:\n        /* \"#utility.yul\":5069:5143   */\n      swap2\n      pop\n        /* \"#utility.yul\":5152:5245   */\n      tag_204\n        /* \"#utility.yul\":5241:5244   */\n      dup3\n        /* \"#utility.yul\":5152:5245   */\n      tag_106\n      jump\t// in\n    tag_204:\n        /* \"#utility.yul\":5270:5272   */\n      0x20\n        /* \"#utility.yul\":5265:5268   */\n      dup3\n        /* \"#utility.yul\":5261:5273   */\n      add\n        /* \"#utility.yul\":5254:5273   */\n      swap1\n      pop\n        /* \"#utility.yul\":4913:5279   */\n      swap2\n      swap1\n      pop\n      jump\t// out\n        /* \"#utility.yul\":5285:5704   */\n    tag_24:\n        /* \"#utility.yul\":5451:5455   */\n      0x00\n        /* \"#utility.yul\":5489:5491   */\n      0x20\n        /* \"#utility.yul\":5478:5487   */\n      dup3\n        /* \"#utility.yul\":5474:5492   */\n      add\n        /* \"#utility.yul\":5466:5492   */\n      swap1\n      pop\n        /* \"#utility.yul\":5538:5547   */\n      dup2\n        /* \"#utility.yul\":5532:5536   */\n      dup2\n        /* \"#utility.yul\":5528:5548   */\n      sub\n        /* \"#utility.yul\":5524:5525   */\n      0x00\n        /* \"#utility.yul\":5513:5522   */\n      dup4\n        /* \"#utility.yul\":5509:5526   */\n      add\n        /* \"#utility.yul\":5502:5549   */\n      mstore\n        /* \"#utility.yul\":5566:5697   */\n      tag_206\n        /* \"#utility.yul\":5692:5696   */\n      dup2\n        /* \"#utility.yul\":5566:5697   */\n      tag_107\n      jump\t// in\n    tag_206:\n        /* \"#utility.yul\":5558:5697   */\n      swap1\n      pop\n        /* \"#utility.yul\":5285:5704   */\n      swap2\n      swap1\n      pop\n      jump\t// out\n        /* \"#utility.yul\":5710:5885   */\n    tag_108:\n        /* \"#utility.yul\":5850:5877   */\n      0x53747564656e7420616c726561647920656e726f6c6c65642100000000000000\n        /* \"#utility.yul\":5846:5847   */\n      0x00\n        /* \"#utility.yul\":5838:5844   */\n      dup3\n        /* \"#utility.yul\":5834:5848   */\n      add\n        /* \"#utility.yul\":5827:5878   */\n      mstore\n        /* \"#utility.yul\":5710:5885   */\n      pop\n      jump\t// out\n        /* \"#utility.yul\":5891:6257   */\n    tag_109:\n        /* \"#utility.yul\":6033:6036   */\n      0x00\n        /* \"#utility.yul\":6054:6121   */\n      tag_209\n        /* \"#utility.yul\":6118:6120   */\n      0x19\n        /* \"#utility.yul\":6113:6116   */\n      dup4\n        /* \"#utility.yul\":6054:6121   */\n      tag_105\n      jump\t// in\n    tag_209:\n        /* \"#utility.yul\":6047:6121   */\n      swap2\n      pop\n        /* \"#utility.yul\":6130:6223   */\n      tag_210\n        /* \"#utility.yul\":6219:6222   */\n      dup3\n        /* \"#utility.yul\":6130:6223   */\n      tag_108\n      jump\t// in\n    tag_210:\n        /* \"#utility.yul\":6248:6250   */\n      0x20\n        /* \"#utility.yul\":6243:6246   */\n      dup3\n        /* \"#utility.yul\":6239:6251   */\n      add\n        /* \"#utility.yul\":6232:6251   */\n      swap1\n      pop\n        /* \"#utility.yul\":5891:6257   */\n      swap2\n      swap1\n      pop\n      jump\t// out\n        /* \"#utility.yul\":6263:6682   */\n    tag_28:\n        /* \"#utility.yul\":6429:6433   */\n      0x00\n        /* \"#utility.yul\":6467:6469   */\n      0x20\n        /* \"#utility.yul\":6456:6465   */\n      dup3\n        /* \"#utility.yul\":6452:6470   */\n      add\n        /* \"#utility.yul\":6444:6470   */\n      swap1\n      pop\n        /* \"#utility.yul\":6516:6525   */\n      dup2\n        /* \"#utility.yul\":6510:6514   */\n      dup2\n        /* \"#utility.yul\":6506:6526   */\n      sub\n        /* \"#utility.yul\":6502:6503   */\n      0x00\n        /* \"#utility.yul\":6491:6500   */\n      dup4\n        /* \"#utility.yul\":6487:6504   */\n      add\n        /* \"#utility.yul\":6480:6527   */\n      mstore\n        /* \"#utility.yul\":6544:6675   */\n      tag_212\n        /* \"#utility.yul\":6670:6674   */\n      dup2\n        /* \"#utility.yul\":6544:6675   */\n      tag_109\n      jump\t// in\n    tag_212:\n        /* \"#utility.yul\":6536:6675   */\n      swap1\n      pop\n        /* \"#utility.yul\":6263:6682   */\n      swap2\n      swap1\n      pop\n      jump\t// out\n        /* \"#utility.yul\":6688:6787   */\n    tag_110:\n        /* \"#utility.yul\":6740:6746   */\n      0x00\n        /* \"#utility.yul\":6774:6779   */\n      dup2\n        /* \"#utility.yul\":6768:6780   */\n      mload\n        /* \"#utility.yul\":6758:6780   */\n      swap1\n      pop\n        /* \"#utility.yul\":6688:6787   */\n      swap2\n      swap1\n      pop\n      jump\t// out\n        /* \"#utility.yul\":6793:6973   */\n    tag_111:\n        /* \"#utility.yul\":6841:6918   */\n      0x4e487b7100000000000000000000000000000000000000000000000000000000\n        /* \"#utility.yul\":6838:6839   */\n      0x00\n        /* \"#utility.yul\":6831:6919   */\n      mstore\n        /* \"#utility.yul\":6938:6942   */\n      0x22\n        /* \"#utility.yul\":6935:6936   */\n      0x04\n        /* \"#utility.yul\":6928:6943   */\n      mstore\n        /* \"#utility.yul\":6962:6966   */\n      0x24\n        /* \"#utility.yul\":6959:6960   */\n      0x00\n        /* \"#utility.yul\":6952:6967   */\n      revert\n        /* \"#utility.yul\":6979:7299   */\n    tag_112:\n        /* \"#utility.yul\":7023:7029   */\n      0x00\n        /* \"#utility.yul\":7060:7061   */\n      0x02\n        /* \"#utility.yul\":7054:7058   */\n      dup3\n        /* \"#utility.yul\":7050:7062   */\n      div\n        /* \"#utility.yul\":7040:7062   */\n      swap1\n      pop\n        /* \"#utility.yul\":7107:7108   */\n      0x01\n        /* \"#utility.yul\":7101:7105   */\n      dup3\n        /* \"#utility.yul\":7097:7109   */\n      and\n        /* \"#utility.yul\":7128:7146   */\n      dup1\n        /* \"#utility.yul\":7118:7199   */\n      tag_216\n      jumpi\n        /* \"#utility.yul\":7184:7188   */\n      0x7f\n        /* \"#utility.yul\":7176:7182   */\n      dup3\n        /* \"#utility.yul\":7172:7189   */\n      and\n        /* \"#utility.yul\":7162:7189   */\n      swap2\n      pop\n        /* \"#utility.yul\":7118:7199   */\n    tag_216:\n        /* \"#utility.yul\":7246:7248   */\n      0x20\n        /* \"#utility.yul\":7238:7244   */\n      dup3\n        /* \"#utility.yul\":7235:7249   */\n      lt\n        /* \"#utility.yul\":7215:7233   */\n      dup2\n        /* \"#utility.yul\":7212:7250   */\n      sub\n        /* \"#utility.yul\":7209:7293   */\n      tag_217\n      jumpi\n        /* \"#utility.yul\":7265:7283   */\n      tag_218\n      tag_111\n      jump\t// in\n    tag_218:\n        /* \"#utility.yul\":7209:7293   */\n    tag_217:\n        /* \"#utility.yul\":7030:7299   */\n      pop\n        /* \"#utility.yul\":6979:7299   */\n      swap2\n      swap1\n      pop\n      jump\t// out\n        /* \"#utility.yul\":7305:7446   */\n    tag_113:\n        /* \"#utility.yul\":7354:7358   */\n      0x00\n        /* \"#utility.yul\":7377:7380   */\n      dup2\n        /* \"#utility.yul\":7369:7380   */\n      swap1\n      pop\n        /* \"#utility.yul\":7400:7403   */\n      dup2\n        /* \"#utility.yul\":7397:7398   */\n      0x00\n        /* \"#utility.yul\":7390:7404   */\n      mstore\n        /* \"#utility.yul\":7434:7438   */\n      0x20\n        /* \"#utility.yul\":7431:7432   */\n      0x00\n        /* \"#utility.yul\":7421:7439   */\n      keccak256\n        /* \"#utility.yul\":7413:7439   */\n      swap1\n      pop\n        /* \"#utility.yul\":7305:7446   */\n      swap2\n      swap1\n      pop\n      jump\t// out\n        /* \"#utility.yul\":7452:7545   */\n    tag_114:\n        /* \"#utility.yul\":7489:7495   */\n      0x00\n        /* \"#utility.yul\":7536:7538   */\n      0x20\n        /* \"#utility.yul\":7531:7533   */\n      0x1f\n        /* \"#utility.yul\":7524:7529   */\n      dup4\n        /* \"#utility.yul\":7520:7534   */\n      add\n        /* \"#utility.yul\":7516:7539   */\n      div\n        /* \"#utility.yul\":7506:7539   */\n      swap1\n      pop\n        /* \"#utility.yul\":7452:7545   */\n      swap2\n      swap1\n      pop\n      jump\t// out\n        /* \"#utility.yul\":7551:7658   */\n    tag_115:\n        /* \"#utility.yul\":7595:7603   */\n      0x00\n        /* \"#utility.yul\":7645:7650   */\n      dup3\n        /* \"#utility.yul\":7639:7643   */\n      dup3\n        /* \"#utility.yul\":7635:7651   */\n      shl\n        /* \"#utility.yul\":7614:7651   */\n      swap1\n      pop\n        /* \"#utility.yul\":7551:7658   */\n      swap3\n      swap2\n      pop\n      pop\n      jump\t// out\n        /* \"#utility.yul\":7664:8057   */\n    tag_116:\n        /* \"#utility.yul\":7733:7739   */\n      0x00\n        /* \"#utility.yul\":7783:7784   */\n      0x08\n        /* \"#utility.yul\":7771:7781   */\n      dup4\n        /* \"#utility.yul\":7767:7785   */\n      mul\n        /* \"#utility.yul\":7806:7903   */\n      tag_223\n        /* \"#utility.yul\":7836:7902   */\n      0xffffffffffffffffffffffffffffffffffffffffffffffffffffffffffffffff\n        /* \"#utility.yul\":7825:7834   */\n      dup3\n        /* \"#utility.yul\":7806:7903   */\n      tag_115\n      jump\t// in\n    tag_223:\n        /* \"#utility.yul\":7924:7963   */\n      tag_224\n        /* \"#utility.yul\":7954:7962   */\n      dup7\n        /* \"#utility.yul\":7943:7952   */\n      dup4\n        /* \"#utility.yul\":7924:7963   */\n      tag_115\n      jump\t// in\n    tag_224:\n        /* \"#utility.yul\":7912:7963   */\n      swap6\n      pop\n        /* \"#utility.yul\":7996:8000   */\n      dup1\n        /* \"#utility.yul\":7992:8001   */\n      not\n        /* \"#utility.yul\":7985:7990   */\n      dup5\n        /* \"#utility.yul\":7981:8002   */\n      and\n        /* \"#utility.yul\":7972:8002   */\n      swap4\n      pop\n        /* \"#utility.yul\":8045:8049   */\n      dup1\n        /* \"#utility.yul\":8035:8043   */\n      dup7\n        /* \"#utility.yul\":8031:8050   */\n      and\n        /* \"#utility.yul\":8024:8029   */\n      dup5\n        /* \"#utility.yul\":8021:8051   */\n      or\n        /* \"#utility.yul\":8011:8051   */\n      swap3\n      pop\n        /* \"#utility.yul\":7740:8057   */\n      pop\n      pop\n        /* \"#utility.yul\":7664:8057   */\n      swap4\n      swap3\n      pop\n      pop\n      pop\n      jump\t// out\n        /* \"#utility.yul\":8063:8123   */\n    tag_117:\n        /* \"#utility.yul\":8091:8094   */\n      0x00\n        /* \"#utility.yul\":8112:8117   */\n      dup2\n        /* \"#utility.yul\":8105:8117   */\n      swap1\n      pop\n        /* \"#utility.yul\":8063:8123   */\n      swap2\n      swap1\n      pop\n      jump\t// out\n        /* \"#utility.yul\":8129:8271   */\n    tag_118:\n        /* \"#utility.yul\":8179:8188   */\n      0x00\n        /* \"#utility.yul\":8212:8265   */\n      tag_227\n        /* \"#utility.yul\":8230:8264   */\n      tag_228\n        /* \"#utility.yul\":8239:8263   */\n      tag_229\n        /* \"#utility.yul\":8257:8262   */\n      dup5\n        /* \"#utility.yul\":8239:8263   */\n      tag_92\n      jump\t// in\n    tag_229:\n        /* \"#utility.yul\":8230:8264   */\n      tag_117\n      jump\t// in\n    tag_228:\n        /* \"#utility.yul\":8212:8265   */\n      tag_92\n      jump\t// in\n    tag_227:\n        /* \"#utility.yul\":8199:8265   */\n      swap1\n      pop\n        /* \"#utility.yul\":8129:8271   */\n      swap2\n      swap1\n      pop\n      jump\t// out\n        /* \"#utility.yul\":8277:8352   */\n    tag_119:\n        /* \"#utility.yul\":8320:8323   */\n      0x00\n        /* \"#utility.yul\":8341:8346   */\n      dup2\n        /* \"#utility.yul\":8334:8346   */\n      swap1\n      pop\n        /* \"#utility.yul\":8277:8352   */\n      swap2\n      swap1\n      pop\n      jump\t// out\n        /* \"#utility.yul\":8358:8627   */\n    tag_120:\n        /* \"#utility.yul\":8468:8507   */\n      tag_232\n        /* \"#utility.yul\":8499:8506   */\n      dup4\n        /* \"#utility.yul\":8468:8507   */\n      tag_118\n      jump\t// in\n    tag_232:\n        /* \"#utility.yul\":8529:8620   */\n      tag_233\n        /* \"#utility.yul\":8578:8619   */\n      tag_234\n        /* \"#utility.yul\":8602:8618   */\n      dup3\n        /* \"#utility.yul\":8578:8619   */\n      tag_119\n      jump\t// in\n    tag_234:\n        /* \"#utility.yul\":8570:8576   */\n      dup5\n        /* \"#utility.yul\":8563:8567   */\n      dup5\n        /* \"#utility.yul\":8557:8568   */\n      sload\n        /* \"#utility.yul\":8529:8620   */\n      tag_116\n      jump\t// in\n    tag_233:\n        /* \"#utility.yul\":8523:8527   */\n      dup3\n        /* \"#utility.yul\":8516:8621   */\n      sstore\n        /* \"#utility.yul\":8434:8627   */\n      pop\n        /* \"#utility.yul\":8358:8627   */\n      pop\n      pop\n      pop\n      jump\t// out\n        /* \"#utility.yul\":8633:8706   */\n    tag_121:\n        /* \"#utility.yul\":8678:8681   */\n      0x00\n        /* \"#utility.yul\":8699:8700   */\n      0x00\n        /* \"#utility.yul\":8692:8700   */\n      swap1\n      pop\n        /* \"#utility.yul\":8633:8706   */\n      swap1\n      jump\t// out\n        /* \"#utility.yul\":8712:8901   */\n    tag_122:\n        /* \"#utility.yul\":8789:8821   */\n      tag_237\n      tag_121\n      jump\t// in\n    tag_237:\n        /* \"#utility.yul\":8830:8895   */\n      tag_238\n        /* \"#utility.yul\":8888:8894   */\n      dup2\n        /* \"#utility.yul\":8880:8886   */\n      dup5\n        /* \"#utility.yul\":8874:8878   */\n      dup5\n        /* \"#utility.yul\":8830:8895   */\n      tag_120\n      jump\t// in\n    tag_238:\n        /* \"#utility.yul\":8765:8901   */\n      pop\n        /* \"#utility.yul\":8712:8901   */\n      pop\n      pop\n      jump\t// out\n        /* \"#utility.yul\":8907:9093   */\n    tag_123:\n        /* \"#utility.yul\":8967:9087   */\n    tag_240:\n        /* \"#utility.yul\":8984:8987   */\n      dup2\n        /* \"#utility.yul\":8977:8982   */\n      dup2\n        /* \"#utility.yul\":8974:8988   */\n      lt\n        /* \"#utility.yul\":8967:9087   */\n      iszero\n      tag_242\n      jumpi\n        /* \"#utility.yul\":9038:9077   */\n      tag_243\n        /* \"#utility.yul\":9075:9076   */\n      0x00\n        /* \"#utility.yul\":9068:9073   */\n      dup3\n        /* \"#utility.yul\":9038:9077   */\n      tag_122\n      jump\t// in\n    tag_243:\n        /* \"#utility.yul\":9011:9012   */\n      0x01\n        /* \"#utility.yul\":9004:9009   */\n      dup2\n        /* \"#utility.yul\":9000:9013   */\n      add\n        /* \"#utility.yul\":8991:9013   */\n      swap1\n      pop\n        /* \"#utility.yul\":8967:9087   */\n      jump(tag_240)\n    tag_242:\n        /* \"#utility.yul\":8907:9093   */\n      pop\n      pop\n      jump\t// out\n        /* \"#utility.yul\":9099:9642   */\n    tag_124:\n        /* \"#utility.yul\":9200:9202   */\n      0x1f\n        /* \"#utility.yul\":9195:9198   */\n      dup3\n        /* \"#utility.yul\":9192:9203   */\n      gt\n        /* \"#utility.yul\":9189:9635   */\n      iszero\n      tag_245\n      jumpi\n        /* \"#utility.yul\":9234:9272   */\n      tag_246\n        /* \"#utility.yul\":9266:9271   */\n      dup2\n        /* \"#utility.yul\":9234:9272   */\n      tag_113\n      jump\t// in\n    tag_246:\n        /* \"#utility.yul\":9318:9347   */\n      tag_247\n        /* \"#utility.yul\":9336:9346   */\n      dup5\n        /* \"#utility.yul\":9318:9347   */\n      tag_114\n      jump\t// in\n    tag_247:\n        /* \"#utility.yul\":9308:9316   */\n      dup2\n        /* \"#utility.yul\":9304:9348   */\n      add\n        /* \"#utility.yul\":9501:9503   */\n      0x20\n        /* \"#utility.yul\":9489:9499   */\n      dup6\n        /* \"#utility.yul\":9486:9504   */\n      lt\n        /* \"#utility.yul\":9483:9532   */\n      iszero\n      tag_248\n      jumpi\n        /* \"#utility.yul\":9522:9530   */\n      dup2\n        /* \"#utility.yul\":9507:9530   */\n      swap1\n      pop\n        /* \"#utility.yul\":9483:9532   */\n    tag_248:\n        /* \"#utility.yul\":9545:9625   */\n      tag_249\n        /* \"#utility.yul\":9601:9623   */\n      tag_250\n        /* \"#utility.yul\":9619:9622   */\n      dup6\n        /* \"#utility.yul\":9601:9623   */\n      tag_114\n      jump\t// in\n    tag_250:\n        /* \"#utility.yul\":9591:9599   */\n      dup4\n        /* \"#utility.yul\":9587:9624   */\n      add\n        /* \"#utility.yul\":9574:9585   */\n      dup3\n        /* \"#utility.yul\":9545:9625   */\n      tag_123\n      jump\t// in\n    tag_249:\n        /* \"#utility.yul\":9204:9635   */\n      pop\n      pop\n        /* \"#utility.yul\":9189:9635   */\n    tag_245:\n        /* \"#utility.yul\":9099:9642   */\n      pop\n      pop\n      pop\n      jump\t// out\n        /* \"#utility.yul\":9648:9765   */\n    tag_125:\n        /* \"#utility.yul\":9702:9710   */\n      0x00\n        /* \"#utility.yul\":9752:9757   */\n      dup3\n        /* \"#utility.yul\":9746:9750   */\n      dup3\n        /* \"#utility.yul\":9742:9758   */\n      shr\n        /* \"#utility.yul\":9721:9758   */\n      swap1\n      pop\n        /* \"#utility.yul\":9648:9765   */\n      swap3\n      swap2\n      pop\n      pop\n      jump\t// out\n        /* \"#utility.yul\":9771:9940   */\n    tag_126:\n        /* \"#utility.yul\":9815:9821   */\n      0x00\n        /* \"#utility.yul\":9848:9899   */\n      tag_253\n        /* \"#utility.yul\":9896:9897   */\n      0x00\n        /* \"#utility.yul\":9892:9898   */\n      not\n        /* \"#utility.yul\":9884:9889   */\n      dup5\n        /* \"#utility.yul\":9881:9882   */\n      0x08\n        /* \"#utility.yul\":9877:9890   */\n      mul\n        /* \"#utility.yul\":9848:9899   */\n      tag_125\n      jump\t// in\n    tag_253:\n        /* \"#utility.yul\":9844:9900   */\n      not\n        /* \"#utility.yul\":9929:9933   */\n      dup1\n        /* \"#utility.yul\":9923:9927   */\n      dup4\n        /* \"#utility.yul\":9919:9934   */\n      and\n        /* \"#utility.yul\":9909:9934   */\n      swap2\n      pop\n        /* \"#utility.yul\":9822:9940   */\n      pop\n        /* \"#utility.yul\":9771:9940   */\n      swap3\n      swap2\n      pop\n      pop\n      jump\t// out\n        /* \"#utility.yul\":9945:10240   */\n    tag_127:\n        /* \"#utility.yul\":10021:10025   */\n      0x00\n        /* \"#utility.yul\":10167:10196   */\n      tag_255\n        /* \"#utility.yul\":10192:10195   */\n      dup4\n        /* \"#utility.yul\":10186:10190   */\n      dup4\n        /* \"#utility.yul\":10167:10196   */\n      tag_126\n      jump\t// in\n    tag_255:\n        /* \"#utility.yul\":10159:10196   */\n      swap2\n      pop\n        /* \"#utility.yul\":10229:10232   */\n      dup3\n        /* \"#utility.yul\":10226:10227   */\n      0x02\n        /* \"#utility.yul\":10222:10233   */\n      mul\n        /* \"#utility.yul\":10216:10220   */\n      dup3\n        /* \"#utility.yul\":10213:10234   */\n      or\n        /* \"#utility.yul\":10205:10234   */\n      swap1\n      pop\n        /* \"#utility.yul\":9945:10240   */\n      swap3\n      swap2\n      pop\n      pop\n      jump\t// out\n        /* \"#utility.yul\":10245:11640   */\n    tag_30:\n        /* \"#utility.yul\":10362:10399   */\n      tag_257\n        /* \"#utility.yul\":10395:10398   */\n      dup3\n        /* \"#utility.yul\":10362:10399   */\n      tag_110\n      jump\t// in\n    tag_257:\n        /* \"#utility.yul\":10464:10482   */\n      0xffffffffffffffff\n        /* \"#utility.yul\":10456:10462   */\n      dup2\n        /* \"#utility.yul\":10453:10483   */\n      gt\n        /* \"#utility.yul\":10450:10506   */\n      iszero\n      tag_258\n      jumpi\n        /* \"#utility.yul\":10486:10504   */\n      tag_259\n      tag_98\n      jump\t// in\n    tag_259:\n        /* \"#utility.yul\":10450:10506   */\n    tag_258:\n        /* \"#utility.yul\":10530:10568   */\n      tag_260\n        /* \"#utility.yul\":10562:10566   */\n      dup3\n        /* \"#utility.yul\":10556:10567   */\n      sload\n        /* \"#utility.yul\":10530:10568   */\n      tag_112\n      jump\t// in\n    tag_260:\n        /* \"#utility.yul\":10615:10682   */\n      tag_261\n        /* \"#utility.yul\":10675:10681   */\n      dup3\n        /* \"#utility.yul\":10667:10673   */\n      dup3\n        /* \"#utility.yul\":10661:10665   */\n      dup6\n        /* \"#utility.yul\":10615:10682   */\n      tag_124\n      jump\t// in\n    tag_261:\n        /* \"#utility.yul\":10709:10710   */\n      0x00\n        /* \"#utility.yul\":10733:10737   */\n      0x20\n        /* \"#utility.yul\":10720:10737   */\n      swap1\n      pop\n        /* \"#utility.yul\":10765:10767   */\n      0x1f\n        /* \"#utility.yul\":10757:10763   */\n      dup4\n        /* \"#utility.yul\":10754:10768   */\n      gt\n        /* \"#utility.yul\":10782:10783   */\n      0x01\n        /* \"#utility.yul\":10777:11395   */\n      dup2\n      eq\n      tag_263\n      jumpi\n        /* \"#utility.yul\":11439:11440   */\n      0x00\n        /* \"#utility.yul\":11456:11462   */\n      dup5\n        /* \"#utility.yul\":11453:11530   */\n      iszero\n      tag_264\n      jumpi\n        /* \"#utility.yul\":11505:11514   */\n      dup3\n        /* \"#utility.yul\":11500:11503   */\n      dup8\n        /* \"#utility.yul\":11496:11515   */\n      add\n        /* \"#utility.yul\":11490:11516   */\n      mload\n        /* \"#utility.yul\":11481:11516   */\n      swap1\n      pop\n        /* \"#utility.yul\":11453:11530   */\n    tag_264:\n        /* \"#utility.yul\":11556:11623   */\n      tag_265\n        /* \"#utility.yul\":11616:11622   */\n      dup6\n        /* \"#utility.yul\":11609:11614   */\n      dup3\n        /* \"#utility.yul\":11556:11623   */\n      tag_127\n      jump\t// in\n    tag_265:\n        /* \"#utility.yul\":11550:11554   */\n      dup7\n        /* \"#utility.yul\":11543:11624   */\n      sstore\n        /* \"#utility.yul\":11412:11634   */\n      pop\n        /* \"#utility.yul\":10747:11634   */\n      jump(tag_262)\n        /* \"#utility.yul\":10777:11395   */\n    tag_263:\n        /* \"#utility.yul\":10829:10833   */\n      0x1f\n        /* \"#utility.yul\":10825:10834   */\n      not\n        /* \"#utility.yul\":10817:10823   */\n      dup5\n        /* \"#utility.yul\":10813:10835   */\n      and\n        /* \"#utility.yul\":10863:10900   */\n      tag_266\n        /* \"#utility.yul\":10895:10899   */\n      dup7\n        /* \"#utility.yul\":10863:10900   */\n      tag_113\n      jump\t// in\n    tag_266:\n        /* \"#utility.yul\":10922:10923   */\n      0x00\n        /* \"#utility.yul\":10936:11144   */\n    tag_267:\n        /* \"#utility.yul\":10950:10957   */\n      dup3\n        /* \"#utility.yul\":10947:10948   */\n      dup2\n        /* \"#utility.yul\":10944:10958   */\n      lt\n        /* \"#utility.yul\":10936:11144   */\n      iszero\n      tag_269\n      jumpi\n        /* \"#utility.yul\":11029:11038   */\n      dup5\n        /* \"#utility.yul\":11024:11027   */\n      dup10\n        /* \"#utility.yul\":11020:11039   */\n      add\n        /* \"#utility.yul\":11014:11040   */\n      mload\n        /* \"#utility.yul\":11006:11012   */\n      dup3\n        /* \"#utility.yul\":10999:11041   */\n      sstore\n        /* \"#utility.yul\":11080:11081   */\n      0x01\n        /* \"#utility.yul\":11072:11078   */\n      dup3\n        /* \"#utility.yul\":11068:11082   */\n      add\n        /* \"#utility.yul\":11058:11082   */\n      swap2\n      pop\n        /* \"#utility.yul\":11127:11129   */\n      0x20\n        /* \"#utility.yul\":11116:11125   */\n      dup6\n        /* \"#utility.yul\":11112:11130   */\n      add\n        /* \"#utility.yul\":11099:11130   */\n      swap5\n      pop\n        /* \"#utility.yul\":10973:10977   */\n      0x20\n        /* \"#utility.yul\":10970:10971   */\n      dup2\n        /* \"#utility.yul\":10966:10978   */\n      add\n        /* \"#utility.yul\":10961:10978   */\n      swap1\n      pop\n        /* \"#utility.yul\":10936:11144   */\n      jump(tag_267)\n    tag_269:\n        /* \"#utility.yul\":11172:11178   */\n      dup7\n        /* \"#utility.yul\":11163:11170   */\n      dup4\n        /* \"#utility.yul\":11160:11179   */\n      lt\n        /* \"#utility.yul\":11157:11336   */\n      iszero\n      tag_270\n      jumpi\n        /* \"#utility.yul\":11230:11239   */\n      dup5\n        /* \"#utility.yul\":11225:11228   */\n      dup10\n        /* \"#utility.yul\":11221:11240   */\n      add\n        /* \"#utility.yul\":11215:11241   */\n      mload\n        /* \"#utility.yul\":11273:11321   */\n      tag_271\n        /* \"#utility.yul\":11315:11319   */\n      0x1f\n        /* \"#utility.yul\":11307:11313   */\n      dup10\n        /* \"#utility.yul\":11303:11320   */\n      and\n        /* \"#utility.yul\":11292:11301   */\n      dup3\n        /* \"#utility.yul\":11273:11321   */\n      tag_126\n      jump\t// in\n    tag_271:\n        /* \"#utility.yul\":11265:11271   */\n      dup4\n        /* \"#utility.yul\":11258:11322   */\n      sstore\n        /* \"#utility.yul\":11180:11336   */\n      pop\n        /* \"#utility.yul\":11157:11336   */\n    tag_270:\n        /* \"#utility.yul\":11382:11383   */\n      0x01\n        /* \"#utility.yul\":11378:11379   */\n      0x02\n        /* \"#utility.yul\":11370:11376   */\n      dup9\n        /* \"#utility.yul\":11366:11380   */\n      mul\n        /* \"#utility.yul\":11362:11384   */\n      add\n        /* \"#utility.yul\":11356:11360   */\n      dup9\n        /* \"#utility.yul\":11349:11385   */\n      sstore\n        /* \"#utility.yul\":10784:11395   */\n      pop\n      pop\n      pop\n        /* \"#utility.yul\":10747:11634   */\n    tag_262:\n      pop\n        /* \"#utility.yul\":10337:11640   */\n      pop\n      pop\n      pop\n        /* \"#utility.yul\":10245:11640   */\n      pop\n      pop\n      jump\t// out\n        /* \"#utility.yul\":11646:11818   */\n    tag_128:\n        /* \"#utility.yul\":11786:11810   */\n      0x596f7520617265206e6f7420612073747564656e742100000000000000000000\n        /* \"#utility.yul\":11782:11783   */\n      0x00\n        /* \"#utility.yul\":11774:11780   */\n      dup3\n        /* \"#utility.yul\":11770:11784   */\n      add\n        /* \"#utility.yul\":11763:11811   */\n      mstore\n        /* \"#utility.yul\":11646:11818   */\n      pop\n      jump\t// out\n        /* \"#utility.yul\":11824:12190   */\n    tag_129:\n        /* \"#utility.yul\":11966:11969   */\n      0x00\n        /* \"#utility.yul\":11987:12054   */\n      tag_274\n        /* \"#utility.yul\":12051:12053   */\n      0x16\n        /* \"#utility.yul\":12046:12049   */\n      dup4\n        /* \"#utility.yul\":11987:12054   */\n      tag_105\n      jump\t// in\n    tag_274:\n        /* \"#utility.yul\":11980:12054   */\n      swap2\n      pop\n        /* \"#utility.yul\":12063:12156   */\n      tag_275\n        /* \"#utility.yul\":12152:12155   */\n      dup3\n        /* \"#utility.yul\":12063:12156   */\n      tag_128\n      jump\t// in\n    tag_275:\n        /* \"#utility.yul\":12181:12183   */\n      0x20\n        /* \"#utility.yul\":12176:12179   */\n      dup3\n        /* \"#utility.yul\":12172:12184   */\n      add\n        /* \"#utility.yul\":12165:12184   */\n      swap1\n      pop\n        /* \"#utility.yul\":11824:12190   */\n      swap2\n      swap1\n      pop\n      jump\t// out\n        /* \"#utility.yul\":12196:12615   */\n    tag_34:\n        /* \"#utility.yul\":12362:12366   */\n      0x00\n        /* \"#utility.yul\":12400:12402   */\n      0x20\n        /* \"#utility.yul\":12389:12398   */\n      dup3\n        /* \"#utility.yul\":12385:12403   */\n      add\n        /* \"#utility.yul\":12377:12403   */\n      swap1\n      pop\n        /* \"#utility.yul\":12449:12458   */\n      dup2\n        /* \"#utility.yul\":12443:12447   */\n      dup2\n        /* \"#utility.yul\":12439:12459   */\n      sub\n        /* \"#utility.yul\":12435:12436   */\n      0x00\n        /* \"#utility.yul\":12424:12433   */\n      dup4\n        /* \"#utility.yul\":12420:12437   */\n      add\n        /* \"#utility.yul\":12413:12460   */\n      mstore\n        /* \"#utility.yul\":12477:12608   */\n      tag_277\n        /* \"#utility.yul\":12603:12607   */\n      dup2\n        /* \"#utility.yul\":12477:12608   */\n      tag_129\n      jump\t// in\n    tag_277:\n        /* \"#utility.yul\":12469:12608   */\n      swap1\n      pop\n        /* \"#utility.yul\":12196:12615   */\n      swap2\n      swap1\n      pop\n      jump\t// out\n        /* \"#utility.yul\":12621:12796   */\n    tag_130:\n        /* \"#utility.yul\":12761:12788   */\n      0x596f7520617265206e6f742079657420656e726f6c6c65642100000000000000\n        /* \"#utility.yul\":12757:12758   */\n      0x00\n        /* \"#utility.yul\":12749:12755   */\n      dup3\n        /* \"#utility.yul\":12745:12759   */\n      add\n        /* \"#utility.yul\":12738:12789   */\n      mstore\n        /* \"#utility.yul\":12621:12796   */\n      pop\n      jump\t// out\n        /* \"#utility.yul\":12802:13168   */\n    tag_131:\n        /* \"#utility.yul\":12944:12947   */\n      0x00\n        /* \"#utility.yul\":12965:13032   */\n      tag_280\n        /* \"#utility.yul\":13029:13031   */\n      0x19\n        /* \"#utility.yul\":13024:13027   */\n      dup4\n        /* \"#utility.yul\":12965:13032   */\n      tag_105\n      jump\t// in\n    tag_280:\n        /* \"#utility.yul\":12958:13032   */\n      swap2\n      pop\n        /* \"#utility.yul\":13041:13134   */\n      tag_281\n        /* \"#utility.yul\":13130:13133   */\n      dup3\n        /* \"#utility.yul\":13041:13134   */\n      tag_130\n      jump\t// in\n    tag_281:\n        /* \"#utility.yul\":13159:13161   */\n      0x20\n        /* \"#utility.yul\":13154:13157   */\n      dup3\n        /* \"#utility.yul\":13150:13162   */\n      add\n        /* \"#utility.yul\":13143:13162   */\n      swap1\n      pop\n        /* \"#utility.yul\":12802:13168   */\n      swap2\n      swap1\n      pop\n      jump\t// out\n        /* \"#utility.yul\":13174:13593   */\n    tag_38:\n        /* \"#utility.yul\":13340:13344   */\n      0x00\n        /* \"#utility.yul\":13378:13380   */\n      0x20\n        /* \"#utility.yul\":13367:13376   */\n      dup3\n        /* \"#utility.yul\":13363:13381   */\n      add\n        /* \"#utility.yul\":13355:13381   */\n      swap1\n      pop\n        /* \"#utility.yul\":13427:13436   */\n      dup2\n        /* \"#utility.yul\":13421:13425   */\n      dup2\n        /* \"#utility.yul\":13417:13437   */\n      sub\n        /* \"#utility.yul\":13413:13414   */\n      0x00\n        /* \"#utility.yul\":13402:13411   */\n      dup4\n        /* \"#utility.yul\":13398:13415   */\n      add\n        /* \"#utility.yul\":13391:13438   */\n      mstore\n        /* \"#utility.yul\":13455:13586   */\n      tag_283\n        /* \"#utility.yul\":13581:13585   */\n      dup2\n        /* \"#utility.yul\":13455:13586   */\n      tag_131\n      jump\t// in\n    tag_283:\n        /* \"#utility.yul\":13447:13586   */\n      swap1\n      pop\n        /* \"#utility.yul\":13174:13593   */\n      swap2\n      swap1\n      pop\n      jump\t// out\n        /* \"#utility.yul\":13599:13819   */\n    tag_132:\n        /* \"#utility.yul\":13739:13773   */\n      0x596f752068617665206e6f7420626f72726f776564206120626f6f6b20796574\n        /* \"#utility.yul\":13735:13736   */\n      0x00\n        /* \"#utility.yul\":13727:13733   */\n      dup3\n        /* \"#utility.yul\":13723:13737   */\n      add\n        /* \"#utility.yul\":13716:13774   */\n      mstore\n        /* \"#utility.yul\":13808:13811   */\n      0x2100000000000000000000000000000000000000000000000000000000000000\n        /* \"#utility.yul\":13803:13805   */\n      0x20\n        /* \"#utility.yul\":13795:13801   */\n      dup3\n        /* \"#utility.yul\":13791:13806   */\n      add\n        /* \"#utility.yul\":13784:13812   */\n      mstore\n        /* \"#utility.yul\":13599:13819   */\n      pop\n      jump\t// out\n        /* \"#utility.yul\":13825:14191   */\n    tag_133:\n        /* \"#utility.yul\":13967:13970   */\n      0x00\n        /* \"#utility.yul\":13988:14055   */\n      tag_286\n        /* \"#utility.yul\":14052:14054   */\n      0x21\n        /* \"#utility.yul\":14047:14050   */\n      dup4\n        /* \"#utility.yul\":13988:14055   */\n      tag_105\n      jump\t// in\n    tag_286:\n        /* \"#utility.yul\":13981:14055   */\n      swap2\n      pop\n        /* \"#utility.yul\":14064:14157   */\n      tag_287\n        /* \"#utility.yul\":14153:14156   */\n      dup3\n        /* \"#utility.yul\":14064:14157   */\n      tag_132\n      jump\t// in\n    tag_287:\n        /* \"#utility.yul\":14182:14184   */\n      0x40\n        /* \"#utility.yul\":14177:14180   */\n      dup3\n        /* \"#utility.yul\":14173:14185   */\n      add\n        /* \"#utility.yul\":14166:14185   */\n      swap1\n      pop\n        /* \"#utility.yul\":13825:14191   */\n      swap2\n      swap1\n      pop\n      jump\t// out\n        /* \"#utility.yul\":14197:14616   */\n    tag_42:\n        /* \"#utility.yul\":14363:14367   */\n      0x00\n        /* \"#utility.yul\":14401:14403   */\n      0x20\n        /* \"#utility.yul\":14390:14399   */\n      dup3\n        /* \"#utility.yul\":14386:14404   */\n      add\n        /* \"#utility.yul\":14378:14404   */\n      swap1\n      pop\n        /* \"#utility.yul\":14450:14459   */\n      dup2\n        /* \"#utility.yul\":14444:14448   */\n      dup2\n        /* \"#utility.yul\":14440:14460   */\n      sub\n        /* \"#utility.yul\":14436:14437   */\n      0x00\n        /* \"#utility.yul\":14425:14434   */\n      dup4\n        /* \"#utility.yul\":14421:14438   */\n      add\n        /* \"#utility.yul\":14414:14461   */\n      mstore\n        /* \"#utility.yul\":14478:14609   */\n      tag_289\n        /* \"#utility.yul\":14604:14608   */\n      dup2\n        /* \"#utility.yul\":14478:14609   */\n      tag_133\n      jump\t// in\n    tag_289:\n        /* \"#utility.yul\":14470:14609   */\n      swap1\n      pop\n        /* \"#utility.yul\":14197:14616   */\n      swap2\n      swap1\n      pop\n      jump\t// out\n        /* \"#utility.yul\":14622:14854   */\n    tag_134:\n        /* \"#utility.yul\":14762:14796   */\n      0x596f752068617665206120486f6c64204f726465722e204e6f7420616c6c6f77\n        /* \"#utility.yul\":14758:14759   */\n      0x00\n        /* \"#utility.yul\":14750:14756   */\n      dup3\n        /* \"#utility.yul\":14746:14760   */\n      add\n        /* \"#utility.yul\":14739:14797   */\n      mstore\n        /* \"#utility.yul\":14831:14846   */\n      0x656420746f20626f72726f772100000000000000000000000000000000000000\n        /* \"#utility.yul\":14826:14828   */\n      0x20\n        /* \"#utility.yul\":14818:14824   */\n      dup3\n        /* \"#utility.yul\":14814:14829   */\n      add\n        /* \"#utility.yul\":14807:14847   */\n      mstore\n        /* \"#utility.yul\":14622:14854   */\n      pop\n      jump\t// out\n        /* \"#utility.yul\":14860:15226   */\n    tag_135:\n        /* \"#utility.yul\":15002:15005   */\n      0x00\n        /* \"#utility.yul\":15023:15090   */\n      tag_292\n        /* \"#utility.yul\":15087:15089   */\n      0x2d\n        /* \"#utility.yul\":15082:15085   */\n      dup4\n        /* \"#utility.yul\":15023:15090   */\n      tag_105\n      jump\t// in\n    tag_292:\n        /* \"#utility.yul\":15016:15090   */\n      swap2\n      pop\n        /* \"#utility.yul\":15099:15192   */\n      tag_293\n        /* \"#utility.yul\":15188:15191   */\n      dup3\n        /* \"#utility.yul\":15099:15192   */\n      tag_134\n      jump\t// in\n    tag_293:\n        /* \"#utility.yul\":15217:15219   */\n      0x40\n        /* \"#utility.yul\":15212:15215   */\n      dup3\n        /* \"#utility.yul\":15208:15220   */\n      add\n        /* \"#utility.yul\":15201:15220   */\n      swap1\n      pop\n        /* \"#utility.yul\":14860:15226   */\n      swap2\n      swap1\n      pop\n      jump\t// out\n        /* \"#utility.yul\":15232:15651   */\n    tag_56:\n        /* \"#utility.yul\":15398:15402   */\n      0x00\n        /* \"#utility.yul\":15436:15438   */\n      0x20\n        /* \"#utility.yul\":15425:15434   */\n      dup3\n        /* \"#utility.yul\":15421:15439   */\n      add\n        /* \"#utility.yul\":15413:15439   */\n      swap1\n      pop\n        /* \"#utility.yul\":15485:15494   */\n      dup2\n        /* \"#utility.yul\":15479:15483   */\n      dup2\n        /* \"#utility.yul\":15475:15495   */\n      sub\n        /* \"#utility.yul\":15471:15472   */\n      0x00\n        /* \"#utility.yul\":15460:15469   */\n      dup4\n        /* \"#utility.yul\":15456:15473   */\n      add\n        /* \"#utility.yul\":15449:15496   */\n      mstore\n        /* \"#utility.yul\":15513:15644   */\n      tag_295\n        /* \"#utility.yul\":15639:15643   */\n      dup2\n        /* \"#utility.yul\":15513:15644   */\n      tag_135\n      jump\t// in\n    tag_295:\n        /* \"#utility.yul\":15505:15644   */\n      swap1\n      pop\n        /* \"#utility.yul\":15232:15651   */\n      swap2\n      swap1\n      pop\n      jump\t// out\n        /* \"#utility.yul\":15657:15893   */\n    tag_136:\n        /* \"#utility.yul\":15797:15831   */\n      0x596f7520616c726561647920626f72726f7765642e204e6f7420616c6c6f7765\n        /* \"#utility.yul\":15793:15794   */\n      0x00\n        /* \"#utility.yul\":15785:15791   */\n      dup3\n        /* \"#utility.yul\":15781:15795   */\n      add\n        /* \"#utility.yul\":15774:15832   */\n      mstore\n        /* \"#utility.yul\":15866:15885   */\n      0x6420746f20626f72726f77206d6f726521000000000000000000000000000000\n        /* \"#utility.yul\":15861:15863   */\n      0x20\n        /* \"#utility.yul\":15853:15859   */\n      dup3\n        /* \"#utility.yul\":15849:15864   */\n      add\n        /* \"#utility.yul\":15842:15886   */\n      mstore\n        /* \"#utility.yul\":15657:15893   */\n      pop\n      jump\t// out\n        /* \"#utility.yul\":15899:16265   */\n    tag_137:\n        /* \"#utility.yul\":16041:16044   */\n      0x00\n        /* \"#utility.yul\":16062:16129   */\n      tag_298\n        /* \"#utility.yul\":16126:16128   */\n      0x31\n        /* \"#utility.yul\":16121:16124   */\n      dup4\n        /* \"#utility.yul\":16062:16129   */\n      tag_105\n      jump\t// in\n    tag_298:\n        /* \"#utility.yul\":16055:16129   */\n      swap2\n      pop\n        /* \"#utility.yul\":16138:16231   */\n      tag_299\n        /* \"#utility.yul\":16227:16230   */\n      dup3\n        /* \"#utility.yul\":16138:16231   */\n      tag_136\n      jump\t// in\n    tag_299:\n        /* \"#utility.yul\":16256:16258   */\n      0x40\n        /* \"#utility.yul\":16251:16254   */\n      dup3\n        /* \"#utility.yul\":16247:16259   */\n      add\n        /* \"#utility.yul\":16240:16259   */\n      swap1\n      pop\n        /* \"#utility.yul\":15899:16265   */\n      swap2\n      swap1\n      pop\n      jump\t// out\n        /* \"#utility.yul\":16271:16690   */\n    tag_60:\n        /* \"#utility.yul\":16437:16441   */\n      0x00\n        /* \"#utility.yul\":16475:16477   */\n      0x20\n        /* \"#utility.yul\":16464:16473   */\n      dup3\n        /* \"#utility.yul\":16460:16478   */\n      add\n        /* \"#utility.yul\":16452:16478   */\n      swap1\n      pop\n        /* \"#utility.yul\":16524:16533   */\n      dup2\n        /* \"#utility.yul\":16518:16522   */\n      dup2\n        /* \"#utility.yul\":16514:16534   */\n      sub\n        /* \"#utility.yul\":16510:16511   */\n      0x00\n        /* \"#utility.yul\":16499:16508   */\n      dup4\n        /* \"#utility.yul\":16495:16512   */\n      add\n        /* \"#utility.yul\":16488:16535   */\n      mstore\n        /* \"#utility.yul\":16552:16683   */\n      tag_301\n        /* \"#utility.yul\":16678:16682   */\n      dup2\n        /* \"#utility.yul\":16552:16683   */\n      tag_137\n      jump\t// in\n    tag_301:\n        /* \"#utility.yul\":16544:16683   */\n      swap1\n      pop\n        /* \"#utility.yul\":16271:16690   */\n      swap2\n      swap1\n      pop\n      jump\t// out\n        /* \"#utility.yul\":16696:16876   */\n    tag_138:\n        /* \"#utility.yul\":16744:16821   */\n      0x4e487b7100000000000000000000000000000000000000000000000000000000\n        /* \"#utility.yul\":16741:16742   */\n      0x00\n        /* \"#utility.yul\":16734:16822   */\n      mstore\n        /* \"#utility.yul\":16841:16845   */\n      0x11\n        /* \"#utility.yul\":16838:16839   */\n      0x04\n        /* \"#utility.yul\":16831:16846   */\n      mstore\n        /* \"#utility.yul\":16865:16869   */\n      0x24\n        /* \"#utility.yul\":16862:16863   */\n      0x00\n        /* \"#utility.yul\":16855:16870   */\n      revert\n        /* \"#utility.yul\":16882:17073   */\n    tag_64:\n        /* \"#utility.yul\":16922:16925   */\n      0x00\n        /* \"#utility.yul\":16941:16961   */\n      tag_304\n        /* \"#utility.yul\":16959:16960   */\n      dup3\n        /* \"#utility.yul\":16941:16961   */\n      tag_92\n      jump\t// in\n    tag_304:\n        /* \"#utility.yul\":16936:16961   */\n      swap2\n      pop\n        /* \"#utility.yul\":16975:16995   */\n      tag_305\n        /* \"#utility.yul\":16993:16994   */\n      dup4\n        /* \"#utility.yul\":16975:16995   */\n      tag_92\n      jump\t// in\n    tag_305:\n        /* \"#utility.yul\":16970:16995   */\n      swap3\n      pop\n        /* \"#utility.yul\":17018:17019   */\n      dup3\n        /* \"#utility.yul\":17015:17016   */\n      dup3\n        /* \"#utility.yul\":17011:17020   */\n      add\n        /* \"#utility.yul\":17004:17020   */\n      swap1\n      pop\n        /* \"#utility.yul\":17039:17042   */\n      dup1\n        /* \"#utility.yul\":17036:17037   */\n      dup3\n        /* \"#utility.yul\":17033:17043   */\n      gt\n        /* \"#utility.yul\":17030:17066   */\n      iszero\n      tag_306\n      jumpi\n        /* \"#utility.yul\":17046:17064   */\n      tag_307\n      tag_138\n      jump\t// in\n    tag_307:\n        /* \"#utility.yul\":17030:17066   */\n    tag_306:\n        /* \"#utility.yul\":16882:17073   */\n      swap3\n      swap2\n      pop\n      pop\n      jump\t// out\n        /* \"#utility.yul\":17079:17197   */\n    tag_139:\n        /* \"#utility.yul\":17166:17190   */\n      tag_309\n        /* \"#utility.yul\":17184:17189   */\n      dup2\n        /* \"#utility.yul\":17166:17190   */\n      tag_92\n      jump\t// in\n    tag_309:\n        /* \"#utility.yul\":17161:17164   */\n      dup3\n        /* \"#utility.yul\":17154:17191   */\n      mstore\n        /* \"#utility.yul\":17079:17197   */\n      pop\n      pop\n      jump\t// out\n        /* \"#utility.yul\":17203:17425   */\n    tag_66:\n        /* \"#utility.yul\":17296:17300   */\n      0x00\n        /* \"#utility.yul\":17334:17336   */\n      0x20\n        /* \"#utility.yul\":17323:17332   */\n      dup3\n        /* \"#utility.yul\":17319:17337   */\n      add\n        /* \"#utility.yul\":17311:17337   */\n      swap1\n      pop\n        /* \"#utility.yul\":17347:17418   */\n      tag_311\n        /* \"#utility.yul\":17415:17416   */\n      0x00\n        /* \"#utility.yul\":17404:17413   */\n      dup4\n        /* \"#utility.yul\":17400:17417   */\n      add\n        /* \"#utility.yul\":17391:17397   */\n      dup5\n        /* \"#utility.yul\":17347:17418   */\n      tag_139\n      jump\t// in\n    tag_311:\n        /* \"#utility.yul\":17203:17425   */\n      swap3\n      swap2\n      pop\n      pop\n      jump\t// out\n        /* \"#utility.yul\":17431:17723   */\n    tag_140:\n        /* \"#utility.yul\":17571:17605   */\n      0x596f7520646f206e6f742068617665206120486f6c64204f726465722e20596f\n        /* \"#utility.yul\":17567:17568   */\n      0x00\n        /* \"#utility.yul\":17559:17565   */\n      dup3\n        /* \"#utility.yul\":17555:17569   */\n      add\n        /* \"#utility.yul\":17548:17606   */\n      mstore\n        /* \"#utility.yul\":17640:17674   */\n      0x7520646f206e6f74206861766520616e206f75747374616e64696e672062616c\n        /* \"#utility.yul\":17635:17637   */\n      0x20\n        /* \"#utility.yul\":17627:17633   */\n      dup3\n        /* \"#utility.yul\":17623:17638   */\n      add\n        /* \"#utility.yul\":17616:17675   */\n      mstore\n        /* \"#utility.yul\":17709:17715   */\n      0x616e636500000000000000000000000000000000000000000000000000000000\n        /* \"#utility.yul\":17704:17706   */\n      0x40\n        /* \"#utility.yul\":17696:17702   */\n      dup3\n        /* \"#utility.yul\":17692:17707   */\n      add\n        /* \"#utility.yul\":17685:17716   */\n      mstore\n        /* \"#utility.yul\":17431:17723   */\n      pop\n      jump\t// out\n        /* \"#utility.yul\":17729:18095   */\n    tag_141:\n        /* \"#utility.yul\":17871:17874   */\n      0x00\n        /* \"#utility.yul\":17892:17959   */\n      tag_314\n        /* \"#utility.yul\":17956:17958   */\n      0x44\n        /* \"#utility.yul\":17951:17954   */\n      dup4\n        /* \"#utility.yul\":17892:17959   */\n      tag_105\n      jump\t// in\n    tag_314:\n        /* \"#utility.yul\":17885:17959   */\n      swap2\n      pop\n        /* \"#utility.yul\":17968:18061   */\n      tag_315\n        /* \"#utility.yul\":18057:18060   */\n      dup3\n        /* \"#utility.yul\":17968:18061   */\n      tag_140\n      jump\t// in\n    tag_315:\n        /* \"#utility.yul\":18086:18088   */\n      0x60\n        /* \"#utility.yul\":18081:18084   */\n      dup3\n        /* \"#utility.yul\":18077:18089   */\n      add\n        /* \"#utility.yul\":18070:18089   */\n      swap1\n      pop\n        /* \"#utility.yul\":17729:18095   */\n      swap2\n      swap1\n      pop\n      jump\t// out\n        /* \"#utility.yul\":18101:18520   */\n    tag_76:\n        /* \"#utility.yul\":18267:18271   */\n      0x00\n        /* \"#utility.yul\":18305:18307   */\n      0x20\n        /* \"#utility.yul\":18294:18303   */\n      dup3\n        /* \"#utility.yul\":18290:18308   */\n      add\n        /* \"#utility.yul\":18282:18308   */\n      swap1\n      pop\n        /* \"#utility.yul\":18354:18363   */\n      dup2\n        /* \"#utility.yul\":18348:18352   */\n      dup2\n        /* \"#utility.yul\":18344:18364   */\n      sub\n        /* \"#utility.yul\":18340:18341   */\n      0x00\n        /* \"#utility.yul\":18329:18338   */\n      dup4\n        /* \"#utility.yul\":18325:18342   */\n      add\n        /* \"#utility.yul\":18318:18365   */\n      mstore\n        /* \"#utility.yul\":18382:18513   */\n      tag_317\n        /* \"#utility.yul\":18508:18512   */\n      dup2\n        /* \"#utility.yul\":18382:18513   */\n      tag_141\n      jump\t// in\n    tag_317:\n        /* \"#utility.yul\":18374:18513   */\n      swap1\n      pop\n        /* \"#utility.yul\":18101:18520   */\n      swap2\n      swap1\n      pop\n      jump\t// out\n        /* \"#utility.yul\":18526:18752   */\n    tag_142:\n        /* \"#utility.yul\":18666:18700   */\n      0x506c65617365207061792074686520657861637420616d6f756e74206f662074\n        /* \"#utility.yul\":18662:18663   */\n      0x00\n        /* \"#utility.yul\":18654:18660   */\n      dup3\n        /* \"#utility.yul\":18650:18664   */\n      add\n        /* \"#utility.yul\":18643:18701   */\n      mstore\n        /* \"#utility.yul\":18735:18744   */\n      0x68652066696e6500000000000000000000000000000000000000000000000000\n        /* \"#utility.yul\":18730:18732   */\n      0x20\n        /* \"#utility.yul\":18722:18728   */\n      dup3\n        /* \"#utility.yul\":18718:18733   */\n      add\n        /* \"#utility.yul\":18711:18745   */\n      mstore\n        /* \"#utility.yul\":18526:18752   */\n      pop\n      jump\t// out\n        /* \"#utility.yul\":18758:19124   */\n    tag_143:\n        /* \"#utility.yul\":18900:18903   */\n      0x00\n        /* \"#utility.yul\":18921:18988   */\n      tag_320\n        /* \"#utility.yul\":18985:18987   */\n      0x27\n        /* \"#utility.yul\":18980:18983   */\n      dup4\n        /* \"#utility.yul\":18921:18988   */\n      tag_105\n      jump\t// in\n    tag_320:\n        /* \"#utility.yul\":18914:18988   */\n      swap2\n      pop\n        /* \"#utility.yul\":18997:19090   */\n      tag_321\n        /* \"#utility.yul\":19086:19089   */\n      dup3\n        /* \"#utility.yul\":18997:19090   */\n      tag_142\n      jump\t// in\n    tag_321:\n        /* \"#utility.yul\":19115:19117   */\n      0x40\n        /* \"#utility.yul\":19110:19113   */\n      dup3\n        /* \"#utility.yul\":19106:19118   */\n      add\n        /* \"#utility.yul\":19099:19118   */\n      swap1\n      pop\n        /* \"#utility.yul\":18758:19124   */\n      swap2\n      swap1\n      pop\n      jump\t// out\n        /* \"#utility.yul\":19130:19549   */\n    tag_80:\n        /* \"#utility.yul\":19296:19300   */\n      0x00\n        /* \"#utility.yul\":19334:19336   */\n      0x20\n        /* \"#utility.yul\":19323:19332   */\n      dup3\n        /* \"#utility.yul\":19319:19337   */\n      add\n        /* \"#utility.yul\":19311:19337   */\n      swap1\n      pop\n        /* \"#utility.yul\":19383:19392   */\n      dup2\n        /* \"#utility.yul\":19377:19381   */\n      dup2\n        /* \"#utility.yul\":19373:19393   */\n      sub\n        /* \"#utility.yul\":19369:19370   */\n      0x00\n        /* \"#utility.yul\":19358:19367   */\n      dup4\n        /* \"#utility.yul\":19354:19371   */\n      add\n        /* \"#utility.yul\":19347:19394   */\n      mstore\n        /* \"#utility.yul\":19411:19542   */\n      tag_323\n        /* \"#utility.yul\":19537:19541   */\n      dup2\n        /* \"#utility.yul\":19411:19542   */\n      tag_143\n      jump\t// in\n    tag_323:\n        /* \"#utility.yul\":19403:19542   */\n      swap1\n      pop\n        /* \"#utility.yul\":19130:19549   */\n      swap2\n      swap1\n      pop\n      jump\t// out\n        /* \"#utility.yul\":19555:19749   */\n    tag_82:\n        /* \"#utility.yul\":19595:19599   */\n      0x00\n        /* \"#utility.yul\":19615:19635   */\n      tag_325\n        /* \"#utility.yul\":19633:19634   */\n      dup3\n        /* \"#utility.yul\":19615:19635   */\n      tag_92\n      jump\t// in\n    tag_325:\n        /* \"#utility.yul\":19610:19635   */\n      swap2\n      pop\n        /* \"#utility.yul\":19649:19669   */\n      tag_326\n        /* \"#utility.yul\":19667:19668   */\n      dup4\n        /* \"#utility.yul\":19649:19669   */\n      tag_92\n      jump\t// in\n    tag_326:\n        /* \"#utility.yul\":19644:19669   */\n      swap3\n      pop\n        /* \"#utility.yul\":19693:19694   */\n      dup3\n        /* \"#utility.yul\":19690:19691   */\n      dup3\n        /* \"#utility.yul\":19686:19695   */\n      sub\n        /* \"#utility.yul\":19678:19695   */\n      swap1\n      pop\n        /* \"#utility.yul\":19717:19718   */\n      dup2\n        /* \"#utility.yul\":19711:19715   */\n      dup2\n        /* \"#utility.yul\":19708:19719   */\n      gt\n        /* \"#utility.yul\":19705:19742   */\n      iszero\n      tag_327\n      jumpi\n        /* \"#utility.yul\":19722:19740   */\n      tag_328\n      tag_138\n      jump\t// in\n    tag_328:\n        /* \"#utility.yul\":19705:19742   */\n    tag_327:\n        /* \"#utility.yul\":19555:19749   */\n      swap3\n      swap2\n      pop\n      pop\n      jump\t// out\n\n    auxdata: 0xa2646970667358221220cdfb92af89da5a1fd357e3da23883d665754ae22f3dbe35339826f7f7c5db5c664736f6c634300081e0033\n}\n",
				"bytecode": {
					"linkReferences": {},
					"object": "6080604052348015600e575f5ffd5b50335f5f6101000a81548173ffffffffffffffffffffffffffffffffffffffff021916908373ffffffffffffffffffffffffffffffffffffffff1602179055506117008061005b5f395ff3fe60806040526004361061003e575f3560e01c806360e5f3bb14610042578063772aaeb51461006a578063c5ebeaec14610080578063d5503d5f146100a8575b5f5ffd5b34801561004d575f5ffd5b5061006860048036038101906100639190610e06565b6100b2565b005b348015610075575f5ffd5b5061007e610258565b005b34801561008b575f5ffd5b506100a660048036038101906100a19190610e72565b6105ac565b005b6100b0610902565b005b5f5f9054906101000a900473ffffffffffffffffffffffffffffffffffffffff1673ffffffffffffffffffffffffffffffffffffffff163373ffffffffffffffffffffffffffffffffffffffff1614610140576040517f08c379a000000000000000000000000000000000000000000000000000000000815260040161013790610ef7565b60405180910390fd5b5f60015f8573ffffffffffffffffffffffffffffffffffffffff1673ffffffffffffffffffffffffffffffffffffffff1681526020019081526020015f205f0154146101c1576040517f08c379a00000000000000000000000000000000000000000000000000000000081526004016101b890610f5f565b60405180910390fd5b8160015f8573ffffffffffffffffffffffffffffffffffffffff1673ffffffffffffffffffffffffffffffffffffffff1681526020019081526020015f205f01819055508060015f8573ffffffffffffffffffffffffffffffffffffffff1673ffffffffffffffffffffffffffffffffffffffff1681526020019081526020015f2060010190816102529190611184565b50505050565b5f5f9054906101000a900473ffffffffffffffffffffffffffffffffffffffff1673ffffffffffffffffffffffffffffffffffffffff163373ffffffffffffffffffffffffffffffffffffffff16036102e6576040517f08c379a00000000000000000000000000000000000000000000000000000000081526004016102dd9061129d565b60405180910390fd5b5f60015f3373ffffffffffffffffffffffffffffffffffffffff1673ffffffffffffffffffffffffffffffffffffffff1681526020019081526020015f205f015411610367576040517f08c379a000000000000000000000000000000000000000000000000000000000815260040161035e90611305565b60405180910390fd5b60015f3373ffffffffffffffffffffffffffffffffffffffff1673ffffffffffffffffffffffffffffffffffffffff1681526020019081526020015f206003015f9054906101000a900460ff166103f3576040517f08c379a00000000000000000000000000000000000000000000000000000000081526004016103ea90611393565b60405180910390fd5b5f6103fc610c25565b905060015f3373ffffffffffffffffffffffffffffffffffffffff1673ffffffffffffffffffffffffffffffffffffffff1681526020019081526020015f206004016001015481126104e8576001805f3373ffffffffffffffffffffffffffffffffffffffff1673ffffffffffffffffffffffffffffffffffffffff1681526020019081526020015f2060030160016101000a81548160ff02191690831515021790555061c35060015f3373ffffffffffffffffffffffffffffffffffffffff1673ffffffffffffffffffffffffffffffffffffffff1681526020019081526020015f20600201819055505b5f60015f3373ffffffffffffffffffffffffffffffffffffffff1673ffffffffffffffffffffffffffffffffffffffff1681526020019081526020015f206003015f6101000a81548160ff02191690831515021790555060405180604001604052805f81526020015f81525060015f3373ffffffffffffffffffffffffffffffffffffffff1673ffffffffffffffffffffffffffffffffffffffff1681526020019081526020015f206004015f820151815f01556020820151816001015590505050565b5f5f9054906101000a900473ffffffffffffffffffffffffffffffffffffffff1673ffffffffffffffffffffffffffffffffffffffff163373ffffffffffffffffffffffffffffffffffffffff160361063a576040517f08c379a00000000000000000000000000000000000000000000000000000000081526004016106319061129d565b60405180910390fd5b5f60015f3373ffffffffffffffffffffffffffffffffffffffff1673ffffffffffffffffffffffffffffffffffffffff1681526020019081526020015f205f0154116106bb576040517f08c379a00000000000000000000000000000000000000000000000000000000081526004016106b290611305565b60405180910390fd5b5f151560015f3373ffffffffffffffffffffffffffffffffffffffff1673ffffffffffffffffffffffffffffffffffffffff1681526020019081526020015f2060030160019054906101000a900460ff1615151461074e576040517f08c379a000000000000000000000000000000000000000000000000000000000815260040161074590611421565b60405180910390fd5b60015f3373ffffffffffffffffffffffffffffffffffffffff1673ffffffffffffffffffffffffffffffffffffffff1681526020019081526020015f206003015f9054906101000a900460ff16156107db576040517f08c379a00000000000000000000000000000000000000000000000000000000081526004016107d2906114af565b60405180910390fd5b6001805f3373ffffffffffffffffffffffffffffffffffffffff1673ffffffffffffffffffffffffffffffffffffffff1681526020019081526020015f206003015f6101000a81548160ff02191690831515021790555060405180604001604052808281526020016212750061084f610c25565b61085991906114fa565b81525060015f3373ffffffffffffffffffffffffffffffffffffffff1673ffffffffffffffffffffffffffffffffffffffff1681526020019081526020015f206004015f820151815f0155602082015181600101559050503373ffffffffffffffffffffffffffffffffffffffff167f7534124779d4d1eaf9cabba5f94b2b281856aba81c295cde4c9e69483b04b8cc826040516108f7919061153c565b60405180910390a250565b5f5f9054906101000a900473ffffffffffffffffffffffffffffffffffffffff1673ffffffffffffffffffffffffffffffffffffffff163373ffffffffffffffffffffffffffffffffffffffff1603610990576040517f08c379a00000000000000000000000000000000000000000000000000000000081526004016109879061129d565b60405180910390fd5b5f60015f3373ffffffffffffffffffffffffffffffffffffffff1673ffffffffffffffffffffffffffffffffffffffff1681526020019081526020015f205f015411610a11576040517f08c379a0000000000000000000000000000000000000000000000000000000008152600401610a0890611305565b60405180910390fd5b6001151560015f3373ffffffffffffffffffffffffffffffffffffffff1673ffffffffffffffffffffffffffffffffffffffff1681526020019081526020015f2060030160019054906101000a900460ff16151514610aa5576040517f08c379a0000000000000000000000000000000000000000000000000000000008152600401610a9c906115eb565b60405180910390fd5b3460015f3373ffffffffffffffffffffffffffffffffffffffff1673ffffffffffffffffffffffffffffffffffffffff1681526020019081526020015f206002015414610b27576040517f08c379a0000000000000000000000000000000000000000000000000000000008152600401610b1e90611679565b60405180910390fd5b3460015f3373ffffffffffffffffffffffffffffffffffffffff1673ffffffffffffffffffffffffffffffffffffffff1681526020019081526020015f206002015f828254610b769190611697565b925050819055505f60015f3373ffffffffffffffffffffffffffffffffffffffff1673ffffffffffffffffffffffffffffffffffffffff1681526020019081526020015f2060030160016101000a81548160ff0219169083151502179055503373ffffffffffffffffffffffffffffffffffffffff167fa7d0b298a569865ccc0fafa222e634caa4cce3d90be03818417feea98025a81e34604051610c1b919061153c565b60405180910390a2565b5f42905090565b5f604051905090565b5f5ffd5b5f5ffd5b5f73ffffffffffffffffffffffffffffffffffffffff82169050919050565b5f610c6682610c3d565b9050919050565b610c7681610c5c565b8114610c80575f5ffd5b50565b5f81359050610c9181610c6d565b92915050565b5f819050919050565b610ca981610c97565b8114610cb3575f5ffd5b50565b5f81359050610cc481610ca0565b92915050565b5f5ffd5b5f5ffd5b5f601f19601f8301169050919050565b7f4e487b71000000000000000000000000000000000000000000000000000000005f52604160045260245ffd5b610d1882610cd2565b810181811067ffffffffffffffff82111715610d3757610d36610ce2565b5b80604052505050565b5f610d49610c2c565b9050610d558282610d0f565b919050565b5f67ffffffffffffffff821115610d7457610d73610ce2565b5b610d7d82610cd2565b9050602081019050919050565b828183375f83830152505050565b5f610daa610da584610d5a565b610d40565b905082815260208101848484011115610dc657610dc5610cce565b5b610dd1848285610d8a565b509392505050565b5f82601f830112610ded57610dec610cca565b5b8135610dfd848260208601610d98565b91505092915050565b5f5f5f60608486031215610e1d57610e1c610c35565b5b5f610e2a86828701610c83565b9350506020610e3b86828701610cb6565b925050604084013567ffffffffffffffff811115610e5c57610e5b610c39565b5b610e6886828701610dd9565b9150509250925092565b5f60208284031215610e8757610e86610c35565b5b5f610e9484828501610cb6565b91505092915050565b5f82825260208201905092915050565b7f596f7520617265206e6f742061206c696272617269616e2100000000000000005f82015250565b5f610ee1601883610e9d565b9150610eec82610ead565b602082019050919050565b5f6020820190508181035f830152610f0e81610ed5565b9050919050565b7f53747564656e7420616c726561647920656e726f6c6c656421000000000000005f82015250565b5f610f49601983610e9d565b9150610f5482610f15565b602082019050919050565b5f6020820190508181035f830152610f7681610f3d565b9050919050565b5f81519050919050565b7f4e487b71000000000000000000000000000000000000000000000000000000005f52602260045260245ffd5b5f6002820490506001821680610fcb57607f821691505b602082108103610fde57610fdd610f87565b5b50919050565b5f819050815f5260205f209050919050565b5f6020601f8301049050919050565b5f82821b905092915050565b5f600883026110407fffffffffffffffffffffffffffffffffffffffffffffffffffffffffffffffff82611005565b61104a8683611005565b95508019841693508086168417925050509392505050565b5f819050919050565b5f61108561108061107b84610c97565b611062565b610c97565b9050919050565b5f819050919050565b61109e8361106b565b6110b26110aa8261108c565b848454611011565b825550505050565b5f5f905090565b6110c96110ba565b6110d4818484611095565b505050565b5b818110156110f7576110ec5f826110c1565b6001810190506110da565b5050565b601f82111561113c5761110d81610fe4565b61111684610ff6565b81016020851015611125578190505b61113961113185610ff6565b8301826110d9565b50505b505050565b5f82821c905092915050565b5f61115c5f1984600802611141565b1980831691505092915050565b5f611174838361114d565b9150826002028217905092915050565b61118d82610f7d565b67ffffffffffffffff8111156111a6576111a5610ce2565b5b6111b08254610fb4565b6111bb8282856110fb565b5f60209050601f8311600181146111ec575f84156111da578287015190505b6111e48582611169565b86555061124b565b601f1984166111fa86610fe4565b5f5b82811015611221578489015182556001820191506020850194506020810190506111fc565b8683101561123e578489015161123a601f89168261114d565b8355505b6001600288020188555050505b505050505050565b7f596f7520617265206e6f7420612073747564656e7421000000000000000000005f82015250565b5f611287601683610e9d565b915061129282611253565b602082019050919050565b5f6020820190508181035f8301526112b48161127b565b9050919050565b7f596f7520617265206e6f742079657420656e726f6c6c656421000000000000005f82015250565b5f6112ef601983610e9d565b91506112fa826112bb565b602082019050919050565b5f6020820190508181035f83015261131c816112e3565b9050919050565b7f596f752068617665206e6f7420626f72726f776564206120626f6f6b207965745f8201527f2100000000000000000000000000000000000000000000000000000000000000602082015250565b5f61137d602183610e9d565b915061138882611323565b604082019050919050565b5f6020820190508181035f8301526113aa81611371565b9050919050565b7f596f752068617665206120486f6c64204f726465722e204e6f7420616c6c6f775f8201527f656420746f20626f72726f772100000000000000000000000000000000000000602082015250565b5f61140b602d83610e9d565b9150611416826113b1565b604082019050919050565b5f6020820190508181035f830152611438816113ff565b9050919050565b7f596f7520616c726561647920626f72726f7765642e204e6f7420616c6c6f77655f8201527f6420746f20626f72726f77206d6f726521000000000000000000000000000000602082015250565b5f611499603183610e9d565b91506114a48261143f565b604082019050919050565b5f6020820190508181035f8301526114c68161148d565b9050919050565b7f4e487b71000000000000000000000000000000000000000000000000000000005f52601160045260245ffd5b5f61150482610c97565b915061150f83610c97565b9250828201905080821115611527576115266114cd565b5b92915050565b61153681610c97565b82525050565b5f60208201905061154f5f83018461152d565b92915050565b7f596f7520646f206e6f742068617665206120486f6c64204f726465722e20596f5f8201527f7520646f206e6f74206861766520616e206f75747374616e64696e672062616c60208201527f616e636500000000000000000000000000000000000000000000000000000000604082015250565b5f6115d5604483610e9d565b91506115e082611555565b606082019050919050565b5f6020820190508181035f830152611602816115c9565b9050919050565b7f506c65617365207061792074686520657861637420616d6f756e74206f6620745f8201527f68652066696e6500000000000000000000000000000000000000000000000000602082015250565b5f611663602783610e9d565b915061166e82611609565b604082019050919050565b5f6020820190508181035f83015261169081611657565b9050919050565b5f6116a182610c97565b91506116ac83610c97565b92508282039050818111156116c4576116c36114cd565b5b9291505056fea2646970667358221220cdfb92af89da5a1fd357e3da23883d665754ae22f3dbe35339826f7f7c5db5c664736f6c634300081e0033",
					"opcodes": "PUSH1 0x80 PUSH1 0x40 MSTORE CALLVALUE DUP1 ISZERO PUSH1 0xE JUMPI PUSH0 PUSH0 REVERT JUMPDEST POP CALLER PUSH0 PUSH0 PUSH2 0x100 EXP DUP2 SLOAD DUP2 PUSH20 0xFFFFFFFFFFFFFFFFFFFFFFFFFFFFFFFFFFFFFFFF MUL NOT AND SWAP1 DUP4 PUSH20 0xFFFFFFFFFFFFFFFFFFFFFFFFFFFFFFFFFFFFFFFF AND MUL OR SWAP1 SSTORE POP PUSH2 0x1700 DUP1 PUSH2 0x5B PUSH0 CODECOPY PUSH0 RETURN INVALID PUSH1 0x80 PUSH1 0x40 MSTORE PUSH1 0x4 CALLDATASIZE LT PUSH2 0x3E JUMPI PUSH0 CALLDATALOAD PUSH1 0xE0 SHR DUP1 PUSH4 0x60E5F3BB EQ PUSH2 0x42 JUMPI DUP1 PUSH4 0x772AAEB5 EQ PUSH2 0x6A JUMPI DUP1 PUSH4 0xC5EBEAEC EQ PUSH2 0x80 JUMPI DUP1 PUSH4 0xD5503D5F EQ PUSH2 0xA8 JUMPI JUMPDEST PUSH0 PUSH0 REVERT JUMPDEST CALLVALUE DUP1 ISZERO PUSH2 0x4D JUMPI PUSH0 PUSH0 REVERT JUMPDEST POP PUSH2 0x68 PUSH1 0x4 DUP1 CALLDATASIZE SUB DUP2 ADD SWAP1 PUSH2 0x63 SWAP2 SWAP1 PUSH2 0xE06 JUMP JUMPDEST PUSH2 0xB2 JUMP JUMPDEST STOP JUMPDEST CALLVALUE DUP1 ISZERO PUSH2 0x75 JUMPI PUSH0 PUSH0 REVERT JUMPDEST POP PUSH2 0x7E PUSH2 0x258 JUMP JUMPDEST STOP JUMPDEST CALLVALUE DUP1 ISZERO PUSH2 0x8B JUMPI PUSH0 PUSH0 REVERT JUMPDEST POP PUSH2 0xA6 PUSH1 0x4 DUP1 CALLDATASIZE SUB DUP2 ADD SWAP1 PUSH2 0xA1 SWAP2 SWAP1 PUSH2 0xE72 JUMP JUMPDEST PUSH2 0x5AC JUMP JUMPDEST STOP JUMPDEST PUSH2 0xB0 PUSH2 0x902 JUMP JUMPDEST STOP JUMPDEST PUSH0 PUSH0 SWAP1 SLOAD SWAP1 PUSH2 0x100 EXP SWAP1 DIV PUSH20 0xFFFFFFFFFFFFFFFFFFFFFFFFFFFFFFFFFFFFFFFF AND PUSH20 0xFFFFFFFFFFFFFFFFFFFFFFFFFFFFFFFFFFFFFFFF AND CALLER PUSH20 0xFFFFFFFFFFFFFFFFFFFFFFFFFFFFFFFFFFFFFFFF AND EQ PUSH2 0x140 JUMPI PUSH1 0x40 MLOAD PUSH32 0x8C379A000000000000000000000000000000000000000000000000000000000 DUP2 MSTORE PUSH1 0x4 ADD PUSH2 0x137 SWAP1 PUSH2 0xEF7 JUMP JUMPDEST PUSH1 0x40 MLOAD DUP1 SWAP2 SUB SWAP1 REVERT JUMPDEST PUSH0 PUSH1 0x1 PUSH0 DUP6 PUSH20 0xFFFFFFFFFFFFFFFFFFFFFFFFFFFFFFFFFFFFFFFF AND PUSH20 0xFFFFFFFFFFFFFFFFFFFFFFFFFFFFFFFFFFFFFFFF AND DUP2 MSTORE PUSH1 0x20 ADD SWAP1 DUP2 MSTORE PUSH1 0x20 ADD PUSH0 KECCAK256 PUSH0 ADD SLOAD EQ PUSH2 0x1C1 JUMPI PUSH1 0x40 MLOAD PUSH32 0x8C379A000000000000000000000000000000000000000000000000000000000 DUP2 MSTORE PUSH1 0x4 ADD PUSH2 0x1B8 SWAP1 PUSH2 0xF5F JUMP JUMPDEST PUSH1 0x40 MLOAD DUP1 SWAP2 SUB SWAP1 REVERT JUMPDEST DUP2 PUSH1 0x1 PUSH0 DUP6 PUSH20 0xFFFFFFFFFFFFFFFFFFFFFFFFFFFFFFFFFFFFFFFF AND PUSH20 0xFFFFFFFFFFFFFFFFFFFFFFFFFFFFFFFFFFFFFFFF AND DUP2 MSTORE PUSH1 0x20 ADD SWAP1 DUP2 MSTORE PUSH1 0x20 ADD PUSH0 KECCAK256 PUSH0 ADD DUP2 SWAP1 SSTORE POP DUP1 PUSH1 0x1 PUSH0 DUP6 PUSH20 0xFFFFFFFFFFFFFFFFFFFFFFFFFFFFFFFFFFFFFFFF AND PUSH20 0xFFFFFFFFFFFFFFFFFFFFFFFFFFFFFFFFFFFFFFFF AND DUP2 MSTORE PUSH1 0x20 ADD SWAP1 DUP2 MSTORE PUSH1 0x20 ADD PUSH0 KECCAK256 PUSH1 0x1 ADD SWAP1 DUP2 PUSH2 0x252 SWAP2 SWAP1 PUSH2 0x1184 JUMP JUMPDEST POP POP POP POP JUMP JUMPDEST PUSH0 PUSH0 SWAP1 SLOAD SWAP1 PUSH2 0x100 EXP SWAP1 DIV PUSH20 0xFFFFFFFFFFFFFFFFFFFFFFFFFFFFFFFFFFFFFFFF AND PUSH20 0xFFFFFFFFFFFFFFFFFFFFFFFFFFFFFFFFFFFFFFFF AND CALLER PUSH20 0xFFFFFFFFFFFFFFFFFFFFFFFFFFFFFFFFFFFFFFFF AND SUB PUSH2 0x2E6 JUMPI PUSH1 0x40 MLOAD PUSH32 0x8C379A000000000000000000000000000000000000000000000000000000000 DUP2 MSTORE PUSH1 0x4 ADD PUSH2 0x2DD SWAP1 PUSH2 0x129D JUMP JUMPDEST PUSH1 0x40 MLOAD DUP1 SWAP2 SUB SWAP1 REVERT JUMPDEST PUSH0 PUSH1 0x1 PUSH0 CALLER PUSH20 0xFFFFFFFFFFFFFFFFFFFFFFFFFFFFFFFFFFFFFFFF AND PUSH20 0xFFFFFFFFFFFFFFFFFFFFFFFFFFFFFFFFFFFFFFFF AND DUP2 MSTORE PUSH1 0x20 ADD SWAP1 DUP2 MSTORE PUSH1 0x20 ADD PUSH0 KECCAK256 PUSH0 ADD SLOAD GT PUSH2 0x367 JUMPI PUSH1 0x40 MLOAD PUSH32 0x8C379A000000000000000000000000000000000000000000000000000000000 DUP2 MSTORE PUSH1 0x4 ADD PUSH2 0x35E SWAP1 PUSH2 0x1305 JUMP JUMPDEST PUSH1 0x40 MLOAD DUP1 SWAP2 SUB SWAP1 REVERT JUMPDEST PUSH1 0x1 PUSH0 CALLER PUSH20 0xFFFFFFFFFFFFFFFFFFFFFFFFFFFFFFFFFFFFFFFF AND PUSH20 0xFFFFFFFFFFFFFFFFFFFFFFFFFFFFFFFFFFFFFFFF AND DUP2 MSTORE PUSH1 0x20 ADD SWAP1 DUP2 MSTORE PUSH1 0x20 ADD PUSH0 KECCAK256 PUSH1 0x3 ADD PUSH0 SWAP1 SLOAD SWAP1 PUSH2 0x100 EXP SWAP1 DIV PUSH1 0xFF AND PUSH2 0x3F3 JUMPI PUSH1 0x40 MLOAD PUSH32 0x8C379A000000000000000000000000000000000000000000000000000000000 DUP2 MSTORE PUSH1 0x4 ADD PUSH2 0x3EA SWAP1 PUSH2 0x1393 JUMP JUMPDEST PUSH1 0x40 MLOAD DUP1 SWAP2 SUB SWAP1 REVERT JUMPDEST PUSH0 PUSH2 0x3FC PUSH2 0xC25 JUMP JUMPDEST SWAP1 POP PUSH1 0x1 PUSH0 CALLER PUSH20 0xFFFFFFFFFFFFFFFFFFFFFFFFFFFFFFFFFFFFFFFF AND PUSH20 0xFFFFFFFFFFFFFFFFFFFFFFFFFFFFFFFFFFFFFFFF AND DUP2 MSTORE PUSH1 0x20 ADD SWAP1 DUP2 MSTORE PUSH1 0x20 ADD PUSH0 KECCAK256 PUSH1 0x4 ADD PUSH1 0x1 ADD SLOAD DUP2 SLT PUSH2 0x4E8 JUMPI PUSH1 0x1 DUP1 PUSH0 CALLER PUSH20 0xFFFFFFFFFFFFFFFFFFFFFFFFFFFFFFFFFFFFFFFF AND PUSH20 0xFFFFFFFFFFFFFFFFFFFFFFFFFFFFFFFFFFFFFFFF AND DUP2 MSTORE PUSH1 0x20 ADD SWAP1 DUP2 MSTORE PUSH1 0x20 ADD PUSH0 KECCAK256 PUSH1 0x3 ADD PUSH1 0x1 PUSH2 0x100 EXP DUP2 SLOAD DUP2 PUSH1 0xFF MUL NOT AND SWAP1 DUP4 ISZERO ISZERO MUL OR SWAP1 SSTORE POP PUSH2 0xC350 PUSH1 0x1 PUSH0 CALLER PUSH20 0xFFFFFFFFFFFFFFFFFFFFFFFFFFFFFFFFFFFFFFFF AND PUSH20 0xFFFFFFFFFFFFFFFFFFFFFFFFFFFFFFFFFFFFFFFF AND DUP2 MSTORE PUSH1 0x20 ADD SWAP1 DUP2 MSTORE PUSH1 0x20 ADD PUSH0 KECCAK256 PUSH1 0x2 ADD DUP2 SWAP1 SSTORE POP JUMPDEST PUSH0 PUSH1 0x1 PUSH0 CALLER PUSH20 0xFFFFFFFFFFFFFFFFFFFFFFFFFFFFFFFFFFFFFFFF AND PUSH20 0xFFFFFFFFFFFFFFFFFFFFFFFFFFFFFFFFFFFFFFFF AND DUP2 MSTORE PUSH1 0x20 ADD SWAP1 DUP2 MSTORE PUSH1 0x20 ADD PUSH0 KECCAK256 PUSH1 0x3 ADD PUSH0 PUSH2 0x100 EXP DUP2 SLOAD DUP2 PUSH1 0xFF MUL NOT AND SWAP1 DUP4 ISZERO ISZERO MUL OR SWAP1 SSTORE POP PUSH1 0x40 MLOAD DUP1 PUSH1 0x40 ADD PUSH1 0x40 MSTORE DUP1 PUSH0 DUP2 MSTORE PUSH1 0x20 ADD PUSH0 DUP2 MSTORE POP PUSH1 0x1 PUSH0 CALLER PUSH20 0xFFFFFFFFFFFFFFFFFFFFFFFFFFFFFFFFFFFFFFFF AND PUSH20 0xFFFFFFFFFFFFFFFFFFFFFFFFFFFFFFFFFFFFFFFF AND DUP2 MSTORE PUSH1 0x20 ADD SWAP1 DUP2 MSTORE PUSH1 0x20 ADD PUSH0 KECCAK256 PUSH1 0x4 ADD PUSH0 DUP3 ADD MLOAD DUP2 PUSH0 ADD SSTORE PUSH1 0x20 DUP3 ADD MLOAD DUP2 PUSH1 0x1 ADD SSTORE SWAP1 POP POP POP JUMP JUMPDEST PUSH0 PUSH0 SWAP1 SLOAD SWAP1 PUSH2 0x100 EXP SWAP1 DIV PUSH20 0xFFFFFFFFFFFFFFFFFFFFFFFFFFFFFFFFFFFFFFFF AND PUSH20 0xFFFFFFFFFFFFFFFFFFFFFFFFFFFFFFFFFFFFFFFF AND CALLER PUSH20 0xFFFFFFFFFFFFFFFFFFFFFFFFFFFFFFFFFFFFFFFF AND SUB PUSH2 0x63A JUMPI PUSH1 0x40 MLOAD PUSH32 0x8C379A000000000000000000000000000000000000000000000000000000000 DUP2 MSTORE PUSH1 0x4 ADD PUSH2 0x631 SWAP1 PUSH2 0x129D JUMP JUMPDEST PUSH1 0x40 MLOAD DUP1 SWAP2 SUB SWAP1 REVERT JUMPDEST PUSH0 PUSH1 0x1 PUSH0 CALLER PUSH20 0xFFFFFFFFFFFFFFFFFFFFFFFFFFFFFFFFFFFFFFFF AND PUSH20 0xFFFFFFFFFFFFFFFFFFFFFFFFFFFFFFFFFFFFFFFF AND DUP2 MSTORE PUSH1 0x20 ADD SWAP1 DUP2 MSTORE PUSH1 0x20 ADD PUSH0 KECCAK256 PUSH0 ADD SLOAD GT PUSH2 0x6BB JUMPI PUSH1 0x40 MLOAD PUSH32 0x8C379A000000000000000000000000000000000000000000000000000000000 DUP2 MSTORE PUSH1 0x4 ADD PUSH2 0x6B2 SWAP1 PUSH2 0x1305 JUMP JUMPDEST PUSH1 0x40 MLOAD DUP1 SWAP2 SUB SWAP1 REVERT JUMPDEST PUSH0 ISZERO ISZERO PUSH1 0x1 PUSH0 CALLER PUSH20 0xFFFFFFFFFFFFFFFFFFFFFFFFFFFFFFFFFFFFFFFF AND PUSH20 0xFFFFFFFFFFFFFFFFFFFFFFFFFFFFFFFFFFFFFFFF AND DUP2 MSTORE PUSH1 0x20 ADD SWAP1 DUP2 MSTORE PUSH1 0x20 ADD PUSH0 KECCAK256 PUSH1 0x3 ADD PUSH1 0x1 SWAP1 SLOAD SWAP1 PUSH2 0x100 EXP SWAP1 DIV PUSH1 0xFF AND ISZERO ISZERO EQ PUSH2 0x74E JUMPI PUSH1 0x40 MLOAD PUSH32 0x8C379A000000000000000000000000000000000000000000000000000000000 DUP2 MSTORE PUSH1 0x4 ADD PUSH2 0x745 SWAP1 PUSH2 0x1421 JUMP JUMPDEST PUSH1 0x40 MLOAD DUP1 SWAP2 SUB SWAP1 REVERT JUMPDEST PUSH1 0x1 PUSH0 CALLER PUSH20 0xFFFFFFFFFFFFFFFFFFFFFFFFFFFFFFFFFFFFFFFF AND PUSH20 0xFFFFFFFFFFFFFFFFFFFFFFFFFFFFFFFFFFFFFFFF AND DUP2 MSTORE PUSH1 0x20 ADD SWAP1 DUP2 MSTORE PUSH1 0x20 ADD PUSH0 KECCAK256 PUSH1 0x3 ADD PUSH0 SWAP1 SLOAD SWAP1 PUSH2 0x100 EXP SWAP1 DIV PUSH1 0xFF AND ISZERO PUSH2 0x7DB JUMPI PUSH1 0x40 MLOAD PUSH32 0x8C379A000000000000000000000000000000000000000000000000000000000 DUP2 MSTORE PUSH1 0x4 ADD PUSH2 0x7D2 SWAP1 PUSH2 0x14AF JUMP JUMPDEST PUSH1 0x40 MLOAD DUP1 SWAP2 SUB SWAP1 REVERT JUMPDEST PUSH1 0x1 DUP1 PUSH0 CALLER PUSH20 0xFFFFFFFFFFFFFFFFFFFFFFFFFFFFFFFFFFFFFFFF AND PUSH20 0xFFFFFFFFFFFFFFFFFFFFFFFFFFFFFFFFFFFFFFFF AND DUP2 MSTORE PUSH1 0x20 ADD SWAP1 DUP2 MSTORE PUSH1 0x20 ADD PUSH0 KECCAK256 PUSH1 0x3 ADD PUSH0 PUSH2 0x100 EXP DUP2 SLOAD DUP2 PUSH1 0xFF MUL NOT AND SWAP1 DUP4 ISZERO ISZERO MUL OR SWAP1 SSTORE POP PUSH1 0x40 MLOAD DUP1 PUSH1 0x40 ADD PUSH1 0x40 MSTORE DUP1 DUP3 DUP2 MSTORE PUSH1 0x20 ADD PUSH3 0x127500 PUSH2 0x84F PUSH2 0xC25 JUMP JUMPDEST PUSH2 0x859 SWAP2 SWAP1 PUSH2 0x14FA JUMP JUMPDEST DUP2 MSTORE POP PUSH1 0x1 PUSH0 CALLER PUSH20 0xFFFFFFFFFFFFFFFFFFFFFFFFFFFFFFFFFFFFFFFF AND PUSH20 0xFFFFFFFFFFFFFFFFFFFFFFFFFFFFFFFFFFFFFFFF AND DUP2 MSTORE PUSH1 0x20 ADD SWAP1 DUP2 MSTORE PUSH1 0x20 ADD PUSH0 KECCAK256 PUSH1 0x4 ADD PUSH0 DUP3 ADD MLOAD DUP2 PUSH0 ADD SSTORE PUSH1 0x20 DUP3 ADD MLOAD DUP2 PUSH1 0x1 ADD SSTORE SWAP1 POP POP CALLER PUSH20 0xFFFFFFFFFFFFFFFFFFFFFFFFFFFFFFFFFFFFFFFF AND PUSH32 0x7534124779D4D1EAF9CABBA5F94B2B281856ABA81C295CDE4C9E69483B04B8CC DUP3 PUSH1 0x40 MLOAD PUSH2 0x8F7 SWAP2 SWAP1 PUSH2 0x153C JUMP JUMPDEST PUSH1 0x40 MLOAD DUP1 SWAP2 SUB SWAP1 LOG2 POP JUMP JUMPDEST PUSH0 PUSH0 SWAP1 SLOAD SWAP1 PUSH2 0x100 EXP SWAP1 DIV PUSH20 0xFFFFFFFFFFFFFFFFFFFFFFFFFFFFFFFFFFFFFFFF AND PUSH20 0xFFFFFFFFFFFFFFFFFFFFFFFFFFFFFFFFFFFFFFFF AND CALLER PUSH20 0xFFFFFFFFFFFFFFFFFFFFFFFFFFFFFFFFFFFFFFFF AND SUB PUSH2 0x990 JUMPI PUSH1 0x40 MLOAD PUSH32 0x8C379A000000000000000000000000000000000000000000000000000000000 DUP2 MSTORE PUSH1 0x4 ADD PUSH2 0x987 SWAP1 PUSH2 0x129D JUMP JUMPDEST PUSH1 0x40 MLOAD DUP1 SWAP2 SUB SWAP1 REVERT JUMPDEST PUSH0 PUSH1 0x1 PUSH0 CALLER PUSH20 0xFFFFFFFFFFFFFFFFFFFFFFFFFFFFFFFFFFFFFFFF AND PUSH20 0xFFFFFFFFFFFFFFFFFFFFFFFFFFFFFFFFFFFFFFFF AND DUP2 MSTORE PUSH1 0x20 ADD SWAP1 DUP2 MSTORE PUSH1 0x20 ADD PUSH0 KECCAK256 PUSH0 ADD SLOAD GT PUSH2 0xA11 JUMPI PUSH1 0x40 MLOAD PUSH32 0x8C379A000000000000000000000000000000000000000000000000000000000 DUP2 MSTORE PUSH1 0x4 ADD PUSH2 0xA08 SWAP1 PUSH2 0x1305 JUMP JUMPDEST PUSH1 0x40 MLOAD DUP1 SWAP2 SUB SWAP1 REVERT JUMPDEST PUSH1 0x1 ISZERO ISZERO PUSH1 0x1 PUSH0 CALLER PUSH20 0xFFFFFFFFFFFFFFFFFFFFFFFFFFFFFFFFFFFFFFFF AND PUSH20 0xFFFFFFFFFFFFFFFFFFFFFFFFFFFFFFFFFFFFFFFF AND DUP2 MSTORE PUSH1 0x20 ADD SWAP1 DUP2 MSTORE PUSH1 0x20 ADD PUSH0 KECCAK256 PUSH1 0x3 ADD PUSH1 0x1 SWAP1 SLOAD SWAP1 PUSH2 0x100 EXP SWAP1 DIV PUSH1 0xFF AND ISZERO ISZERO EQ PUSH2 0xAA5 JUMPI PUSH1 0x40 MLOAD PUSH32 0x8C379A000000000000000000000000000000000000000000000000000000000 DUP2 MSTORE PUSH1 0x4 ADD PUSH2 0xA9C SWAP1 PUSH2 0x15EB JUMP JUMPDEST PUSH1 0x40 MLOAD DUP1 SWAP2 SUB SWAP1 REVERT JUMPDEST CALLVALUE PUSH1 0x1 PUSH0 CALLER PUSH20 0xFFFFFFFFFFFFFFFFFFFFFFFFFFFFFFFFFFFFFFFF AND PUSH20 0xFFFFFFFFFFFFFFFFFFFFFFFFFFFFFFFFFFFFFFFF AND DUP2 MSTORE PUSH1 0x20 ADD SWAP1 DUP2 MSTORE PUSH1 0x20 ADD PUSH0 KECCAK256 PUSH1 0x2 ADD SLOAD EQ PUSH2 0xB27 JUMPI PUSH1 0x40 MLOAD PUSH32 0x8C379A000000000000000000000000000000000000000000000000000000000 DUP2 MSTORE PUSH1 0x4 ADD PUSH2 0xB1E SWAP1 PUSH2 0x1679 JUMP JUMPDEST PUSH1 0x40 MLOAD DUP1 SWAP2 SUB SWAP1 REVERT JUMPDEST CALLVALUE PUSH1 0x1 PUSH0 CALLER PUSH20 0xFFFFFFFFFFFFFFFFFFFFFFFFFFFFFFFFFFFFFFFF AND PUSH20 0xFFFFFFFFFFFFFFFFFFFFFFFFFFFFFFFFFFFFFFFF AND DUP2 MSTORE PUSH1 0x20 ADD SWAP1 DUP2 MSTORE PUSH1 0x20 ADD PUSH0 KECCAK256 PUSH1 0x2 ADD PUSH0 DUP3 DUP3 SLOAD PUSH2 0xB76 SWAP2 SWAP1 PUSH2 0x1697 JUMP JUMPDEST SWAP3 POP POP DUP2 SWAP1 SSTORE POP PUSH0 PUSH1 0x1 PUSH0 CALLER PUSH20 0xFFFFFFFFFFFFFFFFFFFFFFFFFFFFFFFFFFFFFFFF AND PUSH20 0xFFFFFFFFFFFFFFFFFFFFFFFFFFFFFFFFFFFFFFFF AND DUP2 MSTORE PUSH1 0x20 ADD SWAP1 DUP2 MSTORE PUSH1 0x20 ADD PUSH0 KECCAK256 PUSH1 0x3 ADD PUSH1 0x1 PUSH2 0x100 EXP DUP2 SLOAD DUP2 PUSH1 0xFF MUL NOT AND SWAP1 DUP4 ISZERO ISZERO MUL OR SWAP1 SSTORE POP CALLER PUSH20 0xFFFFFFFFFFFFFFFFFFFFFFFFFFFFFFFFFFFFFFFF AND PUSH32 0xA7D0B298A569865CCC0FAFA222E634CAA4CCE3D90BE03818417FEEA98025A81E CALLVALUE PUSH1 0x40 MLOAD PUSH2 0xC1B SWAP2 SWAP1 PUSH2 0x153C JUMP JUMPDEST PUSH1 0x40 MLOAD DUP1 SWAP2 SUB SWAP1 LOG2 JUMP JUMPDEST PUSH0 TIMESTAMP SWAP1 POP SWAP1 JUMP JUMPDEST PUSH0 PUSH1 0x40 MLOAD SWAP1 POP SWAP1 JUMP JUMPDEST PUSH0 PUSH0 REVERT JUMPDEST PUSH0 PUSH0 REVERT JUMPDEST PUSH0 PUSH20 0xFFFFFFFFFFFFFFFFFFFFFFFFFFFFFFFFFFFFFFFF DUP3 AND SWAP1 POP SWAP2 SWAP1 POP JUMP JUMPDEST PUSH0 PUSH2 0xC66 DUP3 PUSH2 0xC3D JUMP JUMPDEST SWAP1 POP SWAP2 SWAP1 POP JUMP JUMPDEST PUSH2 0xC76 DUP2 PUSH2 0xC5C JUMP JUMPDEST DUP2 EQ PUSH2 0xC80 JUMPI PUSH0 PUSH0 REVERT JUMPDEST POP JUMP JUMPDEST PUSH0 DUP2 CALLDATALOAD SWAP1 POP PUSH2 0xC91 DUP2 PUSH2 0xC6D JUMP JUMPDEST SWAP3 SWAP2 POP POP JUMP JUMPDEST PUSH0 DUP2 SWAP1 POP SWAP2 SWAP1 POP JUMP JUMPDEST PUSH2 0xCA9 DUP2 PUSH2 0xC97 JUMP JUMPDEST DUP2 EQ PUSH2 0xCB3 JUMPI PUSH0 PUSH0 REVERT JUMPDEST POP JUMP JUMPDEST PUSH0 DUP2 CALLDATALOAD SWAP1 POP PUSH2 0xCC4 DUP2 PUSH2 0xCA0 JUMP JUMPDEST SWAP3 SWAP2 POP POP JUMP JUMPDEST PUSH0 PUSH0 REVERT JUMPDEST PUSH0 PUSH0 REVERT JUMPDEST PUSH0 PUSH1 0x1F NOT PUSH1 0x1F DUP4 ADD AND SWAP1 POP SWAP2 SWAP1 POP JUMP JUMPDEST PUSH32 0x4E487B7100000000000000000000000000000000000000000000000000000000 PUSH0 MSTORE PUSH1 0x41 PUSH1 0x4 MSTORE PUSH1 0x24 PUSH0 REVERT JUMPDEST PUSH2 0xD18 DUP3 PUSH2 0xCD2 JUMP JUMPDEST DUP2 ADD DUP2 DUP2 LT PUSH8 0xFFFFFFFFFFFFFFFF DUP3 GT OR ISZERO PUSH2 0xD37 JUMPI PUSH2 0xD36 PUSH2 0xCE2 JUMP JUMPDEST JUMPDEST DUP1 PUSH1 0x40 MSTORE POP POP POP JUMP JUMPDEST PUSH0 PUSH2 0xD49 PUSH2 0xC2C JUMP JUMPDEST SWAP1 POP PUSH2 0xD55 DUP3 DUP3 PUSH2 0xD0F JUMP JUMPDEST SWAP2 SWAP1 POP JUMP JUMPDEST PUSH0 PUSH8 0xFFFFFFFFFFFFFFFF DUP3 GT ISZERO PUSH2 0xD74 JUMPI PUSH2 0xD73 PUSH2 0xCE2 JUMP JUMPDEST JUMPDEST PUSH2 0xD7D DUP3 PUSH2 0xCD2 JUMP JUMPDEST SWAP1 POP PUSH1 0x20 DUP2 ADD SWAP1 POP SWAP2 SWAP1 POP JUMP JUMPDEST DUP3 DUP2 DUP4 CALLDATACOPY PUSH0 DUP4 DUP4 ADD MSTORE POP POP POP JUMP JUMPDEST PUSH0 PUSH2 0xDAA PUSH2 0xDA5 DUP5 PUSH2 0xD5A JUMP JUMPDEST PUSH2 0xD40 JUMP JUMPDEST SWAP1 POP DUP3 DUP2 MSTORE PUSH1 0x20 DUP2 ADD DUP5 DUP5 DUP5 ADD GT ISZERO PUSH2 0xDC6 JUMPI PUSH2 0xDC5 PUSH2 0xCCE JUMP JUMPDEST JUMPDEST PUSH2 0xDD1 DUP5 DUP3 DUP6 PUSH2 0xD8A JUMP JUMPDEST POP SWAP4 SWAP3 POP POP POP JUMP JUMPDEST PUSH0 DUP3 PUSH1 0x1F DUP4 ADD SLT PUSH2 0xDED JUMPI PUSH2 0xDEC PUSH2 0xCCA JUMP JUMPDEST JUMPDEST DUP2 CALLDATALOAD PUSH2 0xDFD DUP5 DUP3 PUSH1 0x20 DUP7 ADD PUSH2 0xD98 JUMP JUMPDEST SWAP2 POP POP SWAP3 SWAP2 POP POP JUMP JUMPDEST PUSH0 PUSH0 PUSH0 PUSH1 0x60 DUP5 DUP7 SUB SLT ISZERO PUSH2 0xE1D JUMPI PUSH2 0xE1C PUSH2 0xC35 JUMP JUMPDEST JUMPDEST PUSH0 PUSH2 0xE2A DUP7 DUP3 DUP8 ADD PUSH2 0xC83 JUMP JUMPDEST SWAP4 POP POP PUSH1 0x20 PUSH2 0xE3B DUP7 DUP3 DUP8 ADD PUSH2 0xCB6 JUMP JUMPDEST SWAP3 POP POP PUSH1 0x40 DUP5 ADD CALLDATALOAD PUSH8 0xFFFFFFFFFFFFFFFF DUP2 GT ISZERO PUSH2 0xE5C JUMPI PUSH2 0xE5B PUSH2 0xC39 JUMP JUMPDEST JUMPDEST PUSH2 0xE68 DUP7 DUP3 DUP8 ADD PUSH2 0xDD9 JUMP JUMPDEST SWAP2 POP POP SWAP3 POP SWAP3 POP SWAP3 JUMP JUMPDEST PUSH0 PUSH1 0x20 DUP3 DUP5 SUB SLT ISZERO PUSH2 0xE87 JUMPI PUSH2 0xE86 PUSH2 0xC35 JUMP JUMPDEST JUMPDEST PUSH0 PUSH2 0xE94 DUP5 DUP3 DUP6 ADD PUSH2 0xCB6 JUMP JUMPDEST SWAP2 POP POP SWAP3 SWAP2 POP POP JUMP JUMPDEST PUSH0 DUP3 DUP3 MSTORE PUSH1 0x20 DUP3 ADD SWAP1 POP SWAP3 SWAP2 POP POP JUMP JUMPDEST PUSH32 0x596F7520617265206E6F742061206C696272617269616E210000000000000000 PUSH0 DUP3 ADD MSTORE POP JUMP JUMPDEST PUSH0 PUSH2 0xEE1 PUSH1 0x18 DUP4 PUSH2 0xE9D JUMP JUMPDEST SWAP2 POP PUSH2 0xEEC DUP3 PUSH2 0xEAD JUMP JUMPDEST PUSH1 0x20 DUP3 ADD SWAP1 POP SWAP2 SWAP1 POP JUMP JUMPDEST PUSH0 PUSH1 0x20 DUP3 ADD SWAP1 POP DUP2 DUP2 SUB PUSH0 DUP4 ADD MSTORE PUSH2 0xF0E DUP2 PUSH2 0xED5 JUMP JUMPDEST SWAP1 POP SWAP2 SWAP1 POP JUMP JUMPDEST PUSH32 0x53747564656E7420616C726561647920656E726F6C6C65642100000000000000 PUSH0 DUP3 ADD MSTORE POP JUMP JUMPDEST PUSH0 PUSH2 0xF49 PUSH1 0x19 DUP4 PUSH2 0xE9D JUMP JUMPDEST SWAP2 POP PUSH2 0xF54 DUP3 PUSH2 0xF15 JUMP JUMPDEST PUSH1 0x20 DUP3 ADD SWAP1 POP SWAP2 SWAP1 POP JUMP JUMPDEST PUSH0 PUSH1 0x20 DUP3 ADD SWAP1 POP DUP2 DUP2 SUB PUSH0 DUP4 ADD MSTORE PUSH2 0xF76 DUP2 PUSH2 0xF3D JUMP JUMPDEST SWAP1 POP SWAP2 SWAP1 POP JUMP JUMPDEST PUSH0 DUP2 MLOAD SWAP1 POP SWAP2 SWAP1 POP JUMP JUMPDEST PUSH32 0x4E487B7100000000000000000000000000000000000000000000000000000000 PUSH0 MSTORE PUSH1 0x22 PUSH1 0x4 MSTORE PUSH1 0x24 PUSH0 REVERT JUMPDEST PUSH0 PUSH1 0x2 DUP3 DIV SWAP1 POP PUSH1 0x1 DUP3 AND DUP1 PUSH2 0xFCB JUMPI PUSH1 0x7F DUP3 AND SWAP2 POP JUMPDEST PUSH1 0x20 DUP3 LT DUP2 SUB PUSH2 0xFDE JUMPI PUSH2 0xFDD PUSH2 0xF87 JUMP JUMPDEST JUMPDEST POP SWAP2 SWAP1 POP JUMP JUMPDEST PUSH0 DUP2 SWAP1 POP DUP2 PUSH0 MSTORE PUSH1 0x20 PUSH0 KECCAK256 SWAP1 POP SWAP2 SWAP1 POP JUMP JUMPDEST PUSH0 PUSH1 0x20 PUSH1 0x1F DUP4 ADD DIV SWAP1 POP SWAP2 SWAP1 POP JUMP JUMPDEST PUSH0 DUP3 DUP3 SHL SWAP1 POP SWAP3 SWAP2 POP POP JUMP JUMPDEST PUSH0 PUSH1 0x8 DUP4 MUL PUSH2 0x1040 PUSH32 0xFFFFFFFFFFFFFFFFFFFFFFFFFFFFFFFFFFFFFFFFFFFFFFFFFFFFFFFFFFFFFFFF DUP3 PUSH2 0x1005 JUMP JUMPDEST PUSH2 0x104A DUP7 DUP4 PUSH2 0x1005 JUMP JUMPDEST SWAP6 POP DUP1 NOT DUP5 AND SWAP4 POP DUP1 DUP7 AND DUP5 OR SWAP3 POP POP POP SWAP4 SWAP3 POP POP POP JUMP JUMPDEST PUSH0 DUP2 SWAP1 POP SWAP2 SWAP1 POP JUMP JUMPDEST PUSH0 PUSH2 0x1085 PUSH2 0x1080 PUSH2 0x107B DUP5 PUSH2 0xC97 JUMP JUMPDEST PUSH2 0x1062 JUMP JUMPDEST PUSH2 0xC97 JUMP JUMPDEST SWAP1 POP SWAP2 SWAP1 POP JUMP JUMPDEST PUSH0 DUP2 SWAP1 POP SWAP2 SWAP1 POP JUMP JUMPDEST PUSH2 0x109E DUP4 PUSH2 0x106B JUMP JUMPDEST PUSH2 0x10B2 PUSH2 0x10AA DUP3 PUSH2 0x108C JUMP JUMPDEST DUP5 DUP5 SLOAD PUSH2 0x1011 JUMP JUMPDEST DUP3 SSTORE POP POP POP POP JUMP JUMPDEST PUSH0 PUSH0 SWAP1 POP SWAP1 JUMP JUMPDEST PUSH2 0x10C9 PUSH2 0x10BA JUMP JUMPDEST PUSH2 0x10D4 DUP2 DUP5 DUP5 PUSH2 0x1095 JUMP JUMPDEST POP POP POP JUMP JUMPDEST JUMPDEST DUP2 DUP2 LT ISZERO PUSH2 0x10F7 JUMPI PUSH2 0x10EC PUSH0 DUP3 PUSH2 0x10C1 JUMP JUMPDEST PUSH1 0x1 DUP2 ADD SWAP1 POP PUSH2 0x10DA JUMP JUMPDEST POP POP JUMP JUMPDEST PUSH1 0x1F DUP3 GT ISZERO PUSH2 0x113C JUMPI PUSH2 0x110D DUP2 PUSH2 0xFE4 JUMP JUMPDEST PUSH2 0x1116 DUP5 PUSH2 0xFF6 JUMP JUMPDEST DUP2 ADD PUSH1 0x20 DUP6 LT ISZERO PUSH2 0x1125 JUMPI DUP2 SWAP1 POP JUMPDEST PUSH2 0x1139 PUSH2 0x1131 DUP6 PUSH2 0xFF6 JUMP JUMPDEST DUP4 ADD DUP3 PUSH2 0x10D9 JUMP JUMPDEST POP POP JUMPDEST POP POP POP JUMP JUMPDEST PUSH0 DUP3 DUP3 SHR SWAP1 POP SWAP3 SWAP2 POP POP JUMP JUMPDEST PUSH0 PUSH2 0x115C PUSH0 NOT DUP5 PUSH1 0x8 MUL PUSH2 0x1141 JUMP JUMPDEST NOT DUP1 DUP4 AND SWAP2 POP POP SWAP3 SWAP2 POP POP JUMP JUMPDEST PUSH0 PUSH2 0x1174 DUP4 DUP4 PUSH2 0x114D JUMP JUMPDEST SWAP2 POP DUP3 PUSH1 0x2 MUL DUP3 OR SWAP1 POP SWAP3 SWAP2 POP POP JUMP JUMPDEST PUSH2 0x118D DUP3 PUSH2 0xF7D JUMP JUMPDEST PUSH8 0xFFFFFFFFFFFFFFFF DUP2 GT ISZERO PUSH2 0x11A6 JUMPI PUSH2 0x11A5 PUSH2 0xCE2 JUMP JUMPDEST JUMPDEST PUSH2 0x11B0 DUP3 SLOAD PUSH2 0xFB4 JUMP JUMPDEST PUSH2 0x11BB DUP3 DUP3 DUP6 PUSH2 0x10FB JUMP JUMPDEST PUSH0 PUSH1 0x20 SWAP1 POP PUSH1 0x1F DUP4 GT PUSH1 0x1 DUP2 EQ PUSH2 0x11EC JUMPI PUSH0 DUP5 ISZERO PUSH2 0x11DA JUMPI DUP3 DUP8 ADD MLOAD SWAP1 POP JUMPDEST PUSH2 0x11E4 DUP6 DUP3 PUSH2 0x1169 JUMP JUMPDEST DUP7 SSTORE POP PUSH2 0x124B JUMP JUMPDEST PUSH1 0x1F NOT DUP5 AND PUSH2 0x11FA DUP7 PUSH2 0xFE4 JUMP JUMPDEST PUSH0 JUMPDEST DUP3 DUP2 LT ISZERO PUSH2 0x1221 JUMPI DUP5 DUP10 ADD MLOAD DUP3 SSTORE PUSH1 0x1 DUP3 ADD SWAP2 POP PUSH1 0x20 DUP6 ADD SWAP5 POP PUSH1 0x20 DUP2 ADD SWAP1 POP PUSH2 0x11FC JUMP JUMPDEST DUP7 DUP4 LT ISZERO PUSH2 0x123E JUMPI DUP5 DUP10 ADD MLOAD PUSH2 0x123A PUSH1 0x1F DUP10 AND DUP3 PUSH2 0x114D JUMP JUMPDEST DUP4 SSTORE POP JUMPDEST PUSH1 0x1 PUSH1 0x2 DUP9 MUL ADD DUP9 SSTORE POP POP POP JUMPDEST POP POP POP POP POP POP JUMP JUMPDEST PUSH32 0x596F7520617265206E6F7420612073747564656E742100000000000000000000 PUSH0 DUP3 ADD MSTORE POP JUMP JUMPDEST PUSH0 PUSH2 0x1287 PUSH1 0x16 DUP4 PUSH2 0xE9D JUMP JUMPDEST SWAP2 POP PUSH2 0x1292 DUP3 PUSH2 0x1253 JUMP JUMPDEST PUSH1 0x20 DUP3 ADD SWAP1 POP SWAP2 SWAP1 POP JUMP JUMPDEST PUSH0 PUSH1 0x20 DUP3 ADD SWAP1 POP DUP2 DUP2 SUB PUSH0 DUP4 ADD MSTORE PUSH2 0x12B4 DUP2 PUSH2 0x127B JUMP JUMPDEST SWAP1 POP SWAP2 SWAP1 POP JUMP JUMPDEST PUSH32 0x596F7520617265206E6F742079657420656E726F6C6C65642100000000000000 PUSH0 DUP3 ADD MSTORE POP JUMP JUMPDEST PUSH0 PUSH2 0x12EF PUSH1 0x19 DUP4 PUSH2 0xE9D JUMP JUMPDEST SWAP2 POP PUSH2 0x12FA DUP3 PUSH2 0x12BB JUMP JUMPDEST PUSH1 0x20 DUP3 ADD SWAP1 POP SWAP2 SWAP1 POP JUMP JUMPDEST PUSH0 PUSH1 0x20 DUP3 ADD SWAP1 POP DUP2 DUP2 SUB PUSH0 DUP4 ADD MSTORE PUSH2 0x131C DUP2 PUSH2 0x12E3 JUMP JUMPDEST SWAP1 POP SWAP2 SWAP1 POP JUMP JUMPDEST PUSH32 0x596F752068617665206E6F7420626F72726F776564206120626F6F6B20796574 PUSH0 DUP3 ADD MSTORE PUSH32 0x2100000000000000000000000000000000000000000000000000000000000000 PUSH1 0x20 DUP3 ADD MSTORE POP JUMP JUMPDEST PUSH0 PUSH2 0x137D PUSH1 0x21 DUP4 PUSH2 0xE9D JUMP JUMPDEST SWAP2 POP PUSH2 0x1388 DUP3 PUSH2 0x1323 JUMP JUMPDEST PUSH1 0x40 DUP3 ADD SWAP1 POP SWAP2 SWAP1 POP JUMP JUMPDEST PUSH0 PUSH1 0x20 DUP3 ADD SWAP1 POP DUP2 DUP2 SUB PUSH0 DUP4 ADD MSTORE PUSH2 0x13AA DUP2 PUSH2 0x1371 JUMP JUMPDEST SWAP1 POP SWAP2 SWAP1 POP JUMP JUMPDEST PUSH32 0x596F752068617665206120486F6C64204F726465722E204E6F7420616C6C6F77 PUSH0 DUP3 ADD MSTORE PUSH32 0x656420746F20626F72726F772100000000000000000000000000000000000000 PUSH1 0x20 DUP3 ADD MSTORE POP JUMP JUMPDEST PUSH0 PUSH2 0x140B PUSH1 0x2D DUP4 PUSH2 0xE9D JUMP JUMPDEST SWAP2 POP PUSH2 0x1416 DUP3 PUSH2 0x13B1 JUMP JUMPDEST PUSH1 0x40 DUP3 ADD SWAP1 POP SWAP2 SWAP1 POP JUMP JUMPDEST PUSH0 PUSH1 0x20 DUP3 ADD SWAP1 POP DUP2 DUP2 SUB PUSH0 DUP4 ADD MSTORE PUSH2 0x1438 DUP2 PUSH2 0x13FF JUMP JUMPDEST SWAP1 POP SWAP2 SWAP1 POP JUMP JUMPDEST PUSH32 0x596F7520616C726561647920626F72726F7765642E204E6F7420616C6C6F7765 PUSH0 DUP3 ADD MSTORE PUSH32 0x6420746F20626F72726F77206D6F726521000000000000000000000000000000 PUSH1 0x20 DUP3 ADD MSTORE POP JUMP JUMPDEST PUSH0 PUSH2 0x1499 PUSH1 0x31 DUP4 PUSH2 0xE9D JUMP JUMPDEST SWAP2 POP PUSH2 0x14A4 DUP3 PUSH2 0x143F JUMP JUMPDEST PUSH1 0x40 DUP3 ADD SWAP1 POP SWAP2 SWAP1 POP JUMP JUMPDEST PUSH0 PUSH1 0x20 DUP3 ADD SWAP1 POP DUP2 DUP2 SUB PUSH0 DUP4 ADD MSTORE PUSH2 0x14C6 DUP2 PUSH2 0x148D JUMP JUMPDEST SWAP1 POP SWAP2 SWAP1 POP JUMP JUMPDEST PUSH32 0x4E487B7100000000000000000000000000000000000000000000000000000000 PUSH0 MSTORE PUSH1 0x11 PUSH1 0x4 MSTORE PUSH1 0x24 PUSH0 REVERT JUMPDEST PUSH0 PUSH2 0x1504 DUP3 PUSH2 0xC97 JUMP JUMPDEST SWAP2 POP PUSH2 0x150F DUP4 PUSH2 0xC97 JUMP JUMPDEST SWAP3 POP DUP3 DUP3 ADD SWAP1 POP DUP1 DUP3 GT ISZERO PUSH2 0x1527 JUMPI PUSH2 0x1526 PUSH2 0x14CD JUMP JUMPDEST JUMPDEST SWAP3 SWAP2 POP POP JUMP JUMPDEST PUSH2 0x1536 DUP2 PUSH2 0xC97 JUMP JUMPDEST DUP3 MSTORE POP POP JUMP JUMPDEST PUSH0 PUSH1 0x20 DUP3 ADD SWAP1 POP PUSH2 0x154F PUSH0 DUP4 ADD DUP5 PUSH2 0x152D JUMP JUMPDEST SWAP3 SWAP2 POP POP JUMP JUMPDEST PUSH32 0x596F7520646F206E6F742068617665206120486F6C64204F726465722E20596F PUSH0 DUP3 ADD MSTORE PUSH32 0x7520646F206E6F74206861766520616E206F75747374616E64696E672062616C PUSH1 0x20 DUP3 ADD MSTORE PUSH32 0x616E636500000000000000000000000000000000000000000000000000000000 PUSH1 0x40 DUP3 ADD MSTORE POP JUMP JUMPDEST PUSH0 PUSH2 0x15D5 PUSH1 0x44 DUP4 PUSH2 0xE9D JUMP JUMPDEST SWAP2 POP PUSH2 0x15E0 DUP3 PUSH2 0x1555 JUMP JUMPDEST PUSH1 0x60 DUP3 ADD SWAP1 POP SWAP2 SWAP1 POP JUMP JUMPDEST PUSH0 PUSH1 0x20 DUP3 ADD SWAP1 POP DUP2 DUP2 SUB PUSH0 DUP4 ADD MSTORE PUSH2 0x1602 DUP2 PUSH2 0x15C9 JUMP JUMPDEST SWAP1 POP SWAP2 SWAP1 POP JUMP JUMPDEST PUSH32 0x506C65617365207061792074686520657861637420616D6F756E74206F662074 PUSH0 DUP3 ADD MSTORE PUSH32 0x68652066696E6500000000000000000000000000000000000000000000000000 PUSH1 0x20 DUP3 ADD MSTORE POP JUMP JUMPDEST PUSH0 PUSH2 0x1663 PUSH1 0x27 DUP4 PUSH2 0xE9D JUMP JUMPDEST SWAP2 POP PUSH2 0x166E DUP3 PUSH2 0x1609 JUMP JUMPDEST PUSH1 0x40 DUP3 ADD SWAP1 POP SWAP2 SWAP1 POP JUMP JUMPDEST PUSH0 PUSH1 0x20 DUP3 ADD SWAP1 POP DUP2 DUP2 SUB PUSH0 DUP4 ADD MSTORE PUSH2 0x1690 DUP2 PUSH2 0x1657 JUMP JUMPDEST SWAP1 POP SWAP2 SWAP1 POP JUMP JUMPDEST PUSH0 PUSH2 0x16A1 DUP3 PUSH2 0xC97 JUMP JUMPDEST SWAP2 POP PUSH2 0x16AC DUP4 PUSH2 0xC97 JUMP JUMPDEST SWAP3 POP DUP3 DUP3 SUB SWAP1 POP DUP2 DUP2 GT ISZERO PUSH2 0x16C4 JUMPI PUSH2 0x16C3 PUSH2 0x14CD JUMP JUMPDEST JUMPDEST SWAP3 SWAP2 POP POP JUMP INVALID LOG2 PUSH5 0x6970667358 0x22 SLT KECCAK256 0xCD EXTSTATICCALL SWAP3 0xAF DUP10 0xDA GAS 0x1F 0xD3 JUMPI CALLF 0xDA23 DUP9 RETURNDATASIZE PUSH7 0x5754AE22F3DBE3 MSTORE8 CODECOPY DUP3 PUSH16 0x7F7C5DB5C664736F6C634300081E0033 "
				},
				"gasEstimates": {
					"creation": {
						"codeDepositCost": "1177600",
						"executionCost": "25483",
						"totalCost": "1203083"
					},
					"external": {
						"addStudent(address,uint256,string)": "infinite",
						"borrow(uint256)": "infinite",
						"payBalance()": "infinite",
						"returnBook()": "90212"
					},
					"internal": {
						"getTime()": "21"
					}
				},
				"methodIdentifiers": {
					"addStudent(address,uint256,string)": "60e5f3bb",
					"borrow(uint256)": "c5ebeaec",
					"payBalance()": "d5503d5f",
					"returnBook()": "772aaeb5"
				}
			},
			"storageLayout": {
				"storage": [
					{
						"astId": 3,
						"contract": "contracts/RizalLibrary.sol:RizalLibrary",
						"label": "librarian",
						"offset": 0,
						"slot": "0",
						"type": "t_address"
					},
					{
						"astId": 27,
						"contract": "contracts/RizalLibrary.sol:RizalLibrary",
						"label": "students",
						"offset": 0,
						"slot": "1",
						"type": "t_mapping(t_address,t_struct(Student)22_storage)"
					}
				],
				"types": {
					"t_address": {
						"encoding": "inplace",
						"label": "address",
						"numberOfBytes": "20"
					},
					"t_bool": {
						"encoding": "inplace",
						"label": "bool",
						"numberOfBytes": "1"
					},
					"t_int256": {
						"encoding": "inplace",
						"label": "int256",
						"numberOfBytes": "32"
					},
					"t_mapping(t_address,t_struct(Student)22_storage)": {
						"encoding": "mapping",
						"key": "t_address",
						"label": "mapping(address => struct RizalLibrary.Student)",
						"numberOfBytes": "32",
						"value": "t_struct(Student)22_storage"
					},
					"t_string_storage": {
						"encoding": "bytes",
						"label": "string",
						"numberOfBytes": "32"
					},
					"t_struct(Book)8_storage": {
						"encoding": "inplace",
						"label": "struct RizalLibrary.Book",
						"members": [
							{
								"astId": 5,
								"contract": "contracts/RizalLibrary.sol:RizalLibrary",
								"label": "bookCallNum",
								"offset": 0,
								"slot": "0",
								"type": "t_uint256"
							},
							{
								"astId": 7,
								"contract": "contracts/RizalLibrary.sol:RizalLibrary",
								"label": "borrowDeadline",
								"offset": 0,
								"slot": "1",
								"type": "t_int256"
							}
						],
						"numberOfBytes": "64"
					},
					"t_struct(Student)22_storage": {
						"encoding": "inplace",
						"label": "struct RizalLibrary.Student",
						"members": [
							{
								"astId": 10,
								"contract": "contracts/RizalLibrary.sol:RizalLibrary",
								"label": "idnumber",
								"offset": 0,
								"slot": "0",
								"type": "t_uint256"
							},
							{
								"astId": 12,
								"contract": "contracts/RizalLibrary.sol:RizalLibrary",
								"label": "name",
								"offset": 0,
								"slot": "1",
								"type": "t_string_storage"
							},
							{
								"astId": 14,
								"contract": "contracts/RizalLibrary.sol:RizalLibrary",
								"label": "balance",
								"offset": 0,
								"slot": "2",
								"type": "t_uint256"
							},
							{
								"astId": 16,
								"contract": "contracts/RizalLibrary.sol:RizalLibrary",
								"label": "hasBorrowed",
								"offset": 0,
								"slot": "3",
								"type": "t_bool"
							},
							{
								"astId": 18,
								"contract": "contracts/RizalLibrary.sol:RizalLibrary",
								"label": "holdOrder",
								"offset": 1,
								"slot": "3",
								"type": "t_bool"
							},
							{
								"astId": 21,
								"contract": "contracts/RizalLibrary.sol:RizalLibrary",
								"label": "bookBorrowed",
								"offset": 0,
								"slot": "4",
								"type": "t_struct(Book)8_storage"
							}
						],
						"numberOfBytes": "192"
					},
					"t_uint256": {
						"encoding": "inplace",
						"label": "uint256",
						"numberOfBytes": "32"
					}
				}
			},
			"userdoc": {
				"kind": "user",
				"methods": {},
				"version": 1
			}
		}
	}
}